:1000000053C300000C945A176BC3000069C300006F
:1000100067C3000065C3000063C3000061C3000044
:100020005FC300005DC300005BC300000C94F916C1
:1000300057C3000055C300006DC5000051C3000048
:100040004FC300004DC300000C941A2C0C94E82BF5
:1000500047C3000045C3000043C3000041C3000084
:100060003FC300003DC3000041CB1B42190843D2EF
:1000700004454C1F65400846E20E66752147E60EB2
:100080006846106980254B900F6B63286C07084DFC
:10009000240F6DB62B52880754A00974EA05551237
:1000A0001056780857C80758DD11789904595A1F17
:1000B0005A4C1E7AC924000000000000202F2000A6
:1000C000203D2000072E050DD391FF080500000CF0
:1000D0000021656A2D3B1322F862073F181D1CC7DB
:1000E00000B0876BF8B611EA2A001F41000D2E2DD3
:1000F00007D3913D04320000060021656A55E430C3
:1001000023B900070018146C070090876BF856118C
:10011000E92A001F410000030F1E262700000003EC
:100120000F1E2536386700030F2567406050000317
:100130000F275188838100030F2750C8C3C20027AF
:1001400000000000000000670000000000000050F8
:10015000000000000000008100000000000000C25C
:10016000000000000000504C4C310D0A00504C4C77
:10017000300D0A005620312E3637206E616E6F43E7
:10018000554C383638005620312E3637206E616E89
:100190006F43554C34333300202F2000203D200086
:1001A0004E2F4100454F420D0A004E2F41004E2F69
:1001B000410000535300547D7DFFFF4B4B7E7E007A
:1001C0004C4F56460D0A00424F56460D0A00455206
:1001D000523A4343410D0A000B08105B11F81547D2
:1001E000191D1A1C1BC71C001DB221B623EA0007EB
:1001F000022E030D04E905CA070C0B060D210E653E
:100200000F6A10C8119312031534173318181916F2
:100210001B4321562500261129592C812D353EC31B
:100220004C454E4552520D0A004C4F56460D0A00A1
:100230004C454E4552520D0A000007024604C605C1
:10024000260B0610C81193120313221534173F18FA
:100250002819161B432156250026110D210E650F66
:100260006A070C160720F81E871F6B29592C812D51
:10027000353EC3FF0000070246030D049A057D06C4
:1002800042070C0B060D210E650F6A10C811931260
:100290000315341700181819161B431C682500266F
:1002A00011FF00000000000000000000000000003E
:1002B000000D2E2D07D3913D04320000060010AB37
:1002C000A5550A3023B900070018146C0700908761
:1002D0006BF85611E92A001F41000001022E0301AC
:1002E00004AA050F06FF070008000B060D210E7477
:1002F0000FAD104B11F8121613721541181819167C
:100300001B0323E9242A2500261F3E500001022E4C
:10031000030104AA050F06FF070008000B060D21C4
:100320000E660F6610CA119312061352153518186F
:1003300019161B0323E9242A2500261F3E5000011D
:10034000022E0301045505F006FF070008000B0606
:100350000D210E660F9910591183121E1352153577
:10036000181819161B0323E9242A2500261F3E50BE
:100370000D2E2D07D3913D04320000060010B07100
:1003800055E43023B900070018146C070090876B00
:10039000F85611E92A001F41000D0A002043686544
:1003A000636B73756D204572726F722C2043616CA4
:1003B00063756C6174656420436B733A20006B72E3
:1003C000000D0A002020526563656976656420444B
:1003D0006174613A2000427974657320696E204629
:1003E00069666F3A20004B6F707020436F6D6D61CE
:1003F0006E6420556E6B6E6F776E0D0A004B6F70DA
:1004000070205265636569766520537562436F6D30
:100410006D616E6420556E6B6E6F776E0D0A0052C3
:10042000585F494E49545F4552525F4D41524353C4
:10043000544154455F5258006B72532D52656365A9
:1004400069766553746172740D0A006B72452D52A2
:10045000656365697665456E640D0A0020427974AE
:100460006573206F72204B6579636F6465206973D3
:10047000206E6F206865782076616C75650D0A00C6
:100480004B6F7070205472616E736D697474204389
:100490006F6D6D616E64206E6F7420657175616C37
:1004A00020746F2000426C6F636B330D0A00426C46
:1004B0006F636B320D0A005B6865785D0D0A00742E
:1004C00069636B732D426C6F636B53746172745408
:1004D000696D653A20005B6865785D0D0A004B65C3
:1004E000794F666654696D653A20202020202020CF
:1004F00020202020005B6865785D0D0A00426C6F4B
:10050000636B2053746172742054696D653A2020C6
:10051000202020005B6865785D0D0A005469636BDC
:100520002054696D65723A20202020202020202050
:100530002020005B6865785D0D0A004B65794F6689
:100540006654696D6520696E207469636B733A2027
:1005500020006D7365630D0A004B65794F66665424
:10056000696D653A202020202020202020202000B6
:100570000D0A005469636B2054696D65723A20203E
:10058000202020202020202020000D0A000D0A41DC
:100590006D6F756E74206F662042797465732028C4
:1005A0004865782920666F756E6420696E7369648A
:1005B0006520636F6D6D616E64206C696E6520707F
:1005C0006172616D657465723A20202020202020C0
:1005D00020202020000D0A4E657874204368617247
:1005E00061637465722028696E7429206166746580
:1005F0007220706172616D65746572202873686F16
:10060000756C64206265206C696E6520656E64207F
:10061000636861726163746572293A20000D0A5340
:100620007472696E676C656E6774683A202020206A
:100630002000636F6D6D616E646C696E65706172D0
:10064000616D657465723A20005472616E736D69F4
:1006500074740D0A0054585F494E49545F45525214
:100660005F00012E4604AA540FE00000000600219E
:10067000656A97831663B947070C29366C07409162
:10068000876BF85611E92A001F4100206973207515
:100690006E6B6E6F776E2920557365206F6E6520C7
:1006A0006F66003F2028000011241FBECFEFD8E066
:1006B000DEBFCDBF11E0A0E0B1E0E2E4F0E602C0B1
:1006C00005900D92AA34B107D9F725E0AAE4B1E06C
:1006D00001C01D92AF33B207E1F703D00C941F3075
:1006E0008FCC0FB6F894A8958091600088618093B4
:1006F0006000109260000FBEC1E080E80FB6F89471
:1007000080936100C09361000FBE219A299A0E94D4
:10071000EF2CDBD489EF87BD84E085BD82E084BD0A
:1007200080936E00109280008AE08093810084B7ED
:10073000877F84BF9FE088E10FB6F894A8958093E7
:1007400060000FBE909360008CE090E00E944A2C05
:10075000B2D50E94BE1184EA9CE290932E0380934E
:100760002D03C0934D01299878940E94692C0E9412
:10077000321446D20E94BA210E945B1A0E94D41DF4
:100780000E94C91E0E94D02A0E949823EECF8EBDDF
:100790000DB407FEFDCF8EB50895EF92FF920F9333
:1007A0001F93CF93C82F8A3008F0C8E028E0C29F7B
:1007B000800111248BE290E00B521109FC01E00F43
:1007C000F11FEA5EFE4F64917C012FEFE21AF20AFC
:1007D00080D3C7018333910589F7C550C53010F028
:1007E00067E101C061E184E290E073D3CF911F9192
:1007F0000F91FF90EF900895CF93DF9382E090E008
:10080000FC01E551FF4F6491EC01219662D3CE01CA
:10081000AB97B1F787E390E0FC01E357FF4F64919A
:10082000EC01219656D3CE01C036D105A9F78091AF
:10083000340180FD18C060E18FE090E04AD360EBA6
:1008400080E190E046D361E781E190E042D360E14E
:1008500084E490E03ED360EB85E490E03AD361E736
:1008600086E490E036D388E098DFDF91CF91089559
:100870002A98806C8CDF80E08ADF2A9A0895A1E0B4
:10088000B0E0E5E4F4E00C94312D2A9880646983AB
:100890007EDF6981862F7BDF2A9A2196E2E00C9425
:1008A0004D2D2A9874DF2A9A0895EF92FF920F93A4
:1008B0001F93CF93DF93EC0110927F02E898229A66
:1008C0002A9A8EE190E005D22A988EE190E001D23A
:1008D0002A9A8DE290E0FDD180E3E3DF84E690E0A8
:1008E000F8D12A9880E453DF8E01075D1F4F7E0107
:1008F0008FEFE81AF80ACE01F1D249DFE701E016DE
:10090000F106A9F72A9A2A988EE741DF8BE290E058
:10091000EC012196E3D23BDFCE01E397C9F72A9A97
:1009200083E3BFDF81E0DAD1CDB7DEB7E6E00C9438
:10093000492DA1E0B0E0EFE9F4E00C94312D22E084
:10094000298341E0BE016F5F7F4F019678D2898194
:1009500024DF82E090E0A9DF2196E2E00C944D2DA7
:10096000CF93E89886E39DDFCFEF85E39ADFC15010
:100970008077803229F08AE090E0ABD1C111F5CFC9
:10098000CF910895CF93CFEF84E38BDFC150807771
:10099000803129F08AE090E09CD1C111F5CFE89A2E
:1009A000CF910895A2E0B0E0E8EDF4E00C942F2D93
:1009B0008C01FC0181818737E9F441E0BE016F5F62
:1009C0007F4FC80102963BD2892BA1F041E0BE01C6
:1009D0006E5F7F4FC801049632D2892B59F06A812D
:1009E00089814DDF83E35DDFCDDF898123D28A8179
:1009F00021D22CC041E0BE016E5F7F4FC80101963D
:100A00001ED2892B21F18A81893969F410E0812F66
:100A10002FDF10D2812F8770873009F493D11F5FA9
:100A20001033A9F714C024DF182F83E460D18A8122
:100A300001D280EC90E079D1812FFCD18CEB90E059
:100A400074D140E262E0812F90E081D17BD1229687
:100A5000E4E00C944B2D86E324DF10922F031092D8
:100A60007D0210927F02089582E090E01EDF81E017
:100A700080932F0310927D0210927F0208950F93AE
:100A80001F93CF93DF93D82FC0E0062F10E085E3AC
:100A9000EFDE8D1731F0C8011CD1C150C1F781E0E4
:100AA00001C080E0DF91CF911F910F91089585E201
:100AB000DFDE8F3311F080E0089586E3F2DE80916F
:100AC0004A01811104C08DE691E02FD102C08DE36F
:100AD000E8DE83E3E6DE64E081E0D1DF85E2C8DEC4
:100AE0008F3349F780914A01811103C086E691E076
:100AF0001CD181E0089585E3BBDE8D3051F485E2A1
:100B0000B7DE8F3331F4D3DF84E3CBDE80778031FF
:100B1000D9F708951F920F920FB60F9211248F9359
:100B20009F93AF93BF93EF93FF9380913103909185
:100B30003203A0913303B09134030196A11DB11D7E
:100B40008093310390933203A0933303B093340323
:100B5000809130038F5F80933003E8E3F3E080817E
:100B60009181181619061CF401979183808336969B
:100B700083E0E035F80799F7809152039091530391
:100B8000009729F00197909353038093520380912B
:100B900065038F3F19F0815080936503FF91EF91BA
:100BA000BF91AF919F918F910F900FBE0F901F90AB
:100BB0001895FC019FB7F89440913103509132038E
:100BC0006091330370913403408351836283738354
:100BD0009FBF0895A4E0B0E0E0EFF5E00C94312D64
:100BE000CE010196E6DF8C8125D18B8123D18A81CC
:100BF00021D189811FD1A6D02496E2E00C944D2DFD
:100C00000F931F93CF938091310390913203A09162
:100C10003303B091340320914C01281709F455C0D7
:100C20008091310390913203A0913303B09134034A
:100C300080934C01A89508E313E0C0E0F80180819F
:100C40009181892B11F48C2F9CD5CF5F0A5F1F4FA8
:100C5000C430A1F78091520390915303892B09F47A
:100C6000EBD580916503811101C044D6809130039A
:100C70008D3758F1109230038091000181FF04C03C
:100C800095B182E0892785B98091760390917703A9
:100C90008438F3E09F0728F40196909377038093BC
:100CA000760380914B018F5F8C3319F080934B0159
:100CB0000CC010924B01809137038F5F8C3318F476
:100CC0008093370302C010923703CF911F910F9189
:100CD0000895880F991F0197F1F7089520ED37E0E7
:100CE000815020F0F9013197F1F7FACF08959091F2
:100CF0004D0190FF0EC0909135049E3730F097FD66
:100D000008C08D3011F08A3021F4682F83E394E01D
:100D1000FBC10895CF93DF93EC018991882311F0F3
:100D2000E6DFFBCFDF91CF910895CF93DF93EC0106
:100D3000FE018491882319F0DADF2196F9CFDF9143
:100D4000CF9108958DE0D3DF8AE0D1CF0895A6E05A
:100D5000B0E0EDEAF6E00C942F2D362F1E8225E050
:100D6000EAE0F0E0215001E010E00C0F1D1F020F3F
:100D7000111DBF010E94FA2C805DD8018C93CB011C
:100D80003150009769F02111EDCF0AC0222359F0AC
:100D90002150E1E0F0E0EC0FFD1FE20FF11D408378
:100DA000315037FFF3CF81E090E08C0F9D1F820F11
:100DB000911DB0DF2696E4E00C944B2DA5E0B0E049
:100DC000E4EEF6E00C942F2DFC011D8294E02E2F12
:100DD0002F709150A92FB0E02A3010F4205D01C08F
:100DE000295C01E010E00C0F1D1FA00FB11F2C9318
:100DF00084E0F695E7958A95E1F76150309739F7E9
:100E0000615067FD0BC0992349F09150E1E0F0E09B
:100E1000EC0FFD1FE90FF11D4083F2CF21E030E020
:100E20002C0F3D1F290F311DC90174DF2596E4E009
:100E30000C944B2D40E362E090E0C0CF0895DC01BC
:100E4000FB0130E020E09D919923B1F0913608F04C
:100E5000905280ED890F8A3010F4982F05C08FEBE7
:100E6000890F863028F49753922B332389F006C0DC
:100E7000903249F39A3339F3CF0107C09F012F5FB6
:100E80003F4F9083415049F4C901861B970B089549
:100E9000292F2295207F31E0D6CFF901D2CFFC0156
:100EA00020E030E08AE09191992379F040ED490FFC
:100EB0004A30C8F7829FA001839F500D11249A01E8
:100EC00020533109290F311DEECFFB0131832083DF
:100ED00008950E94C72FF999FECF08950C94BF2F53
:100EE00008950F931F93CF93CFEFC60FCF3F61F0BD
:100EF0008C010F5F1F4FF2DF9DDFCC2311F08AE3DF
:100F0000F6DEC150C801F2CFCF911F910F91089525
:100F1000A2E0B0E0EEE8F7E00C942E2DFC01218178
:100F20002D3421F466E08AEF93E005C0203529F4E2
:100F300060E18AED93E0D5DF26C01A82198242E093
:100F4000BE016F5F7F4F01967ADF098110E082302A
:100F500021F4102F00278A81082BC801BFDFF82E4B
:100F600082E5C5DE40E364E0C80128DF8CE991E05A
:100F7000DCDE8F2D5FDF88E991E0D7DE40E262E0C2
:100F80008F2D90E0E4DEDEDE2296E5E00C944A2D23
:100F9000A6E0B0E0EEECF7E00C942B2D8C0143E0E2
:100FA000BE016F5F7F4F01964ADF7C01823058F1AE
:100FB000C980D12C823021F0DC2CCC248A81C82A33
:100FC000FF24FE01EE0DFF1D6081C60182DFEE0CE5
:100FD000FF1C8FEFE81AF80A0E0D1F1DF801808123
:100FE000882389F041E0BE016F5F7F4FC80127DF92
:100FF000892B49F0EFEFCE1ADE0A6981C60169DF5D
:101000000E5F1F4FEBCF2696E8E00C94472D41E092
:1010100060E071E0019613DF8091000180FF02C063
:10102000299A01C029986091000184E390E051CF92
:101030000895A1E0B0E0EFE1F8E00C94312D1982C1
:10104000009731F041E0BE016F5F7F4F0196F7DE00
:1010500089818F3F09F4FFCF882321F061E083E38A
:1010600090E037DF10926E00F89498E088E10FB6B8
:10107000F894A895809360000FBE90936000FFCF16
:10108000CF93DF93EC0161E080E090E022DF63E446
:1010900081E090E01EDFB0DB60E080E690E019DFE9
:1010A00060E081E690E015DF60E083E390E011DF2F
:1010B00062E084E390E00DDF8981883719F080E0F9
:1010C00090E0B7DFDF91CF91089580E090E006DFF8
:1010D000813029F481E090E001DF833419F080E071
:1010E00090E0CEDF84E390E0F9DE80930001089584
:1010F0008091340180FD03C086E891E002C084E75E
:1011000091E013DE1FCE0895FC019FB7F894828111
:1011100087FD0EC08F5F8283208181E0820F8083F4
:10112000DF01A20FB11D13966C93803809F4108271
:101130009FBF0895FC012FB7F8948281811102C0EE
:101140002FBF08959FEF980F9283918181E0890FBF
:101150008183DF01A90FB11D13969C91803809F49A
:1011600011822FBF892F08951092500310920A0206
:1011700083E0809354018FEF809365030895E5E544
:10118000F1E02081211105C0892BB1F080E090E0D1
:101190000895B2E0E330FB07B8F7009751F04181C2
:1011A000DC013C91431305C0428111963C914317E9
:1011B00051F0E20FF11DE5CF32E0E330F30719F013
:1011C00010F0E3E0F2E0CF01089524E0829FC00137
:1011D0001124FC01EA59FC4F80818F3F89F08093F4
:1011E0004F018181809350018281809351018381DD
:1011F0008093520121E04CE064E08FE491E05AC515
:10120000089584E092E0BBDF009799F020915401AB
:10121000FC013081231768F4E20FF11D8081809377
:10122000060289E78093070281818093080281E0AA
:10123000089580E008950F931F93CF93DF9320913B
:10124000790326FF12C08C0184E551DDE8010B5FB4
:101250001F4F8991EFDDC017D107D9F7809179032E
:1012600085FF02C08AEFE6DD6DDDDF91CF911F9132
:101270000F91089586E315DB80910602833511F006
:101280008BE401C08BE92ADD21E04CE065E084E0DD
:1012900092E010D577DB84E092E0CDCF0895EADFCD
:1012A00080910602893631F081E08093030289E261
:1012B000809365030895CF9385E390E00FDE8093DC
:1012C000360386E390E00ADE80936403E4E5F3E00E
:1012D000CFEFC083C283C483C683C087C287C4875D
:1012E000C68742DF1092550181E080933503A6E660
:1012F000B3E0CC93E8E3F3E08FEF9FEF918380833B
:1013000013821282158214821496CC9314979783B9
:10131000868311861086138612861896CC931897AA
:101320009587848717861686118A108A1C96CC9317
:10133000938B828B158A148A178A168ACF91089507
:10134000AF92BF92CF92DF92FF920F931F93CF93F2
:10135000DF93CDB7DEB72C970FB6F894DEBF0FBE84
:10136000CDBF8C015C013FEFA31AB30A45E0BE017B
:101370006F5F7F4FC50163DD843008F0D7C099816E
:10138000913091F4833051F46A8185E390E0A1DDDE
:101390006B8186E390E09DDD8EDFE3C180913603B3
:1013A00049DD809164038BC0923009F04EC08130DA
:1013B00049F091E080E02A81213009F090E0C92EC7
:1013C000D82E03C0CC24C394D12C80915501811117
:1013D00003C080EA91E0A9DC05E511E0F801808115
:1013E000882309F4A1C0F2E003301F0708F09CC075
:1013F00081E00535180711F080E279DCF801818180
:1014000019DDF801828116DDC114D104C9F08AE327
:101410006EDC93E0F8018081981790F4943030F0FE
:1014200090FF04C08CE29C8762DC9C85FF24F394CF
:10143000F90EF801E90FF11D8081FCDC9F2DEACF48
:10144000F8018081080F111DC9CF933049F480E065
:1014500090E095DE855591409EEA981B892F2FC01C
:10146000903111F504E513E0D12CF12CF8018081C5
:101470008F3F79F0FF2011F080E239DC8D2DDADC2E
:101480008AE335DCF8018081D5DCF8018181D2DC8A
:10149000F3940E5F1F4FD394F8E0DF12E7CFF11003
:1014A00043C08EEA91E03FC0913159F480915203DC
:1014B000909153036DE770E00E94FA2C862FBADCFE
:1014C00033C0923189F516E6A12E13E0B12E09E65C
:1014D00013E0D12CF12CF50180818F3FB9F0FF2072
:1014E00011F080E204DC8D2DA5DC8AE300DCF5013F
:1014F0008081A0DCF801329780819CDCF801319773
:10150000808198DCF801808195DCF394F4E0AF0EE3
:10151000B11CD3940C5F1F4F34E0D312DCCFF11019
:1015200003C08AEA91E001DC0DDC1BC144E0BE018E
:10153000695F7F4FC50183DC4F81493608F474C071
:101540007A855885698520E030E080E090E07C3045
:1015500009F051C0F901EA59FC4F708174131CC0A5
:10156000A181A51319C0A281A61316C02CE0238364
:101570009C01220F331F820F931FFC01EE0FFF1FF0
:10158000E85CFC4F11821082880F991FFC01E65C19
:10159000FC4F11821082CBC07F3FD9F4408351832E
:1015A00062832CE023839C01220F331F820F931F41
:1015B000FC01EE0FFF1FE85CFC4F11821082880FC8
:1015C000991FFC01E65CFC4F1182108210923503DA
:1015D000AEC001962C5F3F4F2031310509F0BACFE4
:1015E000C0C0A181A51771F001962C5F3F4F20313B
:1015F000310509F4B6C0F901EA59FC4FA081A413E2
:10160000F3CFEFCFA281A613EFCF7383FC01EE0FD0
:10161000FF1FE80FF91FEE0FFF1FE65CFC4F81E094
:1016200090E0918380839DC0E98180913603E81723
:10163000B8F190E0F0E09C01295F3F4F2E173F0783
:101640007CF13A812091640332132AC03C813F32FD
:1016500029F442E06CE0C8019CD383C02D813C3268
:10166000B1F42093510381E090E090935303809371
:1016700052038091760390917703E4E02E9F800DD2
:10168000911D112490937703809376036AC0E81B21
:10169000F90BEE0FF0E0EC5AFC4F3083218361C070
:1016A00080E090E06CDD6C01F50101900020E9F72D
:1016B0003197EA19FB09F695E795FF24F394FE0E9E
:1016C000C6018F0D911D855591408F3A91050CF003
:1016D00045C0F601F1925F0121E0822F880F815011
:1016E0002F15D8F441E0B501F801E80FF11DCF0145
:1016F0002C87A5DB2C85233058F020FD09C0F5018F
:1017000031978081843621F4F501808180933703FD
:101710002F5FFFEFAF1ABF0AE0CF33E0C31632E00E
:10172000D306F8F4F601E20FF11D10821AC022E090
:101730004CE064E0CE010796BDD28FE08A8722E0BC
:101740004CE064E0CE010796B5D282E08A8722E0C1
:101750004CE064E0CE010796ADD203C084EA91E08C
:10176000E4DA2C960FB6F894DEBF0FBECDBFDF9142
:10177000CF911F910F91FF90DF90CF90BF90AF90CE
:1017800008950F931F93CF93DF9390913503911199
:101790004EC093E0899FE0011124FE01EE0FFF1F70
:1017A000E85CFC4F94E0899FD0011124AA59BC4FFA
:1017B00012969C91977040E850E0491B51099AEFAE
:1017C000949F9001959F300D11243595279535955F
:1017D0002795318320838E01000F111F045C1C4F5D
:1017E000F801208131812F5F3F4F31832083CC0F5F
:1017F000DD1FC65CDC4F488159814115510529F434
:1018000024303105A1F4E1DC0FC04130510531F441
:10181000DCDC82E090E09983888309C04230510586
:1018200031F4D3DC19821882F80111821082DF9121
:10183000CF911F910F910895A6E0B0E0E2E2FCE0A5
:101840000C942D2D809164038A831B829091510307
:10185000992341F0933019F08DE790E010C087E7AD
:1018600091E00DC0877090E08A519F4F4DE7489FEF
:101870009001499F300D1124C9019595879590934A
:1018800053038093520384E5E82E83E0F82E10E0A2
:101890000CE2F70190819F3FB9F080913603810FF0
:1018A000898380915103882311F00C8303C09C83AA
:1018B000F70181818D8321E04CE065E0CE01019646
:1018C000F9D1CE010196B7DC1F5FF2E0EF0EF11CFB
:1018D0001830F9F680915103882341F0833019F4D0
:1018E0001092510303C08250809351032696E6E084
:1018F0000C94492D80910302882351F0BBDC89E2CE
:1019000080936503809103028150809303020895C0
:101910002BCC0895FF920F931F93CF93DF93FC017D
:10192000F0800181C281D38114818FE580936503AA
:101930001092030280913603811105C080916403E7
:10194000882309F4A9C0809104028F1104C08091FA
:101950000502801729F008DCF092040200930502CA
:10196000809150038F3F09F497C0C0930602D09333
:10197000070210930802CC23F1F081111CC0809162
:101980003603181761F0143651F08DEA8C0F82304F
:1019900010F0CD3739F48FEF809350037DC0C435FC
:1019A00009F47AC08D2F807F803609F075C0D0672A
:1019B000D093070257C025DC811105C080915003E8
:1019C000882309F469C080910A02811107C0E0915F
:1019D0005003F0E0EE54FE4FE49101C0E82FE335F0
:1019E00041F4C43531F4909150039E5F90935003BD
:1019F00004C0EC1711F0B8DB4FC0882369F0809168
:101A000054018E5F80935401FCDB81110EC08091E4
:101A100050038E5F8093500380915003E82FF0E0D5
:101A2000ED54FE4FC491CF3F59F48091060280934C
:101A30000A028436B9F4809137038093080212C0F9
:101A4000C093060297E79093070290913603909314
:101A500008028E5F8093500310920A028E3021F0AC
:101A6000CC23D1F01CDC18C084E092E088DBFC01C0
:101A7000892B81F0808190E023E032E0281B390B34
:101A8000E217F30730F4DF01A80FB91F4C9141931F
:101A9000F7CF108269DBE4CFCDB7DEB7E5E00C9479
:101AA0004A2DFA019081882369F0DB01A90FB11D4D
:101AB000E1E0F0E0022E01C0EE0F0A94EAF78C910B
:101AC000E82BEC93222319F08FEF820F0BC081E0FB
:101AD000890F8C3010F4FA018083FB01E80FF11DAF
:101AE000108287E090E00895CF93C82F5B9A8823F7
:101AF00019F090910C0202C090910E0220E1929F89
:101B0000C0011124E6D85B98CC2319F080910B0218
:101B100002C080910D0220E1829FC0011124D9D81A
:101B2000CF910895AAE0B0E0E8E9FDE00C94212D02
:101B30004C01D62E422E1E2DE42EF12C2091760340
:101B4000309177038C2D8A0DA7014E5F5F4F049F64
:101B5000800D1124082E000C990B2817390720F44A
:101B600080EC91E0E2D8A2C0281B390B30937703B8
:101B700020937603299A80917F02882341F0109266
:101B80007F0284E491E019D4BB24B39401C0B12C4A
:101B900080912F03811102C00E9434050E94B0047D
:101BA00040E1C49E900111243A83298340E1A49E20
:101BB000900111243C832B832D2D30E03E832D8317
:101BC00066246394712C512CC11002C0AA2041F0EC
:101BD0005B9A89819A817DD85B988B819C8179D829
:101BE000312C832D032C000C990B4D815E818417C1
:101BF000950724F480E078DF3394F3CFDD2011F0F3
:101C000081E072DF90E0292F092E000C330B2E1596
:101C10003F05F4F447E0242E312CA901480D591D4D
:101C2000598748879301022C01C0220F0A94EAF7D2
:101C3000E885F985808182239F8356DFF1E02F1AA2
:101C400031089F812FEF2216320661F79F5FDBCFAD
:101C500087E0382E280D391D832D032C000C990B9D
:101C60004816590684F4C301032C01C0880F0A9456
:101C7000EAF7F901908189232F833A8735DF3A9477
:101C80003A852F81E9CF812F29D8015009F09CCFC7
:101C900080917903882319F00E94C20403C086E36F
:101CA0000E945104B1100E94E51B29982A96E2E196
:101CB0000C943D2DADE0B0E0E0E6FEE00C94262D66
:101CC0007C01162F842F022F6701C60ED11C462FD0
:101CD000B7018ED3F601808377247394710E1D862D
:101CE000198227E010E0CC24C394D12C97E0A92ED0
:101CF000B12C4701810E911C171560F5C6010A2C05
:101D000001C0880F0A94EAF7F4019081AE01435FA5
:101D10005F4FBE016F5F7F4F8923C3DE282FF1E045
:101D2000AF1AB10848F7F4019081092E92959025D9
:101D3000092E9695969590259F5F91FB882780F9AF
:101D4000AE01435F5F4FBE016F5F7F4FAADE282F5A
:101D50001F5FCCCF222311F0215004C08D858F5FEF
:101D60008D8727E089E180930D0280930E0285E242
:101D700080930B0280930C02A12CC12C8AE0E82EE8
:101D80004D856CE0CE010196CDDE2D96EDE00C94F4
:101D9000422DADE0B0E0EFECFEE00C94302D162FBC
:101DA000242F4BE0BE016F5F7F4F01962D8747D8F0
:101DB0002D85412F682FCE0101967CDF2D96E3E023
:101DC0000C944C2D43E066E0E4CF0895AF92CF929F
:101DD000EF920F93CF93DF93CDB7DEB760970FB637
:101DE000F894DEBF0FBECDBF40E1BE016F5F7F4FF5
:101DF000019625D869814A810B818C8180930E02DE
:101E00008D8180930D028E8180930C028F8180934F
:101E10000B02E02EE2948FE0E8220F70242F2F7047
:101E200042954F70A12CC12CCE0108967BDE6096A6
:101E30000FB6F894DEBF0FBECDBFDF91CF910F91EB
:101E4000EF90CF90AF900895A9E1B0E0EAE2FFE013
:101E50000C94272D4BE08E010F5F1F4FB8010196A8
:101E60000E941F07F82E89E0F81256C099E190935E
:101E70000D0290930E0290930C0282E380930B026A
:101E800069E0C801BFD2F801EF0DF11D8083198E02
:101E90001D86780127E088248394912CC12CD12CB5
:101EA000BE2CB01AF9E0FB1528F1C4010C2C01C0BE
:101EB000880F0A94EAF7F7019081AE01475E5F4F01
:101EC000BE01635F7F4F8923ECDD282FFFEFCF1A20
:101ED000DF0A88E0C816D10429F7AE01475E5F4FDC
:101EE000BE01635F7F4F81E0DCDD282FEFEFEE1A4C
:101EF000FE0AD4CF222311F0215004C0898D8F5FB8
:101F0000898F27E0A12CC12C8AE0E82E03E0498DBF
:101F10006CE0CE010D9606DE6996ECE00C94432D44
:101F2000A9E1B0E0E6E9FFE00C94272D4BE09E012B
:101F30002F5F3F4F6901B90101960E941F07182FBB
:101F400085E380930E0296E190930D0290930C022C
:101F500080930B02612FC60161D2F601E10FF11DE2
:101F60008083FF24F394F10E198E1D86560127E01D
:101F700088248394912C8A2D8C198F1508F044C0E5
:101F800000E010E0C401002E01C0880F0A94EAF7B7
:101F9000F5019081AE01475E5F4FBE01635F7F4FE9
:101FA00089237FDD282F0F5F1F4F0430110551F764
:101FB000AE01475E5F4FBE01635F7F4F81E071DD21
:101FC000282FC401002E01C0880F0A94EAF7F501FA
:101FD0009081AE01475E5F4FBE01635F7F4F8923F3
:101FE00060DD282F0F5F1F4F0830110551F7AE013C
:101FF000475E5F4FBE01635F7F4F81E052DD282F58
:10200000FFEFAF1ABF0AB7CFA12CC12C8AE0E82E90
:1020100003E0498D6AE0CE010D9684DD6996ECE01F
:102020000C94432DAF92CF92EF920F93CF93DF9307
:1020300000D000D0CDB7DEB743E0BE016F5F7F4F69
:1020400001960E941F078AE680930E0294E2909305
:102050000D0291E290930C0280930B0280E88C8336
:10206000A12CC12C8FE0E82E03E026E043E060E0E5
:10207000CE01019657DD0F900F900F900F90DF91DA
:10208000CF910F91EF90CF90AF900895AF92CF92F4
:10209000EF920F93CF93DF93CDB7DEB72C970FB6A8
:1020A000F894DEBF0FBECDBF4BE0BE016F5F7F4F28
:1020B00002960E941F078530C1F48EE380930E02C2
:1020C0008CE180930D0281E280930C028AE380937D
:1020D0000B0285E2A82E9AEFC92EE12C05E024E040
:1020E00044E068E0CE0101961DDD2C960FB6F89411
:1020F000DEBF0FBECDBFDF91CF910F91EF90CF909C
:10210000AF900895A0E0B0E0E8E8F0E10C94272D4E
:10211000DC0110922C02109241021196DC90119772
:10212000DD0CDD0CDD0C13968C911397D81A8D2DD8
:1021300097E0B92EBD0C10922D0290E040E028E00F
:10214000D22ED80E71E087E057E0C12C37E0E32EA5
:10215000F12C01E010E07D1509F478C0FD01EC0DD3
:10216000F11D248130E0052E02C0359527950A9493
:10217000E2F721703327552311F0515002C0C39468
:1021800057E06B3479F4833009F079C0411108C00D
:10219000232B09F058C010922C02909341026DC07D
:1021A00040E070C08F3F39F56634B1F4E92FF0E0BC
:1021B000E35DFD4FE0810E2EE295E0250E2EE695C3
:1021C000E695E025EF5FE695E170CE2F812CD82DC6
:1021D000C217D30741F004C0653429F4232B19F446
:1021E00040932C02DACF9F5FE92FF0E0E35DFD4FD3
:1021F000108287E029C0232B21F1663469F4E92F8E
:10220000F0E0E35DFD4FA0809801082E01C0220F91
:102210000A94EAF72A2914C0653499F4E92FF0E00A
:10222000E35DFD4F9701281B310987FD3395480178
:1022300002C0880C991C2A95E2F794013081232B67
:102240002083815001C041E07F5F85CF40932C0205
:1022500090934102B71688F4653431F48F3F21F42E
:102260009F5F9093410204C080912C028111F8CFAE
:1022700081E090914102911108C080E006C08F3F3B
:1022800009F4ACCF232B51F6DCCFCDB7DEB7ECE0B1
:102290000C94432D10926F00E09144028CE1E89F72
:1022A000F0011124EB5BFD4F1082809178038D7F4C
:1022B000809378030895CF93DF93DC01362F273086
:1022C00011F4E5E101C0ECE011962C911197C22FB9
:1022D000D0E050E0BE01641B750B9C91F0E06E17DE
:1022E0007F0714F5AA27BB27AE1BBF0BA617B7079E
:1022F000DCF4892F90E0632F70E09C01261B370BE4
:102300002E173F078CF4A217B30774F49E01280F11
:10231000391F640F751F261B370B2E173F0724F438
:1023200081E0A217B3070CF080E0DF91CF91089510
:10233000FC018181843110F0ADCF08959381662333
:1023400081F0DF01A80FB11D21E030E0092E01C0AE
:10235000220F0A94EAF714963C911497232B1496B3
:102360002C93992319F091509383089597E09383C8
:102370008F5F8183E80FF11D14820895539A5B9853
:102380005298E9E6F0E080818160808382EC91E000
:1023900090937703809376031092610210922F033B
:1023A000089580917903882329F00E9434050C94C4
:1023B000C20408950C942B050895FC01218121117C
:1023C0000FC0809179030E941A0740E265E0809176
:1023D0007603909177030E94A7060C94A2060895B5
:1023E00041E069E773E001960E941F07DACF089584
:1023F000442339F04150FB01E40FF11D9081890F16
:10240000F7CF08959C0180E0662339F06150F9010F
:10241000E60FF11D90818927F7CF0895FC01709197
:102420002C0240E095E020E0662399F06150DF0146
:10243000A60FB11D3C91532F52955F702527950F24
:10244000772311F0442319F03F702327930F4F5F38
:10245000EBCF920F30E1939FC0011124822B08959E
:10246000FC0182819381A081B181A80FB11D2C91C3
:1024700030E0092E02C0359527950A94E2F72170C5
:1024800033274FEF490F4383911104C08F5F82833D
:1024900087E08383822F0895A1E0B0E0E2E5F2E1D6
:1024A0000C94272D6C01062F10E0812C912CF12C1F
:1024B000EE24E394580181E0A81AB1088016910631
:1024C000E1F0C6014983CCDF4981882391F04423A0
:1024D00049F0C501881999099E2D01C0990F8A9567
:1024E000EAF706C09E2D082C01C0990F0A94EAF75E
:1024F000F92A8FEF881A980AE1CF8F2D2196ECE008
:102500000C94432DA4E0B0E0E8E8F2E10C94282D0F
:102510001B8227E02C839C012C5F3F4F3A83298349
:1025200010924102FC012181338187E090E0831BFE
:102530009109F8E02F9F800D911D1124853491059C
:102540000CF450C0912C00914102063070F5E02E41
:10255000F12C40E068E0CE0101969EDF9701A901D1
:10256000435D5D4F7A01FA018083182F012E129589
:102570001025012E169516951025CE01019670DFB7
:102580001F5F11FBAA24A0F8B12C90E0A816B90691
:1025900049F5CE01019664DF811124C0F7018081E5
:1025A00098260F5F00934102CECF40E068E0CE0155
:1025B000019672DF082F182F012E12951025012E7B
:1025C000169516951025CE0101964ADF1F5F11FB67
:1025D000CC24C0F8D12C282F30E0C216D30611F439
:1025E00081E0901280E02496EBE00C94442DA4E06E
:1025F000B0E0EDEFF2E10C942A2DFC011B8287E0A4
:102600008C83CF0104969A8389838081853009F079
:1026100052C02181338187E090E0831B910938E02B
:10262000239F800D911D11248039910509F043C02D
:10263000109241023FE0C32E30EFD32E19E8809173
:102640004102E82EF12CBB24B394B80E41E068E0BF
:102650008F3078F4CE0101961FDFC80ED11CF70130
:10266000E35DFD4F1827108314E2180FB09241026A
:10267000E6CFCE01019610DF8601080F111DB09242
:102680004102F701E35DFD4F8095808341E068E002
:10269000CE01019601DF90E0982F8827081B190BC7
:1026A00041E068E0CE010196F7DE282F30E081E0BE
:1026B0000217130709F080E02496E9E00C94462DF8
:1026C000A4E0B0E0E6E6F3E10C942E2D1B8227E0B7
:1026D0002C839C012C5F3F4F3A832983FC0121818D
:1026E0002430A1F58381813089F5109241028091D7
:1026F0004102082F10E0FF24F394F80E41E08430EB
:1027000098F4811106C067E0CE010196C5DE8068AD
:1027100004C068E0CE010196BFDEF801E35DFD4F25
:102720008083F0924102E3CF67E0CE010196B4DEF0
:10273000F801E35DFD4F880F8083F0924102909194
:102740002D0292959F7081E09A3009F080E02496E6
:10275000E5E00C944A2DCF93DF93FC018081873014
:1027600021F481818330F9F405C08930E1F481815D
:102770008830C9F483818730B1F41092410291818D
:1027800080E0891760F4282F30E0D901A35DBD4FA8
:10279000EF01C20FD31F2C812C938F5FF2CF809358
:1027A000410281E001C080E0DF91CF910895CF9395
:1027B000DF93FC0181818330C1F483818730A9F4E8
:1027C0008081883091F490E0292F30E0D901A35D19
:1027D000BD4FEF01C20FD31F8C818C939F5F93304D
:1027E00099F79093410281E001C080E0DF91CF91A1
:1027F0000895FC0181818C30D9F480818630C1F448
:102800009381911115C040E0292F30E0DF01A20F24
:10281000B31F14968C91480FD901A35DBD4F8C93C3
:102820009F5F9B3089F79093410281E09785491320
:1028300080E00895FC01908180917803993611F031
:10284000933751F4982F9370913011F4826006C041
:1028500080FF07C08B7F03C080FD03C0846080932E
:1028600078030895A1E0B0E0E8E3F4E10C94272DAB
:10287000198280910F0290911002892BC9F18091E9
:10288000790387FF17C084E30E943804805880349E
:1028900058F0803C58F490E08055910923E09595DC
:1028A00087952A95E1F703C080E001C08FE08F593A
:1028B0000E9477068091790383FF16C082E70E9409
:1028C00077068091790384FF04C0809111020E94F1
:1028D000770686E60E9477068091790384FF04C01C
:1028E00080910F020E9477061092100210920F0240
:1028F00080914202882309F478C2299A0091430208
:102900002CE1029F800111240B5B1D4FD8018C919B
:10291000873011F0893049F48981811106C0C801DE
:102920001ADF882311F089E689838981811106C025
:10293000C8013DDF882311F083E7898389818111F4
:1029400006C0C80156DF882311F082E78983F801A9
:1029500080818650833008F4E1C08981811106C0EE
:10296000C80145DE882311F083E5898389818111BF
:1029700039C066E4C801C6DB8823A1F1F0904102AA
:10298000FA94F09241024F2D6DE272E086E030DD64
:10299000EF2DF0E0E35DFD4FE0808E1105C023E0F8
:1029A0002F1510F486E41BC0282F30E02F5F3F4F17
:1029B0004E2D50E02417350739F493E09F1520F48D
:1029C00096E4998380830EC04F2D6DE272E08CE017
:1029D0000FDD8E1106C0A3E0AF1518F484E58983DE
:1029E00001C019828981811116C065E4C8018ADBA2
:1029F000882389F08091410281508093410289307F
:102A000051F469E08DE292E0FDDC90913602891389
:102A100002C085E489838981811106C0C80172DD05
:102A2000882311F088E489838981811106C0C80157
:102A300047DE882311F084E78983898181113AC0B8
:102A4000F8012081438D60911102C8014A9633DC60
:102A5000682FC8016DDC6BE4C80154DB8823C1F02A
:102A6000E0914102FF24FA94FE0EF09241026F2D94
:102A70008DE292E0D3DCEF2DF0E090912C02E91B87
:102A8000F109E35DFD4F9081891302C08BE48983D6
:102A9000898181110FC0D80113968C9113978730CB
:102AA00021F08F5F13968C9305C0F801138281810A
:102AB00081508183F980F11031C0D80111968C9139
:102AC0001197843059F513968C911397843031F512
:102AD000EC902E2D4EE16CE3C8014896ECDB882388
:102AE000E9F02E2D4EE160911102C8014A96E3DB18
:102AF000682FC8011DDC8F2D90E0FC01E35DFD4FC8
:102B0000D801A80FB91F14968C918083F394B5E077
:102B1000FB12F1CFF092410282E58983698166233D
:102B200009F4CCC04091790340FFC8C0809178037C
:102B30008E7F8B7F80937803942F927041FD64C0C9
:102B400050912B027091410257133EC080E08517CF
:102B5000C0F4282F30E0E1E0E80FD901A95EBD4FB5
:102B6000235D3D4FFC91D9012C91F21741F08093E8
:102B70002B02209178032D7F2093780304C08E2FA1
:102B8000E6CF80932B0285131FC0C0903103D090F5
:102B90003203E0903303F09034038090130290905E
:102BA0001402A0901502B0901602C818D908EA08BD
:102BB000FB08B6E2CB16D104E104F10428F48091BD
:102BC0007803816080937803971760F4292F30E0B1
:102BD000F901E95EFD4FD901A35DBD4F8C91808362
:102BE0009F5FF2CF90932B0280913103909132033B
:102BF000A0913303B0913403809313029093140295
:102C0000A0931502B09316026435E9F446FD1BC08B
:102C1000809141028530B8F080912F028B3471F0A1
:102C2000893661F09DEA980F923040F08D578230DE
:102C300028F0809130028077803729F480917803E2
:102C4000816080937803B801CE010196F3DD809115
:102C5000780382FF33C089810E94770680912C021D
:102C6000882329F080914102815080934102F12C08
:102C7000E0914102FE1648F4EF2DF0E0E35DFD4FD8
:102C800080810E941A07F394F3CF80912C0288234D
:102C900051F0F0E0E35DFD4F80818F7040E361E033
:102CA00090E00E94DE068091790385FF05C084E3F1
:102CB0000E9438040E941A070E94A206809179039C
:102CC00082FF7AC080E70E947706F801808140E2A7
:102CD00062E090E00E94A706D80158968C9140E2ED
:102CE00065E0B0E18B9FC00111240E94A706F801A6
:102CF000818D40E265E0F0E18F9FC00111240E94C8
:102D0000A706D8015A968C9140E265E0B0E18B9F0E
:102D1000C00111240E94A706F801838D40E265E0FE
:102D2000F0E18F9FC00111240E94A706D8011296DE
:102D30008C9140E263E090E00E94A706F801818157
:102D400040E263E090E00E94A706D80113969C91B0
:102D500040E262E027E030E0F901E91BF109CF0130
:102D60000E94A70680E20E9477068091790385FF82
:102D700008C084E30E9438040E941A0780E20E947F
:102D80007706D80113968C911397873031F01196FE
:102D90008C9111978F5F11968C93F12CF8018181A2
:102DA000F81640F4F801EF0DF11D84810E941A0716
:102DB000F394F4CF0E94A206D8011C9280914202A3
:102DC000815080934202809143028F5F823019F0DC
:102DD0008093430202C0109243022998898184356E
:102DE00021F48DE292E00E948A0C2196ECE00C9492
:102DF000432D1F920F920FB60F9211242F933F93E2
:102E00004F935F936F937F938F939F93AF93BF93F2
:102E1000EF93FF9310926F0080918800909189004A
:102E200020E23EE43093890020938800909385004F
:102E3000809384008091790383FF03C08EE20E9417
:102E40007706809144029CE1899FF0011124EB5B9D
:102E5000FD4F9081933018F09181923010F41ADA7E
:102E600018C090914202913049F48091790382FF19
:102E7000F6CF87EC91E00E949506F1CF9F5F90938B
:102E800042028F5F823019F08093440202C0109298
:102E90004402FF91EF91BF91AF919F918F917F91EC
:102EA0006F915F914F913F912F910F900FBE0F90B7
:102EB0001F9018951F920F920FB60F921124CF9268
:102EC000DF92EF92FF920F931F932F933F934F93B5
:102ED0005F936F937F938F939F93AF93BF93EF9382
:102EE000FF93CF93DF931F92CDB7DEB780917A0324
:102EF000882321F082E080937A0376C200918400D7
:102F00001091850084E0169507958A95E1F79091D8
:102F100044028CE1989F90011124F901EB5BFD4F75
:102F20006F018081843049F40E32110508F45CC2CF
:102F30000F34110558F0AED957C2853039F4073136
:102F4000110508F451C208321105A8F74A990FC0BB
:102F50008450823038F461E0C601EAD910928500CD
:102F60001092840010931202009311023DC28091CE
:102F7000110290911202081B190B1093100200937A
:102F80000F021092850010928400F60140814730B4
:102F900019F0493009F040C020910F023091100221
:102FA000F6012C3B310510F012821EC28281811184
:102FB00033C02739310538F089E0808310928500CD
:102FC0001092840011C2809111029091120251E07E
:102FD000F6015283493091F4B901615071098617A5
:102FE000970710F4808F06C0F601808F282F220FDC
:102FF000220F280F218FF601828F27C0BC01660F98
:10300000771F2617370710F41082EEC1F601808F64
:103010002F5F218F228F838F4830C1F4F601828188
:10302000811114C081E0828380911102808F828F90
:1030300080910F02909110028B3B910518F4818FC3
:10304000880F03C0F601818F8695838F44504230EC
:1030500008F469C122E026BB00911102109112020E
:10306000C801835392408B3B9105F8F480910F0285
:10307000909110020A974797C0F486E0F601808F7E
:103080009EE0918F33E1328F938F91E09283808322
:10309000118287E08383148280EA9FE09093890005
:1030A0008093880020936F009FC1F6013081311119
:1030B0004EC0C8014B970697C0F480910F029091C3
:1030C0001002845192404E9780F488EF91E19093E2
:1030D00089008093880082E080936F00F60112825D
:1030E00088E08083118287E01BC0C80109974C9754
:1030F000D0F480910F02909110028D599109893876
:103100009340A8F480EA9FE0909389008093880020
:1031100082E080936F00F601128287E08083118243
:103120008383148261C10536110508F05DC1809169
:103130000F02909110028536910508F055C1F601F5
:10314000008F818F81E0828382E080834DC13230A5
:1031500009F069C0F0900F0222E04F2D602FC601E8
:103160004896A9D8F60122818823F9F0808D90E055
:10317000AC01440F551F840F951F800F911D95952D
:10318000879595958795808F818D90E0AC01440F50
:10319000551F840F951F8F0D911D959587959595BA
:1031A0008795818F2F5F22831FC12430C8F180EA69
:1031B0009FE09093890080938800F60182818C3093
:1031C00050F0208D818D90E0820F911D8536910504
:1031D00024F084E015C08A3088F0F601208D818DBE
:1031E00090E0820F911D85974CF485E0808388EEF6
:1031F00093E0909389008093880003C083E0F601F8
:10320000808380911102F601828F80910F02838F5B
:10321000118287E08383148282E080936F00E4C090
:10322000F601108246CF363009F03FC00B30110551
:10323000F0F460E0C6017CD8F601808D90E09C013E
:10324000220F331F820F931F080F191F1595079523
:1032500015950795008F818D90E09C01220F331FFB
:10326000820F931F20910F02820F911DB4C061E065
:10327000C6015ED8F601828D90E09C01220F331FBB
:10328000820F931F800F911D959587959595879532
:10329000828F838D90E09C01220F331F820F931F3A
:1032A00020910F02820F911D69C0E0900F02F090F3
:1032B0001002383069F5C7018F5691094D9708F50E
:1032C00060E0C60135D8F601808D90E09C01220FA8
:1032D000331F820F931F800F911D959587959595AC
:1032E0008795808F818D90E09C01220F331F820F84
:1032F000931FE80EF91EF594E794F594E794E18E98
:1033000073C0C701875E9109879708F06DC01AC026
:10331000393069F4FF24FCE0EF1AF108112761E06D
:103320000E151F050CF060E0C60102D85DC0232F0A
:103330004E2D602FC6014A9639830E945B11398158
:10334000882311F161E0C6010E949811F601828D77
:1033500090E09C01220F331F820F931F800F911D5D
:103360009595879595958795828F838D90E09C01A3
:10337000220F331F820F931F8E0D911D95958795F8
:1033800095958795838F30C0232F4E2D602FC601D2
:10339000489639830E945B113981882311F160E0DE
:1033A000C6010E949811F601808D90E09C01220FC9
:1033B000331F820F931F800F911D959587959595CB
:1033C0008795808F818D90E09C01220F331F820FA3
:1033D000931F8E0D911D9595879595958795818F56
:1033E00003C0373009F0A7CD0F90DF91CF91FF9147
:1033F000EF91BF91AF919F918F917F916F915F916D
:103400004F913F912F911F910F91FF90EF90DF907F
:10341000CF900F900FBE0F901F901895CF93DF9312
:10342000E898229A2A9A8EE190E00E9469062A98EA
:103430008EE190E00E9469062A9A8DE290E00E9457
:10344000690680E30E94510484E690E00E946906C8
:10345000CEEED1E0FE0131966491FE0184910E948E
:103460003F042296F2E0C032DF07A1F780917E028E
:10347000811107C083E30E94510484E00E946E061C
:103480000FC0C8EDD1E0FE0131966491FE01849138
:103490000E943F042296F1E0CE3EDF07A1F7EACF7B
:1034A00084E30E94510485E30E9438048D30C1F703
:1034B000DF91CF910895A2E3B0E0E1E6FAE10C9448
:1034C0002F2D80917D02882309F4A1C04A9B8AC0D8
:1034D0008FE30E9438048F778983823368F08AE310
:1034E0000E94510486E30E9451048DE30E9451041E
:1034F00084E30E9451048BC02A988FEF0E94C70377
:1035000010E08981181760F480E00E94C703E2E0B0
:10351000F0E0EC0FFD1FE10FF11D80831F5FF1CF85
:1035200080E00E94C703082F80E00E94C7032A9A08
:1035300084E30E94510485E30E9438048D30C1F772
:103540009A8126E729272A8322E08981E22FF0E069
:10355000281768F441E050E04C0F5D1FE40FF51FA1
:1035600080819452982790832F5F982FEECF81E02F
:1035700090E08C0F9D1FE80FF91F80819B81982799
:1035800090838091790384FF12C081E60E947706C0
:1035900010E08981811730F1E1E0F0E0EC0FFD1FD0
:1035A000E10FF11D80810E9477061F5FF2CF81E459
:1035B0000E94770610E08981811758F0E1E0F0E081
:1035C000EC0FFD1FE10FF11D80810E941A071F5FA4
:1035D000F2CF8091790385FF03C0802F0E941A07E4
:1035E0000E94A20685E30E943804813029F08131CF
:1035F00061F48AE30E94510486E30E9451048DE342
:103600000E94510484E30E9451040E947B05E296CB
:10361000E4E00C944B2DAAE3B0E0E1E1FBE10C9473
:10362000272D41E38E010F5F1F4FB80101960E94C5
:103630001F077C019C01332721503109898190E0CB
:103640002817390709F0A3C080917D02811104C0B9
:10365000E5DE83E00E946E06DB809A8186E789279B
:103660008A8382E09981282F30E0F801E20FF31F6E
:10367000891750F4DE01A20FB31F9C919452208150
:10368000922790838F5FEECF80818D258083CE013E
:10369000C7960E94D90585E30E94510485E30E94E4
:1036A0003804833181F1CE01C3960E94D9054BA91C
:1036B0005CA96DA97EA98FA998ADA9ADBAAD8417F3
:1036C0009507A607B70760F44A015B01881A990AB3
:1036D000AA0ABB0A2DEB82169104A104B10470F46E
:1036E000481759076A077B0770F484549F4FAF4F00
:1036F000BF4F84179507A607B70728F48EEC91E013
:103700000E94950627C085E30E943804833119F68C
:10371000D4FE08C088E70E946E0688E70E946E0605
:1037200088E701C08AE00E946E062A988FE70E940F
:10373000C70368018C2D801B8E1530F4F601819132
:103740006F010E94C703F6CF2A9A85E30E943804CE
:103750008331D9F385E30E943804863149F48BE341
:103760000E94510486E30E9451048DE30E9451049B
:1037700080917D02882349F084E30E94510485E30F
:103780000E9438048D30C1F702C00E94D111EA9620
:10379000ECE00C94432DFC019181923731F092358D
:1037A00059F481E080937E0202C010927E0236DEE0
:1037B00081E080937D020895933721F4CF01019633
:1037C0002ACF089510927D020895CF93DF93E89851
:1037D000229A2A9A8EE190E00E9469062A988EE148
:1037E00090E00E9469062A9A8DE290E00E946906A4
:1037F00080E30E94510484E690E00E946906C9E3D8
:10380000D2E0FE018491813440F083E30E945104B0
:1038100084E00E946E06CFEF0DC0FE0131966491E8
:10382000FE0184910E943F042296F2E0C537DF0733
:1038300041F7EBCF84E30E9451048AE090E00E94BC
:103840006906C150B9F781E080937F02DF91CF9183
:1038500008954F925F926F927F928F929F92AF9254
:10386000BF92EF92FF920F931F93CF93DF937C0150
:10387000EB01FC0110811F5F209719F420E030E07C
:1038800002C024E630E0F8E01F9FC00111246AE086
:1038900070E00E940E2D620F731F4B01072E000C6B
:1038A000AA08BB0880917603909177032C01612CC4
:1038B000712C481459046A047B0428F489E292E0CC
:1038C0000E949506D3C0861B970B90937703809335
:1038D000760380917F02811101C077DF85E30E942A
:1038E00038048D3071F08AE50E94770685E40E94E5
:1038F000770682E50E94770682E50E94770681E3DB
:103900004BC08091800290918102A0918202B0917F
:103910008302892B8A2B8B2B49F50E94B00485E307
:103920000E943804833109F442C08AE50E94770678
:1039300085E40E94770682E50E94770682E50E9470
:10394000770682E329C040913103509132036091A0
:103950003303709134030196A11DB11D4817590717
:103960006A077B07D1F681E00E946E064091310321
:10397000509132036091330370913403809180023F
:1039800090918102A0918202B09183024817590759
:103990006A077B07C1F6E7CF0E94770685E30E949E
:1039A00038040E941A070E94A2060FDF5FC0CD2BC9
:1039B00041F42A988FE70E94C7030E2DC02FDF2DF8
:1039C00008C0CAE0D0E084E60E946E062197D9F7CD
:1039D000F0CF8C2F801B811720F489910E94C703A0
:1039E000F8CF2A9AC8EC85E30E9438048D30E9F4B8
:1039F00085E30E9438048D3019F18AE50E9477062C
:103A000085E40E94770682E50E94770682E50E949F
:103A1000770683E30E94770685E30E9438040E94BC
:103A20001A070E94A206D1DE0BC085E30E9438046B
:103A30008331F1F681E00E946E06C150A1F6D8CF25
:103A400080917F02811102C00E94D11180913103C7
:103A500090913203A0913303B0913403809380029C
:103A600090938102A0938202B0938302DF91CF9161
:103A70001F910F91FF90EF90BF90AF909F908F900C
:103A80007F906F905F904F900895ACE0B0E0EBE4D2
:103A9000FDE10C94302DFC018BE0898381818A83C8
:103AA0001B8282E08C8387818D8380858E838185D4
:103AB0008F83848188878581898786818A871B8611
:103AC0001C8684E10E946E0660E070E0CE010196E3
:103AD000C0DE8AE50E94770610E0812F90E0298100
:103AE00030E0281739075CF0E1E0F0E0EC0FFD1F53
:103AF000E80FF91F80810E941A071F5FEECF8091A7
:103B0000790385FF03C080E00E941A070E94A20685
:103B10002C96E3E00C944C2DCF93DF93EC01909125
:103B20008702911108C080918802811104C08091A0
:103B300089028823A9F08B81803319F08F7E80342D
:103B400079F48F8189130CC098858091880298132D
:103B500007C0998580918902981302C0CE0195DF34
:103B600080918402811108C090918502911104C056
:103B7000909186029923A9F098819B3091F49B81C2
:103B8000903479F49F8198130CC0988580918502B8
:103B9000981307C0998580918602981302C0CE01C0
:103BA00074DFDF91CF910895AEE1B0E0EAEDFDE181
:103BB0000C942F2D80917F02882309F469C04A9BC1
:103BC00059C08FE30E9438048F778E3108F08DE161
:103BD00089832A988FEF0E94C70310E08981181704
:103BE00060F480E00E94C703E2E0F0E0EC0FFD1F0C
:103BF000E10FF11D80831F5FF1CF80E00E94C703BA
:103C0000082F80E00E94C7032A9ACE01019684DF24
:103C10008091790384FF12C08AE70E94770610E042
:103C200089818117A8F1E1E0F0E0EC0FFD1FE10FC1
:103C3000F11D80810E9477061F5FF2CF8AE50E9406
:103C4000770610E08981811758F0E1E0F0E0EC0F91
:103C5000FD1FE10FF11D80810E941A071F5FF2CF47
:103C60008091790385FF03C0802F0E941A070E946C
:103C7000A2060EC085E30E943804813149F48AE32C
:103C80000E94510486E30E94510484E30E9451047F
:103C90006E96E4E00C944B2DAEE1B0E0E2E5FEE17F
:103CA0000C942F2D8C01FC018181823711F48DDD64
:103CB00036C0833711F0863601F54DE1BE016F5FE6
:103CC0007F4FC80102960E941F07992701972981FB
:103CD00030E08217930729F080E292E00E94950677
:103CE0001EC061E070E0F8018181833711F060E06F
:103CF00070E0CE010196ADDD12C0813621F443E0C3
:103D000067E872E005C0873741F443E064E872E099
:103D1000C80102960E941F0702C010927F026E9691
:103D2000E4E00C944B2DCF93DF93E898229A2A9AE3
:103D30008EE190E00E9469062A988EE190E00E9450
:103D400069062A9A8DE290E00E94690680E30E944B
:103D5000510484E690E00E946906C5E7D2E0FE01C6
:103D60008491813448F083E30E94510481E00E94F1
:103D70006E06DF91CF910895FE0131966491FE01A8
:103D800084910E943F042296F2E0C13BDF0739F79D
:103D9000EACFAEE1B0E0EFECFEE10C942F2D809184
:103DA0008A02882309F474C04A9B5FC08FE30E9493
:103DB00038048F778E3108F08DE189832A988FEF50
:103DC0000E94C70310E08981181760F480E00E9408
:103DD000C703E2E0F0E0EC0FFD1FE10FF11D80836F
:103DE0001F5FF1CF80E00E94C703082F2A9A8AE361
:103DF0000E94510486E30E9451048DE30E94510405
:103E000084E30E9451048091790384FF12C087E704
:103E10000E94770610E089818117D0F1E1E0F0E09F
:103E2000EC0FFD1FE10FF11D80810E9477061F5FDF
:103E3000F2CF87E50E94770610E08981811758F05C
:103E4000E1E0F0E0EC0FFD1FE10FF11D80810E9429
:103E50001A071F5FF2CF8091790385FF03C0802F7F
:103E60000E941A070E94A20613C085E30E9438042C
:103E7000813011F0813161F48AE30E94510486E3BC
:103E80000E9451048DE30E94510484E30E94510476
:103E90006E96E4E00C944B2DFC018181823729F46D
:103EA00042DF81E080938A020895833711F01092F7
:103EB0008A020895A2E0B0E0E0E6FFE10C94232D31
:103EC0007C01FC018181833709F09EC1198287E062
:103ED00090E00E94582D8C0141E0BE016F5F7F4F42
:103EE000C70102960E941F078981F801808341E083
:103EF000BE016F5F7F4FC70104960E941F07898133
:103F0000807FD82EF801818341E0BE016F5F7F4F33
:103F1000C70106960E941F078981F801828341E04C
:103F2000BE016F5F7F4FC70108960E941F078981FE
:103F3000F801838341E0BE016F5F7F4FC7010A969E
:103F40000E941F078981F801868341E0BE016F5FEF
:103F50007F4FC7010C960E941F078981F801858356
:103F600041E0BE016F5F7F4FC7010E960E941F07A1
:103F70008981F80184835801F7E0AF0EB11CF80184
:103F800080E09191292F22952F7092278927EA1599
:103F9000FB05B9F78F70D82AF801D18287E090E04D
:103FA0000E94582D6C0187E0F801D60101900D9216
:103FB0008A95E1F7D801119698012A5F3F4FF801E1
:103FC00081919C9189278D93E217F307C9F7299A6C
:103FD00080918D0281115EC080917D02882329F03D
:103FE00081E080938C0210927D0280917F02882371
:103FF00029F081E080938B0210927F02E898229A48
:104000002A9A8EE190E00E9469062A988EE190E05B
:104010000E9469062A9A8DE290E00E94690680E378
:104020000E94510484E690E00E9469062A9880E488
:104030000E94C70361EBE62E62E0F62E79E2972E2E
:104040009E0CF70184910E94C703FFEFEF1AFF0A4D
:104050009E10F7CF2A9A2A988EE70E94C7038BE218
:1040600090E07C012FEFE21AF20A0E946E070E9494
:10407000C703C70183339105A1F72A9A83E30E94FE
:10408000510481E00E946E0681E080932F0383E05B
:104090000E946E0686E30E9451048AE30E94510446
:1040A0008BE30E9451040E94B0045B9A87EC94E277
:1040B0000E9469065B9889E50E946E0685E392E09E
:1040C0000E946906F12C8091050190E02F2D0F2CA4
:1040D000000C330B281739070CF056C0FF2011F0E5
:1040E00027E001C022E0E12C5B9A86EF99E02A8369
:1040F0000E9469065B9886EF99E00E946906E39446
:104100002A81E212F1CF5B9A8CEF92E10E9469065C
:104110005B9880910101909102010E94690648011B
:10412000F40161904F0148E0E42E50E8452E512CF7
:10413000712CC20186219721892B49F45B9A8091C9
:104140000101909102010E9469065B9808C05B988A
:1041500080910101909102010E9469065B9A809111
:104160000101909102010E94690656944794EA94D5
:10417000E110DFCF8A149B0499F65B9880E090E011
:104180000E946906F3949FCF80918D02882341F0AD
:104190008091790381110EC086E30E94510417C0FB
:1041A00080918C02882349F010928C0237D981E0EB
:1041B00080937D020E94C2040AC080918B028823F2
:1041C00021F010928B0201DB02C00E94D1112998CC
:1041D00089E50E94770683E70E94770676015601FB
:1041E000F7E0AF0EB11CF70181917F010E941A0721
:1041F000EA14FB04C1F70E94A206C6010E94ED2D3D
:10420000C8010E94ED2D6DC08237A9F465E071E010
:10421000C70102960E944F0789E50E94770682E750
:104220000E9477068AE30E9477068091050140E2AA
:1042300060E090E02CC0843779F5F701828180330B
:1042400039F488ED94E0909304018093030106C053
:1042500063E071E0C70102960E944F07809103015D
:1042600090910401969587959093020180930101A6
:1042700089E50E94770684E70E9477068AE30E9418
:10428000770640E266E080910301909104010E946C
:10429000A7060E94A20625C0883719F580918C02D6
:1042A000882339F010928C02B9D881E080937D0286
:1042B00010C080918B02882321F010928B0285DA46
:1042C0000EC082E090E00E9455048091790388231B
:1042D00019F00E94C20403C086E30E9451041092A8
:1042E0008D022296E0E10C943F2DFF920F931F93D5
:1042F000CF93DF93EC01FC0101900020E9F73197A7
:104300008F01081B190B8981823751F487E390E0F4
:104310000E9455040E94C20481E080937A0325C064
:10432000833709F5F02E2A988FE70E94C7038EEF96
:10433000800F0E94C703229612E01F1528F489916E
:104340000E94C7031F5FF9CF2A9A0E94B0048AE334
:104350000E9438048F7721F081E00E946E06F7CF2B
:104360000E94C20402C010927A03CDB7DEB7E5E026
:104370000C944A2DA0E8B0E0E0ECF1E20C942B2D77
:1043800080917A03882309F454C0813011F580911B
:10439000310390913203A0913303B0913403209103
:1043A0008E02281709F445C085E30E943804813144
:1043B00029F48AE30E9451040E94C20480913103CF
:1043C00090913203A0913303B091340380938E0215
:1043D00030C08FE30E943804F82E87FD27C02A984A
:1043E0008FEF0E94C7038E010F5F1F4F6801E02E01
:1043F0008C2D801B8F1538F480E00E94C703F601D6
:1044000081936F01F5CF2A9A81E080934D01802F2F
:104410008E198F1530F4F80181918F010E94770673
:10442000F6CF0E94A2068FEF80934D0181E080932A
:104430007A03C058DF4FE8E00C94472D0E94C20475
:10444000E8980895CF93DF93229A2A9A8EE190E01C
:104450000E9469062A988EE190E00E9469062A9AD5
:104460008DE290E00E94690680E30E94510484E698
:1044700090E00E946906809124048933C1F4CEE360
:10448000D3E0FE0131966491FE0184910E943F04C5
:104490002296F3E0C037DF07A1F783E30E945104BF
:1044A00084E00E946E06CADFDF91CF9108958433C5
:1044B00079F4CCE0D3E0FE0131966491FE01849161
:1044C0000E943F042296F3E0CE33DF07A1F7E5CF49
:1044D000813319F7CAEDD2E0FE0131966491FE01F5
:1044E00084910E943F042296F3E0CC30DF07A1F7CD
:1044F000D4CFFC01908180912904981317C0918139
:1045000080912A04981312C0928180912B049813F1
:104510000DC0938180912C04981308C090858091E0
:104520002D04981729F081E09F3F19F080E008954D
:1045300081E008959C018FEF662339F06150F90105
:10454000E60FF11D90818927F7CF0895DC01FC016A
:104550008FE09DE170E09F012A1B3B0B2617370778
:1045600004F52191492F552742279A01329522952A
:104570002F7023273F70232724273527582F4427C0
:1045800042275327C901982F88279295907F842727
:10459000952745E0220F331F4A95E1F7822793279D
:1045A000DACF0895A0E0B0E0E8EDF2E20C942C2D13
:1045B0008C01D62E299A80912404893339F464E140
:1045C00082E10E943F046D2D660F6D5E86E00E94C1
:1045D0003F040E94B0042A988FE70E94C70380918D
:1045E0002404893321F0F02EC02FD12F4FC0CFE00B
:1045F00086E60E94C703C150D9F78AEA0E94C70322
:1046000085E50E94C703D02F78018E2D8D1B8D1557
:10461000B0F5F701C1917F01C7FD02C080E401C080
:1046200080E8C6FD02C090E101C090E2890FC5FD9F
:1046300002C094E001C098E0980FC4FD02C081E080
:1046400001C082E0890F0E94C703C3FD02C080E45D
:1046500001C080E8C2FD02C090E101C090E2890F74
:10466000C1FD02C094E001C098E0980FC0FD02C0F7
:1046700081E001C082E0890F0E94C703C6CF80E0BD
:104680000E94C70380E00E94C70309C08C2F8F19C6
:104690008D1528F4899180950E94C703F7CF2A9A37
:1046A00085E30E9438048331D9F36FEF86E00E94DE
:1046B0003F0480912404893321F46EE182E10E9459
:1046C0003F04BCDE2998F801858186FF2CC08091CB
:1046D000310390913203A0913303B09134030696D5
:1046E000A11DB11D8093250490932604A093270457
:1046F000B093280480918F028F5F80938F02823065
:1047000060F08AE70E94770682E70E947706809130
:104710008F020E941A070E94A20680918F028330A6
:1047200010F010928F02CDB7DEB7E7E00C94482D61
:10473000A8EAB0E0EEE9F3E20C94242D8091900217
:10474000882309F421C180918F028823D9F04091F8
:10475000310350913203609133037091340380919F
:10476000250490912604A0912704B0912804841771
:104770009507A607B70730F4609123048BE793E011
:1047800011DF02C14A9B00C1299A2A988FEF0E942B
:10479000C7038E010F5F1F4F7801B02EA12E902E00
:1047A00068E0D62ED00E80E00E94C703F701808318
:1047B00090912404993311F080958083FFEFEF1AD4
:1047C000FF0ADE10F0CF2A9AF88487EF8F0D803A27
:1047D00010F038DED9C06F2D86E00E943F04809132
:1047E0002404813339F0843349F058E9C52E53E06D
:1047F000D52E07C04AE5C42ED12C03C03CEDC32EF4
:10480000D12C90EA592E28E0E22E6F2C712CC60193
:104810000E9469068BE30E943804882E882329F1C0
:1048200090E08E0D911D681679069CF22A988FEF04
:104830000E94C7038E0CE81471F080E00E94C70349
:1048400090912404993309F08095F801EE0DF11D43
:104850008083E394F0CF2A9AEF1438F080912404F7
:10486000CF2CD12C813301F504C05A945110CFCFF5
:10487000F5CFEFEFFFEFEC0FFD1FEC0DFD1D2081DD
:1048800030E0322F2227FE01EC0DFD1D80816901F1
:10489000C80ED11C6EEF6F0DC80158DEEE24E394F4
:1048A0008C159D0561F40CC06FEF6F0DC80142DEE1
:1048B000FE01EC0DFD1DEE24E39490818913E12CA3
:1048C00080919002823701F5C80113DE81111CC06E
:1048D000E12C80919002823781F4EE2071F08E817C
:1048E000982F9370933029F490918F029111109228
:1048F0008F0286FF02C087FF18C06FEF86E00E941C
:104900003F049CDD299840C0EE20B9F38AE70E945D
:104910007706F80181918F010E941A07802F89196B
:104920008F15B8F30E94A206D4CF8AE00E946E06CB
:104930008D81898780912D048D8383E08E83809182
:104940002404813351F48BE0888769E08B2D9A2D04
:10495000FDDD9A878B876BE008C08AE0888769E075
:104960008B2D9A2DE7DD8A876AE08B2D9A2D1ADE32
:104970008AE70E94770681E60E94770689850E9471
:104980001A070E94A206BECFC855DF4FEFE00C9475
:10499000402DFC012181223711F02D3659F4FC0104
:1049A0008281811101C084E38093240420939002CA
:1049B00049CD0895233779F410928F0248EA6BE7C6
:1049C00073E002960E941F0780932304682F8BE7F1
:1049D00093E0E8CD0895293681F5FC012281222358
:1049E00039F045E069E274E002960C941F070895DF
:1049F000809190020E947706809124040E9477069D
:104A000080E20E947706809129040E941A07809113
:104A10002A040E941A0780912B040E941A07809191
:104A20002C040E941A0780E20E94770680912D04D0
:104A30000E941A070C94A2060895109290020895FD
:104A40001F93CF93DF93E898229A2A9A8EE190E001
:104A50000E9469062A988EE190E00E9469062A9ACF
:104A60008DE290E00E94690680E30E94510484E692
:104A700090E00E9469062A9880E40E94C703C0E77C
:104A8000D3E01C2F135FFE0184910E94C70321967F
:104A90001C13F9CF809106010E94C7038091070182
:104AA0000E94C703809108010E94C703C0E0D0E0C4
:104AB000FE01E058FC4F84910E94C7032196C93142
:104AC000D105B1F72A9A2A988EE70E94C7038BE294
:104AD00090E0EC0121960E946E070E94C703CE0170
:104AE000E397B9F72A9A83E30E94510481E00E9478
:104AF0006E0681E080932F03DF91CF911F9108957F
:104B0000A0E0B0E0E5E8F5E2A2C7EC0189818437D6
:104B100069F46DE071E0CE0102960E944F0740E219
:104B200060E080910D0190910E0112C0833709F071
:104B30009AC18A81823789F469E071E0CE010396D7
:104B40000E944F0740E260E08091090190910A01C4
:104B50000E94A7060E94A206FBC1299A8091930297
:104B6000811116C080917D02882329F081E0809315
:104B7000920210927D0280917F02882329F081E0C9
:104B80008093910210927F025BDF83E00E946E06A9
:104B900086E30E9451048AE30E9451048BE30E9441
:104BA00051040E94B004FE0101900020E9F7EC1BC3
:104BB000FEEFFF2EFE0E10E0AAE09A2E6E0132E00C
:104BC000C30ED11CB5E0EB2E88E2882E209109019E
:104BD00030910A01812F012E000C990B8217930747
:104BE00008F002C181E2F81214C05B9A80910D01B5
:104BF00090910E010E9469065B9880910B01909143
:104C00000C01FC019E9EC0019F9E900D11240E94EC
:104C10006906560101E00F150CF0BCC0F501819149
:104C20005F01803309F048C0F1E25B9AFF1220C0B7
:104C300080910B0190910C010E9469065B98809114
:104C40000B0190910C010E9469065B9A80910B0107
:104C500090910C010E9469065B9880910B019091E4
:104C60000C019C01E29EC001E39E900D11248EC0B8
:104C700080910D0190910E010E9469065B988091D0
:104C80000D0190910E019C01220F331F820F931F83
:104C90000E9469065B9A80910D0190910E010E941D
:104CA00069065B9880910D0190910E019C01220F85
:104CB000331F820F931F6AC0813339F531E25B9A4B
:104CC000F31212C080910B0190910C010E946906B1
:104CD0005B9880910B0190910C01FC01EE9EC0014C
:104CE000EF9E900D112420C080910D0190910E0136
:104CF0009C01220F331F820F931F0E9469065B984D
:104D000080910D0190910E012EC0F1E25B9AFF128D
:104D10001AC080910B0190910C010E9469065B986A
:104D200080910B0190910C010E9469065B9A809121
:104D30000B0190910C010E9469065B9880910B0118
:104D400090910C0123C080910D0190910E010E9461
:104D500069065B9880910D0190910E019C01220FD4
:104D6000331F820F931F0E9469065B9A80910D0189
:104D700090910E019C01220F331F820F931F0E94FE
:104D800069065B9880910D0190910E010E94690661
:104D90000F5F41CF21E25B9AF21214C080910B01A8
:104DA00090910C010E9469065B9880910B01909193
:104DB0000C01FC018E9EC0018F9E900D11240E945B
:104DC000690610C080910D0190910E010E94690644
:104DD0005B980FE180910D0190910E010E94690690
:104DE0000150C1F71F5FF2CE80919302882341F0FA
:104DF0008091790381110FC086E30E94510419C08C
:104E000080919202882351F0109292020E940E1A11
:104E100081E080937D020E94C2040BC080919102C8
:104E2000882329F0109291020E94E51B02C00E9483
:104E3000D111299889E60E94770683E70E947706B8
:104E400011E01F150CF086CEFE01E10FF11D17FDDC
:104E5000FA958181803319F0813309F086E40E944C
:104E600077061F5FEECF8237B9F480917D028823E9
:104E700029F081E08093920210927D0280917F025E
:104E8000882329F081E08093910210927F02D8DD7F
:104E900081E0809393025CC0863651F58A8180332D
:104EA00051F480E18093060180EB8093070181E754
:104EB0008093080107C043E066E071E0CE010296EE
:104EC0000E941F0789E60E94770686E60E94770601
:104ED0008AE30E947706809106010E941A0780915A
:104EE00007010E941A07809108010E941A0732CE1A
:104EF000883731F580919202882341F01092920216
:104F00000E940E1A81E080937D0211C0809191026F
:104F1000882329F0109291020E94E51B0EC082E0C6
:104F200090E00E94550480917903882319F00E9433
:104F3000C20403C086E30E9451041092930208C089
:104F4000833631F46DE071E0CE0101960E944F0787
:104F5000CDB7DEB7ECE097C51F93CF93DF93E8980A
:104F6000229A2A9A8EE190E00E9469062A988EE1A0
:104F700090E00E9469062A9A8DE290E00E946906FC
:104F800080E30E94510484E690E00E9469062A981A
:104F900080E40E94C703C2E6D6E01C2F175DFE0125
:104FA00084910E94C70321961C13F9CF2A9A2A984C
:104FB0008EE70E94C7038BE290E0EC0121960E94ED
:104FC0006E070E94C703CE01E397B9F72A9A83E3DD
:104FD0000E94510481E00E946E0681E080932F03BD
:104FE0008093A702DF91CF911F910895A0E0B0E0D8
:104FF000EBEFF7E22FC58C0180912E04F80183833B
:1050000064839DE0C92ED12C0E94B00485E30E94E8
:105010003804833169F085E596E00E94950685E3C2
:105020000E9438040E941A070E94A20695DF47C01A
:105030008091310390913203A0913303B0913403F6
:1050400080932F0490933004A0933104B0933204E2
:105050002A988FE70E94C7037801C0E0D0E08AEA6F
:10506000B82EF70180810E94C703C930D10544F4EE
:10507000F7018081B826C730D10511F4F801B08658
:105080002196FFEFEF1AFF0ACF30D10551F72A9A88
:10509000C8EC85E30E943804833159F081E0C81AD6
:1050A000D10809F0B1CF80912E048F5F80932E0438
:1050B00006C081E00E946E06C15059F7EFCFCDB710
:1050C000DEB7E9E0E3C44F925F926F927F92AF92B6
:1050D000BF92CF92DF92EF92FF920F931F93CF93E5
:1050E000DF93CDB7DEB7EB970FB6F894DEBF0FBEF8
:1050F000CDBF8C01FC0101900020E9F73197AF0191
:10510000481B590B7C0182E0E80EF11CBE01625D78
:105110007F4FC7010E941F07D82E67E471E080E12E
:1051200091E014D7F801B1808DE88B0D823008F042
:10513000D8C181E08093A50287858A3411F489E57E
:1051400001C08EE480930F01A895409031035090E8
:105150003203609033037090340380913103909157
:105160003203A0913303B091340380932F049093C2
:105170003004A0933104B093320480910F0189353B
:1051800009F050C089E496E00E94950682E396E01B
:105190000E949506C8010E948A068DE196E00E9451
:1051A0009506F80101900020E9F7319740E260E0B0
:1051B000CF01801B910B0E94A70685ED95E00E9410
:1051C0009506F80101900020E9F73197808140E2CF
:1051D00060E090E00E94A7068DE895E00E949506A9
:1051E00040E260E08D2D90E00E94A7068AE895E0FD
:1051F0000E94950683E795E00E94950640E364E0EF
:1052000080913104909132040E94DE0640E364E014
:1052100080912F04909130040E94DE0680E795E093
:105220000E949506F80101900020E9F7CF0141970F
:105230008017910709F03CC142E0BE01625D7F4FDB
:10524000C7010E941F07029709F032C185DEAEA494
:10525000B801665F7F4F45E050E0CE0101967DD6F4
:105260001E824AE050E060E070E0CE0101964DD52C
:105270006B017C0183E0F694E794D794C7948A95F8
:10528000D1F780910F018935F1F489E595E00E940D
:105290009506CE0101960E948A0682E595E00E945D
:1052A00095068BE395E00E94950640E364E0C70114
:1052B0000E94DE0640E364E0C6010E94DE0683E34E
:1052C00095E00E9495068FE0E5E3F1E0DE015F9650
:1052D00001900D928A95E1F78FA588A388A989A3EB
:1052E00089A98EA36A2DCE014F9680DEF3E7BF1603
:1052F00009F4EEC0A7FEECC040912F045091300499
:1053000060913104709132048091310390913203A5
:10531000A0913303B091340384199509A609B70904
:105320008E379105A105B10548F4409031035090A6
:1053300032036090330370903403A8958091310359
:1053400090913203A0913303B0913403841B950BE9
:10535000A60BB70BC816D906EA06FB06A8F64090BE
:105360003103509032036090330370903403809186
:105370000F01893509F073C08CE195E00E94950614
:1053800040E364E0C3010E94DE0640E364E0C20142
:105390000E94DE0684E195E00E9495068DEF94E080
:1053A0000E94950640E364E08091310490913204BC
:1053B0000E94DE0640E364E080912F049091300467
:1053C0000E94DE0685EF94E00E9495068EED94E043
:1053D0000E94950640E364E0C7010E94DE0640E3B8
:1053E00064E0C6010E94DE0686ED94E00E94950608
:1053F0008FEB94E00E9495068091310390913203E7
:10540000A0913303B091340340912F0450913004A4
:105410006091310470913204841B950BA60BB70B7D
:1054200040E364E0CD010E94DE068091310390915B
:105430003203A0913303B091340320912F043091B3
:105440003004821B930B40E364E00E94DE0687EB8E
:1054500094E00E9495068EEA94E00E94950667EF1C
:10546000CE014F96C3DD40912F04509130046091DE
:105470003104709132048091310390913203A091F4
:105480003303B0913403841B950BA60BB70B4597E0
:10549000A105B10580F380910F01893521F485EADA
:1054A00094E00E94950667EFCE014F969FDD10C0F5
:1054B00080E894E00E94950640E260E08EE090E093
:1054C0000E94A7068CE594E00E9495061092A70220
:1054D0008091A602813011F40E94C2041092A502AC
:1054E0004AC082E7B81241C0F8018281853451F484
:1054F0001092A60286E30E9451041092A4028BE44B
:1055000094E030C0833561F5F8018381813311F473
:1055100081E003C0823321F482E08093A40202C0C0
:105520001092A40281E08093A60216DD88E394E045
:105530000E9495060E94C20485E30E9438048D30C3
:10554000D1F08FE194E00E94950685E30E94380433
:105550000E941A070E94A206FFDC1092A6020BC04E
:105560008DEF93E00E94950606C086EE93E00E94C0
:1055700095061092A702EB960FB6F894DEBF0FBE09
:10558000CDBFDF91CF911F910F91FF90EF90DF90F2
:10559000CF90BF90AF907F906F905F904F900895A5
:1055A000AF92BF92CF92DF92FF920F931F93CF9350
:1055B000DF93CDB7DEB760970FB6F894DEBF0FBEAE
:1055C000CDBFCE0101966C0180E1F60111928A9562
:1055D000E9F78091A602813009F096C08091A5027A
:1055E000813009F491C04A9B8FC0A8958BE30E943B
:1055F0003804182F1F7719838091A402823059F440
:1056000086ED93E00E949506812F0E941A0784EC94
:1056100093E00E9495061F3010F08FE089832A984E
:105620008FEF0E94C70310E0F12C0AEA8981181756
:10563000E0F480E00E94C703E2E0F0E0EC0FFD1F21
:10564000E10FF11D8083183010F4082706C01830D0
:1056500021F4081711F0FF24F3949091A4029230E2
:1056600011F40E941A071F5FE1CF2A9A8091A402C9
:10567000823021F481EC93E00E9495064AE050E0EC
:1056800064E972E0C60155D42091A402892B61F02F
:105690008A81873049F48981893030F0F1E0FF1642
:1056A00019F0223019F430C0213071F58EEB93E0FF
:1056B0000E94950680E1F601A4E9B2E001900D9206
:1056C0008A95E1F76E0182E0C80ED11C5E019BE075
:1056D000A90EB11CF60181916F010E941A07CA142C
:1056E000DB04C1F78091A402813051F4F1E0FF1294
:1056F00007C08CE993E00E949506802F0E941A074C
:1057000089E993E00E94950660960FB6F894DEBF93
:105710000FBECDBFDF91CF911F910F91FF90DF9012
:10572000CF90BF90AF9008952091390530913A0500
:105730002115310521F42091300130913101809102
:105740002E0190912F01009741F48DB79EB74091A3
:10575000320150913301841B950B2817390718F437
:10576000821B930B089580E090E0089582E40E94EC
:10577000770640E265E08091390590913A050E94F4
:10578000A7060E94A20683E50E94770640E265E034
:1057900080913001909131010E94A7060E94A206DB
:1057A00085E40E94770640E265E080912E019091A9
:1057B0002F010E94A7060E94A20686E40E94770697
:1057C000B3DF40E265E00E94A7060C94A2060895AC
:1057D0001F920F920FB60F9211242F933F934F9366
:1057E0005F936F937F938F939F93AF93BF93EF9349
:1057F000FF9380913504882339F083E394E00E947D
:105800009A088093C60005C08091C1008F7D809367
:10581000C100FF91EF91BF91AF919F918F917F91C7
:105820006F915F914F913F912F910F900FBE0F900D
:105830001F9018951F920F920FB60F9211242F935D
:105840003F934F935F936F937F938F939F93AF9308
:10585000BF93EF93FF9395B182E0892785B960915B
:10586000C6008091C000887121F486EB94E00E940C
:105870008408FF91EF91BF91AF919F918F917F919C
:105880006F915F914F913F912F910F900FBE0F90AD
:105890001F90189597FF04C022E02093C0009F77C7
:1058A0009093C5008093C40088E98093C10086E08E
:1058B0008093C20008958091C10085FD09C0809148
:1058C0003504882329F08091C10080628093C10053
:1058D0000895E0912D03F0912E0381E00995EBCF1F
:1058E00008950F931F93CF93DF938C01D0E02D2F5A
:1058F00030E0F901EE0FFF1F2E0F3F1FF901E859AD
:10590000FF4FC49127593F4FF90145915491CC2342
:10591000A9F00115110539F480E20E9477068C2F59
:105920000E94770609C0F80180818C1305C0C80168
:10593000FA01099581E003C0DF5FD9CF80E0DF91F4
:10594000CF911F910F910895CF93C0914D018093F6
:105950004D018091B804882309F43DC086EB94E0A2
:105960000E949A082091A8023091A9028A3011F071
:105970008D3011F52115310561F3F901E655FD4F23
:1059800010828AEA92E0ADDF811111C083EA96E0CD
:105990000E9495068AEA92E00E948A068BE896E0C9
:1059A0000E94950680E090E09CDF0E94A206109283
:1059B000A9021092A802CDCF2038310550F6A901D6
:1059C0004F5F5F4F5093A9024093A802F901E6553B
:1059D000FD4F8083BECFC0934D01CF9108952D9A86
:1059E00084B18C6284B9249880E58CBD8DB58160CA
:1059F0008DBD0895AA1BBB1B51E107C0AA1FBB1F89
:105A0000A617B70710F0A61BB70B881F991F5A954A
:105A1000A9F780959095BC01CD01089597FB072EBD
:105A200016F4009406D077FD08D0E4DF07FC05D01B
:105A30003EF4909581959F4F0895709561957F4FA5
:105A400008952F923F924F925F926F927F928F9222
:105A50009F92AF92BF92CF92DF92EF92FF920F93FD
:105A60001F93CF93DF93CDB7DEB7CA1BDB0B0FB607
:105A7000F894DEBF0FBECDBF09942A8839884888C4
:105A80005F846E847D848C849B84AA84B984C8845A
:105A9000DF80EE80FD800C811B81AA81B981CE0F51
:105AA000D11D0FB6F894DEBF0FBECDBFED01089536
:105AB000CF93DF938230910510F482E090E0E09183
:105AC0003B05F0913C0520E030E0C0E0D0E03097AD
:105AD00011F14081518148175907C0F04817590703
