:1000000075C300000C94A3178DC300008BC30000C0
:1000100089C3000087C3000085C3000083C30000BC
:1000200081C300007FC300007DC300007BC30000CC
:1000300079C3000077C3000075C3000073C30000DC
:1000400071C300000C9442176DC300006BC3000025
:1000500069C300008DC5000065C3000063C30000D4
:1000600061C300000C94632C0C94312C5BC3000022
:1000700059C3000057C3000055C3000053C300001C
:1000800051C300004FC300004DC300004BC300002C
:1000900049C3000047C3000045C3000043C300003C
:1000A00041C300003FC300003DC3000041141C4297
:1000B000590843000545951F658008462B0F66BE0D
:1000C00021472F0F688F1069C9254BD90F6BAC28BA
:1000D0006C35084D6D0F6DFF2B52B6075347085412
:1000E000E909741806555B1056C10857F6075826DB
:1000F0001278C70459A31F5A951E7A1225000000D2
:10010000000000202F2000203D2000072E050DD3E9
:1001100091FF080500000C0021656A2D3B1322F8B1
:1001200062073F181D1CC700B0876BF8B611EA2A9A
:10013000001F41000D2E2D07D3913D043200000613
:100140000021656A55E43023B900070018146C07D4
:100150000090876BF85611E92A001F410000030F39
:100160001E2627000000030F1E2536386700030FE8
:10017000256740605000030F275188838100030FDB
:100180002750C8C3C200270000000000000067001D
:10019000000000000000500000000000000081008E
:1001A000000000000000C2000000000000504C4CA5
:1001B000310D0A00504C4C300D0A005620312E36BD
:1001C000372079756E43554C383638005620312E1D
:1001D00036372079756E43554C34333300202F2049
:1001E00000203D20004E2F4100454F420D0A004E99
:1001F0002F41004E2F410000535300547D7DFFFFDF
:100200004B4B7E7E004C4F56460D0A00424F5646E1
:100210000D0A004552523A4343410D0A000B0810A3
:100220005B11F81547191D1A1C1BC71C001DB221B4
:10023000B623EA0007022E030D04E905CA070C0BDA
:10024000060D210E650F6A10C8119312031534179D
:1002500033181819161B4321562500261129592C2D
:10026000812D353EC34C454E4552520D0A004C4F30
:1002700056460D0A004C454E4552520D0A000007E5
:10028000024604C605260B0610C81193120313225A
:100290001534173F182819161B432156250026111F
:1002A0000D210E650F6A070C160720F81E871F6BBD
:1002B00029592C812D353EC3FF0000070246030D4E
:1002C000049A057D0642070C0B060D210E650F6A88
:1002D00010C81193120315341700181819161B4370
:1002E0001C6825002611FF0000000000000000002F
:1002F0000000000000000D2E2D07D3913D043200B8
:1003000000060010ABA5550A3023B90007001814E9
:100310006C070090876BF85611E92A001F41000016
:1003200001022E030104AA050F06FF070008000BB7
:10033000060D210E740FAD104B11F8121613721525
:1003400041181819161B0323E9242A2500261F3EED
:10035000500001022E030104AA050F06FF07000842
:10036000000B060D210E660F6610CA1193120613BC
:10037000521535181819161B0323E9242A250026BF
:100380001F3E500001022E0301045505F006FF0731
:100390000008000B060D210E660F991059118312EB
:1003A0001E13521535181819161B0323E9242A2584
:1003B00000261F3E500D2E2D07D3913D0432000024
:1003C000060010B07155E43023B900070018146C12
:1003D000070090876BF85611E92A001F41000D0AAB
:1003E0000020436865636B73756D204572726F7290
:1003F0002C2043616C63756C6174656420436B737E
:100400003A20006B72000D0A002020526563656976
:1004100076656420446174613A20004279746573A2
:1004200020696E204669666F3A20004B6F7070201D
:10043000436F6D6D616E6420556E6B6E6F776E0DE0
:100440000A004B6F707020526563656976652053B2
:100450007562436F6D6D616E6420556E6B6E6F7764
:100460006E0D0A0052585F494E49545F4552525F23
:100470004D41524353544154455F5258006B72539F
:100480002D5265636569766553746172740D0A0057
:100490006B72452D52656365697665456E640D0A1C
:1004A00000204279746573206F72204B6579636F09
:1004B0006465206973206E6F206865782076616CB2
:1004C00075650D0A004B6F7070205472616E736D0C
:1004D00069747420436F6D6D616E64206E6F74205B
:1004E000657175616C20746F2000426C6F636B33B3
:1004F0000D0A00426C6F636B320D0A005B68657811
:100500005D0D0A007469636B732D426C6F636B53EE
:100510007461727454696D653A20005B6865785D3A
:100520000D0A004B65794F666654696D653A202067
:10053000202020202020202020005B6865785D0D91
:100540000A00426C6F636B205374617274205469AB
:100550006D653A2020202020005B6865785D0D0ADB
:10056000005469636B2054696D65723A2020202025
:1005700020202020202020005B6865785D0D0A0087
:100580004B65794F666654696D6520696E207469A4
:10059000636B733A2020006D7365630D0A004B6531
:1005A000794F666654696D653A202020202020200E
:1005B00020202020000D0A005469636B2054696DCF
:1005C00065723A2020202020202020202020000DAD
:1005D0000A000D0A416D6F756E74206F66204279B6
:1005E00074657320284865782920666F756E6420CD
:1005F000696E7369646520636F6D6D616E64206CF4
:10060000696E6520706172616D657465723A202053
:10061000202020202020202020000D0A4E65787404
:10062000204368617261637465722028696E742961
:1006300020616674657220706172616D65746572A7
:10064000202873686F756C64206265206C696E6524
:1006500020656E6420636861726163746572293A13
:1006600020000D0A537472696E676C656E6774685A
:100670003A202020202000636F6D6D616E646C69EC
:100680006E65706172616D657465723A20005472B6
:10069000616E736D6974740D0A0054585F494E4958
:1006A000545F4552525F00012E4604AA540FE000E9
:1006B0000000060021656A97831663B947070C2975
:1006C000366C074091876BF85611E92A001F4100EC
:1006D00020697320756E6B6E6F776E292055736578
:1006E000206F6E65206F66003F20280011241FBE1A
:1006F000CFEFDAE0DEBFCDBF11E0A0E0B1E0ECEE7D
:10070000F0E602C005900D92AA34B107D9F725E0B2
:10071000AAE4B1E001C01D92A034B207E1F703D012
:100720000C9474306DCC259A249AC8E5D2E02C9AAA
:1007300084E602D32C9884E6FFD22197C1F70FB646
:10074000F894A89580916000886180936000109271
:1007500060000FBEC1E080E80FB6F894809361009E
:10076000C09361000FBE249A2C9A0E943F2DF1D4B1
:1007700089EF87BD84E085BD82E084BD80936E00F3
:10078000109280008AE08093810084B7877F84BFC5
:100790009FE088E10FB6F894A895809360000FBEA3
:1007A000909360008CE090E00E94932CCDD50E9445
:1007B000071284EF9CE290932F0380932E03C09343
:1007C0004D012C9878940E94B92C0E947B1446D23B
:1007D0000E9403220E94A41A0E941D1E0E94121F42
:1007E0000E94192B0E94E123EECF8EBD0DB407FEAF
:1007F000FDCF8EB50895EF92FF920F931F93CF9385
:10080000C82F8A3008F0C8E028E0C29F8001112478
:100810008BE290E00B521109FC01E00FF11FE35A4B
:10082000FE4F64917C012FEFE21AF20A80D3C701D8
:100830008333910589F7C550C53010F067E101C0D9
:1008400061E184E290E073D3CF911F910F91FF900B
:10085000EF900895CF93DF9382E090E0FC01EE5C8F
:10086000FE4F6491EC01219662D3CE01AB97B1F7B4
:1008700087E390E0FC01EC52FF4F6491EC0121967C
:1008800056D3CE01C036D105A9F78091340180FD41
:1008900018C060E18FE090E04AD360EB80E190E027
:1008A00046D361E781E190E042D360E184E490E0E7
:1008B0003ED360EB85E490E03AD361E786E490E0D4
:1008C00036D388E098DFDF91CF9108952E98806C21
:1008D0008CDF80E08ADF2E9A0895A1E0B0E0E3E7A4
:1008E000F4E00C94862D2E98806469837EDF698104
:1008F000862F7BDF2E9A2196E2E00C94A22D2E9873
:1009000074DF2E9A0895EF92FF920F931F93CF9367
:10091000DF93EC0110928002E898269A2E9A8EE1DD
:1009200090E005D22E988EE190E001D22E9A8DE2D1
:1009300090E0FDD180E3E3DF84E690E0F8D12E98EB
:1009400080E453DF8E01075D1F4F7E018FEFE81AB1
:10095000F80ACE01F1D249DFE701E016F106A9F766
:100960002E9A2E988EE741DF8BE290E0EC012196E3
:10097000E3D23BDFCE01E397C9F72E9A83E3BFDFD3
:1009800081E0DAD1CDB7DEB7E6E00C949E2DA1E090
:10099000B0E0EDECF4E00C94862D22E0298341E0F8
:1009A000BE016F5F7F4F019678D2898124DF82E09C
:1009B00090E0A9DF2196E2E00C94A22DCF93E89875
:1009C00086E39DDFCFEF85E39ADFC15080778032E9
:1009D00029F08AE090E0ABD1C111F5CFCF91089515
:1009E000CF93CFEF84E38BDFC1508077803129F044
:1009F0008AE090E09CD1C111F5CFE89ACF9108959B
:100A0000A2E0B0E0E6E0F5E00C94842D8C01FC015E
:100A100081818737E9F441E0BE016F5F7F4FC801F4
:100A200002963BD2892BA1F041E0BE016E5F7F4F61
:100A3000C801049632D2892B59F06A8189814DDF31
:100A400083E35DDFCDDF898123D28A8121D22CC06F
:100A500041E0BE016E5F7F4FC80101961ED2892B17
:100A600021F18A81893969F410E0812F2FDF10D2BA
:100A7000812F8770873009F493D11F5F1033A9F756
:100A800014C024DF182F83E460D18A8101D287E06B
:100A900091E079D1812FFCD183E091E074D140E2E3
:100AA00062E0812F90E081D17BD12296E4E00C942A
:100AB000A02D86E324DF1092300310927E02109264
:100AC0008002089582E090E01EDF81E08093300391
:100AD00010927E021092800208950F931F93CF937D
:100AE000DF93D82FC0E0062F10E085E3EFDE8D17EF
:100AF00031F0C8011CD1C150C1F781E001C080E0D4
:100B0000DF91CF911F910F91089585E2DFDE8F3342
:100B100011F080E0089586E3F2DE80914A018111B0
:100B200004C084EB91E02FD102C08DE3E8DE83E3C3
:100B3000E6DE64E081E0D1DF85E2C8DE8F3349F78D
:100B400080914A01811103C08DEA91E01CD181E0BE
:100B5000089585E3BBDE8D3051F485E2B7DE8F3337
:100B600031F4D3DF84E3CBDE80778031D9F7089589
:100B70001F920F920FB60F9211248F939F93AF93F2
:100B8000BF93EF93FF938091320390913303A09131
:100B90003403B09135030196A11DB11D809332033A
:100BA00090933303A0933403B093350380913103C2
:100BB0008F5F80933103E9E3F3E080819181181620
:100BC00019061CF4019791838083369683E0E13502
:100BD000F80799F78091530390915403009729F0F7
:100BE00001979093540380935303809166038F3F42
:100BF00019F0815080936603FF91EF91BF91AF91FF
:100C00009F918F910F900FBE0F901F901895FC0130
:100C10009FB7F894409132035091330360913403AD
:100C20007091350340835183628373839FBF08951E
:100C3000A4E0B0E0EEE1F6E00C94862DCE01019642
:100C4000E6DF8C8125D18B8123D18A8121D18981D5
:100C50001FD1A6D02496E2E00C94A22D0F931F93EF
:100C6000CF938091320390913303A0913403B091DC
:100C7000350320914C01281709F455C080913203A7
:100C800090913303A0913403B091350380934C01CC
:100C9000A89509E313E0C0E0F80180819181892BD8
:100CA00011F48C2FB7D5CF5F0A5F1F4FC430A1F767
:100CB0008091530390915403892B09F406D68091B7
:100CC0006603811101C05FD6809131038D3758F1E1
:100CD000109231038091000181FF04C095B180E141
:100CE000892785B980917703909178038031FEE060
:100CF0009F0728F40196909378038093770380915F
:100D00004B018F5F8C3319F080934B010CC0109214
:100D10004B01809138038F5F8C3318F48093380334
:100D200002C010923803CF911F910F910895880F40
:100D3000991F0197F1F7089520ED37E0815020F0D9
:100D4000F9013197F1F7FACF089590914D0190FF95
:100D50000EC0909136049E3730F097FD08C08D305C
:100D600011F08A3021F4682F84E394E016C20895CC
:100D7000CF93DF93EC018991882311F0E6DFFBCF5D
:100D8000DF91CF910895CF93DF93EC01FE01849121
:100D9000882319F0DADF2196F9CFDF91CF910895FA
:100DA0008DE0D3DF8AE0D1CF0895A6E0B0E0EBED8F
:100DB000F6E00C94842D362F1E8225E0EAE0F0E068
:100DC000215001E010E00C0F1D1F020F111DBF018B
:100DD0000E944F2D805DD8018C93CB01315000973C
:100DE00069F02111EDCF0AC0222359F02150E1E032
:100DF000F0E0EC0FFD1FE20FF11D4083315037FF93
:100E0000F3CF81E090E08C0F9D1F820F911DB0DF2A
:100E10002696E4E00C94A02DA5E0B0E0E2E1F7E036
:100E20000C94842DFC011D8294E02E2F2F70915084
:100E3000A92FB0E02A3010F4205D01C0295C01E048
:100E400010E00C0F1D1FA00FB11F2C9384E0F6952E
:100E5000E7958A95E1F76150309739F7615067FD62
:100E60000BC0992349F09150E1E0F0E0EC0FFD1F39
:100E7000E90FF11D4083F2CF21E030E02C0F3D1F40
:100E8000290F311DC90174DF2596E4E00C94A02DD3
:100E900040E362E090E0C0CF0895DC01FB0130E068
:100EA00020E09D919923B1F0913608F0905280EDA9
:100EB000890F8A3010F4982F05C08FEB890F863088
:100EC00028F49753922B332389F006C0903249F3CC
:100ED0009A3339F3CF0107C09F012F5F3F4F9083B3
:100EE000415049F4C901861B970B0895292F22957B
:100EF000207F31E0D6CFF901D2CFFC0120E030E0F5
:100F00008AE09191992379F040ED490F4A30C8F772
:100F1000829FA001839F500D11249A012053310913
:100F2000290F311DEECFFB013183208308950E94EC
:100F30001C30F999FECF08950C94143008950F9346
:100F40001F93CF93CFEFC60FCF3F61F08C010F5FA0
:100F50001F4FF2DF9DDFCC2311F08AE3F6DEC15094
:100F6000C801F2CFCF911F910F910895A2E0B0E098
:100F7000ECEBF7E00C94832DFC0121812D3421F45E
:100F800066E08AEF93E005C0203529F460E18AED40
:100F900093E0D5DF26C01A82198242E0BE016F5F5E
:100FA0007F4F01967ADF098110E0823021F4102F03
:100FB00000278A81082BC801BFDFF82E82E5C5DE35
:100FC00040E364E0C80128DF81EE91E0DCDE8F2D94
:100FD0005FDF8DED91E0D7DE40E262E08F2D90E0A3
:100FE000E4DEDEDE2296E5E00C949F2DA6E0B0E084
:100FF000ECEFF7E00C94802D8C0143E0BE016F5FB5
:101000007F4F01964ADF7C01823058F1C980D12C94
:10101000823021F0DC2CCC248A81C82AFF24FE01F6
:10102000EE0DFF1D6081C60182DFEE0CFF1C8FEF0D
:10103000E81AF80A0E0D1F1DF8018081882389F037
:1010400041E0BE016F5F7F4FC80127DF892B49F068
:10105000EFEFCE1ADE0A6981C60169DF0E5F1F4F0E
:10106000EBCF2696E8E00C949C2D41E060E071E027
:10107000019613DF8091000180FF02C02C9A01C00D
:101080002C986091000184E390E051CF089541E0F5
:101090006FE471E0019601DF80914F0180FF02C093
:1010A0002D9A01C02D9860914F0182E690E03FCFCC
:1010B0000895A1E0B0E0EFE5F8E00C94862D1982E8
:1010C000009731F041E0BE016F5F7F4F0196E5DE92
:1010D00089818F3F09F4FFCF882321F061E083E30A
:1010E00090E025DF10926E00F89498E088E10FB64A
:1010F000F894A895809360000FBE90936000FFCF96
:10110000CF93DF93EC0161E080E090E010DF63E4D7
:1011100081E090E00CDF9EDB60E080E690E007DF9E
:1011200060E081E690E003DF60E083E390E0FFDED3
:1011300062E084E390E0FBDE60E082E690E0F7DED0
:101140008981883719F080E090E0B3DFDF91CF919B
:10115000089580E090E0F0DE813029F481E090E0B5
:10116000EBDE833419F080E090E0CADF82E690E0A5
:10117000E3DE80934F0184E390E0DEDE80930001A4
:1011800008958091340180FD03C08CEC91E002C091
:101190008BEB91E0F8DD04CE0895FC019FB7F89445
:1011A000828187FD0EC08F5F8283208181E0820F64
:1011B0008083DF01A20FB11D13966C93803809F470
:1011C00010829FBF0895FC012FB7F894828181118E
:1011D00002C02FBF08959FEF980F9283918181E005
:1011E000890F8183DF01A90FB11D13969C9180386F
:1011F00009F411822FBF892F089510925103109284
:101200000B0283E0809355018FEF8093660308956E
:10121000E6E5F1E02081211105C0892BB1F080E0E5
:1012200090E00895B2E0E430FB07B8F7009751F082
:101230004181DC013C91431305C0428111963C91F0
:10124000431751F0E20FF11DE5CF32E0E430F30730
:1012500019F010F0E4E0F2E0CF01089524E0829F5D
:10126000C0011124FC01E959FC4F80818F3F89F0B6
:10127000809350018181809351018281809352013A
:1012800083818093530121E04CE064E080E591E0AC
:101290005AC5089585E092E0BBDF009799F0209150
:1012A0005501FC013081231768F4E20FF11D8081A4
:1012B0008093070289E78093080281818093090265
:1012C00081E0089580E008950F931F93CF93DF93FB
:1012D00020917A0326FF12C08C0184E536DDE801F7
:1012E0000B5F1F4F8991D4DDC017D107D9F78091CB
:1012F0007A0385FF02C08AEFCBDD52DDDF91CF910B
:101300001F910F91089586E3FADA809107028335E1
:1013100011F08BE401C08BE90FDD21E04CE065E0CA
:1013200085E092E010D55CDB85E092E0CDCF0895BA
:10133000EADF80910702893631F081E08093040270
:1013400089E2809366030895CF9385E390E0F4DD0E
:101350008093370386E390E0EFDD80936503E5E556
:10136000F3E0CFEFC083C283C483C683C087C28744
:10137000C487C68742DF1092560181E0809336030E
:10138000A7E6B3E0CC93E9E3F3E08FEF9FEF91831F
:10139000808313821282158214821496CC93149740
:1013A0009783868311861086138612861896CC93AF
:1013B00018979587848717861686118A108A1C9637
:1013C000CC93938B828B158A148A178A168ACF91B5
:1013D0000895AF92BF92CF92DF92FF920F931F9327
:1013E000CF93DF93CDB7DEB72C970FB6F894DEBF5F
:1013F0000FBECDBF8C015C013FEFA31AB30A45E0DD
:10140000BE016F5F7F4FC50148DD843008F0D7C053
:101410009981913091F4833051F46A8185E390E0B1
:1014200086DD6B8186E390E082DD8EDFE3C1809113
:1014300037032EDD809165038BC0923009F04EC0DA
:10144000813049F091E080E02A81213009F090E07C
:10145000C92ED82E03C0CC24C394D12C8091560120
:10146000811103C085EE91E08EDC06E511E0F80104
:101470008081882309F4A1C0F2E004301F0708F03E
:101480009CC081E00635180711F080E25EDCF801AF
:101490008181FEDCF8018281FBDCC114D104C9F03A
:1014A0008AE353DC93E0F8018081981790F494303C
:1014B00030F090FF04C08CE29C8747DC9C85FF24C1
:1014C000F394F90EF801E90FF11D8081E1DC9F2D05
:1014D000EACFF8018081080F111DC9CF933049F47C
:1014E00080E090E095DE865591409EEA981B892F1A
:1014F0002FC0903111F505E513E0D12CF12CF80146
:1015000080818F3F79F0FF2011F080E21EDC8D2D6D
:10151000BFDC8AE31ADCF8018081BADCF801818142
:10152000B7DCF3940E5F1F4FD394F8E0DF12E7CFE0
:10153000F11043C083EF91E03FC0913159F48091A5
:101540005303909154036DE770E00E944F2D862F56
:101550009FDC33C0923189F517E6A12E13E0B12E3E
:101560000AE613E0D12CF12CF50180818F3FB9F010
:10157000FF2011F080E2E9DB8D2D8ADC8AE3E5DBD8
:10158000F501808185DCF8013297808181DCF801EA
:10159000319780817DDCF80180817ADCF394F4E07E
:1015A000AF0EB11CD3940C5F1F4F34E0D312DCCFCD
:1015B000F11003C08FEE91E0E6DBF2DB1BC144E0EB
:1015C000BE01695F7F4FC50168DC4F81493608F471
:1015D00074C07A855885698520E030E080E090E02D
:1015E0007C3009F051C0F901E959FC4F7081741346
:1015F0001CC0A181A51319C0A281A61316C02CE09E
:1016000023839C01220F331F820F931FFC01EE0FD7
:10161000FF1FE75CFC4F11821082880F991FFC01AD
:10162000E55CFC4F11821082CBC07F3FD9F4408330
:10163000518362832CE023839C01220F331F820F8E
:10164000931FFC01EE0FFF1FE75CFC4F118210821D
:10165000880F991FFC01E55CFC4F118210821092EB
:101660003603AEC001962C5F3F4F2031310509F0A3
:10167000BACFC0C0A181A51771F001962C5F3F4F72
:101680002031310509F4B6C0F901E959FC4FA081B8
:10169000A413F3CFEFCFA281A613EFCF7383FC0186
:1016A000EE0FFF1FE80FF91FEE0FFF1FE55CFC4F69
:1016B00081E090E0918380839DC0E9818091370330
:1016C000E817B8F190E0F0E09C01295F3F4F2E173A
:1016D0003F077CF13A812091650332132AC03C8197
:1016E0003F3229F442E06CE0C8019CD383C02D81D5
:1016F0003C32B1F42093520381E090E09093540384
:10170000809353038091770390917803E4E02E9FB8
:10171000800D911D112490937803809377036AC004
:10172000E81BF90BEE0FF0E0EB5AFC4F30832183FE
:1017300061C080E090E06CDD6C01F501019000205B
:10174000E9F73197EA19FB09F695E795FF24F39439
:10175000FE0EC6018F0D911D865591408F3A910561
:101760000CF045C0F601F1925F0121E0822F880F55
:1017700081502F15D8F441E0B501F801E80FF11DB3
:10178000CF012C878ADB2C85233058F020FD09C03F
:10179000F50131978081843621F4F50180818093B1
:1017A00038032F5FFFEFAF1ABF0AE0CF34E0C31654
:1017B00032E0D306F8F4F601E20FF11D10821AC0F0
:1017C00022E04CE064E0CE010796BDD28FE08A872C
:1017D00022E04CE064E0CE010796B5D282E08A8731
:1017E00022E04CE064E0CE010796ADD203C089EE62
:1017F00091E0C9DA2C960FB6F894DEBF0FBECDBFCC
:10180000DF91CF911F910F91FF90DF90CF90BF900C
:10181000AF9008950F931F93CF93DF93909136036A
:1018200091114EC093E0899FE0011124FE01EE0F5B
:10183000FF1FE75CFC4F94E0899FD0011124A95958
:10184000BC4F12969C91977040E850E0491B51099B
:101850009AEF949F9001959F300D1124359527950F
:1018600035952795318320838E01000F111F035C6E
:101870001C4FF801208131812F5F3F4F318320833E
:10188000CC0FDD1FC55CDC4F4881598141155105E6
:1018900029F424303105A1F4E1DC0FC041305105B9
:1018A00031F4DCDC82E090E09983888309C0423027
:1018B000510531F4D3DC19821882F80111821082AB
:1018C000DF91CF911F910F910895A6E0B0E0EBE674
:1018D000FCE00C94822D809165038A831B82909199
:1018E0005203992341F0933019F08DE790E010C036
:1018F00087E791E00DC0877090E08A519F4F4DE7D8
:10190000489F9001499F300D1124C90195958795F5
:10191000909354038093530385E5E82E83E0F82EDB
:1019200010E00CE2F70190819F3FB9F080913703FE
:10193000810F898380915203882311F00C8303C0A7
:101940009C83F70181818D8321E04CE065E0CE012D
:101950000196F9D1CE010196B7DC1F5FF2E0EF0EE0
:10196000F11C1830F9F680915203882341F083303E
:1019700019F41092520303C08250809352032696AA
:10198000E6E00C949E2D80910402882351F0BBDC8C
:1019900089E280936603809104028150809304025F
:1019A00008952BCC0895FF920F931F93CF93DF934D
:1019B000FC01F0800181C281D38114818FE5809385
:1019C00066031092040280913703811105C0809153
:1019D0006503882309F4A9C0809105028F1104C012
:1019E00080910602801729F008DCF092050200932E
:1019F0000602809151038F3F09F497C0C0930702FC
:101A0000D093080210930902CC23F1F081111CC07D
:101A100080913703181761F0143651F08DEA8C0F5E
:101A2000823010F0CD3739F48FEF809351037DC0B1
:101A3000C43509F47AC08D2F807F803609F075C0D7
:101A4000D067D093080257C025DC811105C0809172
:101A50005103882309F469C080910B02811107C0EA
:101A6000E0915103F0E0E950FE4FE49101C0E82F0E
:101A7000E33541F4C43531F4909151039E5F909366
:101A8000510304C0EC1711F0B8DB4FC0882369F094
:101A9000809155018E5F80935501FCDB81110EC052
:101AA000809151038E5F8093510380915103E82F01
:101AB000F0E0E850FE4FC491CF3F59F48091070207
:101AC00080930B028436B9F4809138038093090225
:101AD00012C0C093070297E79093080290913703D2
:101AE000909309028E5F8093510310920B028E3007
:101AF00021F0CC23D1F01CDC18C085E092E088DB1B
:101B0000FC01892B81F0808190E024E032E0281BE9
:101B1000390BE217F30730F4DF01A80FB91F4C911E
:101B20004193F7CF108269DBE4CFCDB7DEB7E5E0B4
:101B30000C949F2DFA019081882369F0DB01A90F95
:101B4000B11DE1E0F0E0022E01C0EE0F0A94EAF7C9
:101B50008C91E82BEC93222319F08FEF820F0BC0AE
:101B600081E0890F8C3010F4FA018083FB01E80FCB
:101B7000F11D108287E090E00895CF93C82F599A05
:101B8000882319F090910D0202C090910F0220E17C
:101B9000929FC0011124CBD85998CC2319F0809181
:101BA0000C0202C080910E0220E1829FC00111242C
:101BB000BED8CF910895AAE0B0E0E1EEFDE00C942C
:101BC000762D4C01D62E422E1E2DE42EF12C209186
:101BD0007703309178038C2D8A0DA7014E5F5F4FFC
:101BE000049F800D1124082E000C990B281739072B
:101BF00020F485E092E0C7D8A2C0281B390B3093AF
:101C00007803209377032C9A80918002882341F0F7
:101C10001092800284E491E019D4BB24B39401C0F3
:101C2000B12C80913003811102C00E9462050E9494
:101C3000DE0440E1C49E900111243A83298340E1EF
:101C4000A49E900111243C832B832D2D30E03E83F4
:101C50002D8366246394712C512CC11002C0AA20DC
:101C600041F0599A89819A8162D859988B819C81D7
:101C70005ED8312C832D032C000C990B4D815E8195
:101C80008417950724F480E078DF3394F3CFDD20C8
:101C900011F081E072DF90E0292F092E000C330B48
:101CA0002E153F05F4F447E0242E312CA901480DF0
:101CB000591D598748879301022C01C0220F0A94AD
:101CC000EAF7E885F985808182239F8356DFF1E07A
:101CD0002F1A31089F812FEF2216320661F79F5F7E
:101CE000DBCF87E0382E280D391D832D032C000C07
:101CF000990B4816590684F4C301032C01C0880FC0
:101D00000A94EAF7F901908189232F833A8735DF16
:101D10003A943A852F81E9CF812F0ED8015009F0EE
:101D20009CCF80917A03882319F00E94F00403C0AD
:101D300086E30E947F04B1100E942E1C2C982A96E4
:101D4000E2E10C94922DADE0B0E0E9EAFEE00C9403
:101D50007B2D7C01162F842F022F6701C60ED11C0C
:101D6000462FB7018ED3F601808377247394710ECA
:101D70001D86198227E010E0CC24C394D12C97E073
:101D8000A92EB12C4701810E911C171560F5C601D3
:101D90000A2C01C0880F0A94EAF7F4019081AE0181
:101DA000435F5F4FBE016F5F7F4F8923C3DE282FE4
:101DB000F1E0AF1AB10848F7F4019081092E92952D
:101DC0009025092E9695969590259F5F91FB8827E3
:101DD00080F9AE01435F5F4FBE016F5F7F4FAADEA8
:101DE000282F1F5FCCCF222311F0215004C08D85F6
:101DF0008F5F8D8727E089E180930E0280930F0229
:101E000085E280930C0280930D02A12CC12C8AE004
:101E1000E82E4D856CE0CE010196CDDE2D96EDE0ED
:101E20000C94972DADE0B0E0E8E1FFE00C94852D37
:101E3000162F242F4BE0BE016F5F7F4F01962D8739
:101E40002CD82D85412F682FCE0101967CDF2D9651
:101E5000E3E00C94A12D43E066E0E4CF0895AF9257
:101E6000CF92EF920F93CF93DF93CDB7DEB760970A
:101E70000FB6F894DEBF0FBECDBF40E1BE016F5F6D
:101E80007F4F01960AD869814A810B818C818093AA
:101E90000F028D8180930E028E8180930D028F81BF
:101EA00080930C02E02EE2948FE0E8220F70242F42
:101EB0002F7042954F70A12CC12CCE0108967BDE6D
:101EC00060960FB6F894DEBF0FBECDBFDF91CF9105
:101ED0000F91EF90CF90AF900895A9E1B0E0E3E7C4
:101EE000FFE00C947C2D4BE08E010F5F1F4FB8017B
:101EF00001960E944D07F82E89E0F81256C099E12C
:101F000090930E0290930F0290930D0282E38093C0
:101F10000C0269E0C801BFD2F801EF0DF11D80830A
:101F2000198E1D86780127E088248394912CC12C7A
:101F3000D12CBE2CB01AF9E0FB1528F1C4010C2CF1
:101F400001C0880F0A94EAF7F7019081AE01475E5D
:101F50005F4FBE01635F7F4F8923ECDD282FFFEFCA
:101F6000CF1ADF0A88E0C816D10429F7AE01475E10
:101F70005F4FBE01635F7F4F81E0DCDD282FEFEF15
:101F8000EE1AFE0AD4CF222311F0215004C0898D0D
:101F90008F5F898F27E0A12CC12C8AE0E82E03E017
:101FA000498D6CE0CE010D9606DE6996ECE00C944E
:101FB000982DA9E1B0E0EFEDFFE00C947C2D4BE013
:101FC0009E012F5F3F4F6901B90101960E944D07A5
:101FD000182F85E380930F0296E190930E02909361
:101FE0000D0280930C02612FC60161D2F601E10F50
:101FF000F11D8083FF24F394F10E198E1D86560186
:1020000027E088248394912C8A2D8C198F1508F051
:1020100044C000E010E0C401002E01C0880F0A9403
:10202000EAF7F5019081AE01475E5F4FBE01635F45
:102030007F4F89237FDD282F0F5F1F4F043011054D
:1020400051F7AE01475E5F4FBE01635F7F4F81E096
:1020500071DD282FC401002E01C0880F0A94EAF711
:10206000F5019081AE01475E5F4FBE01635F7F4F18
:10207000892360DD282F0F5F1F4F0830110551F7AE
:10208000AE01475E5F4FBE01635F7F4F81E052DD6F
:10209000282FFFEFAF1ABF0AB7CFA12CC12C8AE0BF
:1020A000E82E03E0498D6AE0CE010D9684DD699645
:1020B000ECE00C94982DAF92CF92EF920F93CF93C8
:1020C000DF9300D000D0CDB7DEB743E0BE016F5F35
:1020D0007F4F01960E944D078AE680930F0294E29B
:1020E00090930E0291E290930D0280930C0280E88F
:1020F0008C83A12CC12C8FE0E82E03E026E043E086
:1021000060E0CE01019657DD0F900F900F900F9079
:10211000DF91CF910F91EF90CF90AF900895AF9254
:10212000CF92EF920F93CF93DF93CDB7DEB72C977B
:102130000FB6F894DEBF0FBECDBF4BE0BE016F5FA0
:102140007F4F02960E944D078530C1F48EE3809345
:102150000F028CE180930E0281E280930D028AE3EC
:1021600080930C0285E2A82E9AEFC92EE12C05E09F
:1021700024E044E068E0CE0101961DDD2C960FB608
:10218000F894DEBF0FBECDBFDF91CF910F91EF90DE
:10219000CF90AF900895A0E0B0E0E1EDF0E10C94B5
:1021A0007C2DDC0110922D02109242021196DC90DF
:1021B0001197DD0CDD0CDD0C13968C911397D81A5A
:1021C0008D2D97E0B92EBD0C10922E0290E040E0CC
:1021D00028E0D22ED80E71E087E057E0C12C37E01E
:1021E000E32EF12C01E010E07D1509F478C0FD012B
:1021F000EC0DF11D248130E0052E02C035952795A8
:102200000A94E2F721703327552311F0515002C090
:10221000C39457E06B3479F4833009F079C04111ED
:1022200008C0232B09F058C010922D02909342024F
:102230006DC040E070C08F3F39F56634B1F4E92FCE
:10224000F0E0E25DFD4FE0810E2EE295E0250E2EDE
:10225000E695E695E025EF5FE695E170CE2F812CBF
:10226000D82DC217D30741F004C0653429F4232BBD
:1022700019F440932D02DACF9F5FE92FF0E0E25D81
:10228000FD4F108287E029C0232B21F1663469F4C9
:10229000E92FF0E0E25DFD4FA0809801082E01C01B
:1022A000220F0A94EAF72A2914C0653499F4E92F19
:1022B000F0E0E25DFD4F9701281B310987FD339562
:1022C000480102C0880C991C2A95E2F794013081DC
:1022D000232B2083815001C041E07F5F85CF409355
:1022E0002D0290934202B71688F4653431F48F3F83
:1022F00021F49F5F9093420204C080912D028111CE
:10230000F8CF81E090914202911108C080E006C0B0
:102310008F3F09F4ACCF232B51F6DCCFCDB7DEB71E
:10232000ECE00C94982D10926F00E09145028CE146
:10233000E89FF0011124EA5BFD4F10828091790340
:102340008D7F809379030895CF93DF93DC01362F3F
:10235000273011F4E5E101C0ECE011962C911197C2
:10236000C22FD0E050E0BE01641B750B9C91F0E0E1
:102370006E177F0714F5AA27BB27AE1BBF0BA61746
:10238000B707DCF4892F90E0632F70E09C01261BD7
:10239000370B2E173F078CF4A217B30774F49E0176
:1023A000280F391F640F751F261B370B2E173F0789
:1023B00024F481E0A217B3070CF080E0DF91CF9105
:1023C0000895FC018181843110F0ADCF089593818F
:1023D000662381F0DF01A80FB11D21E030E0092E56
:1023E00001C0220F0A94EAF714963C911497232B0C
:1023F00014962C93992319F091509383089597E0A4
:1024000093838F5F8183E80FF11D14820895519AA1
:1024100059985098E9E6F0E080818160808388E0F7
:1024200097E0909378038093770310926202109262
:102430003003089580917A03882329F00E94620571
:102440000C94F00408950C9459050895FC01218121
:1024500021110FC080917A030E94480740E265E095
:1024600080917703909178030E94D5060C94D00652
:10247000089541E06AE773E001960E944D07DACFC4
:102480000895442339F04150FB01E40FF11D908180
:10249000890FF7CF08959C0180E0662339F06150E1
:1024A000F901E60FF11D90818927F7CF0895FC010E
:1024B00070912D0240E095E020E0662399F0615094
:1024C000DF01A60FB11D3C91532F52955F70252758
:1024D000950F772311F0442319F03F702327930FB2
:1024E0004F5FEBCF920F30E1939FC0011124822BFD
:1024F0000895FC0182819381A081B181A80FB11D53
:102500002C9130E0092E02C0359527950A94E2F708
:10251000217033274FEF490F4383911104C08F5F20
:10252000828387E08383822F0895A1E0B0E0EBE906
:10253000F2E10C947C2D6C01062F10E0812C912C83
:10254000F12CEE24E394580181E0A81AB10880161A
:102550009106E1F0C6014983CCDF4981882391F0DF
:10256000442349F0C501881999099E2D01C0990F8E
:102570008A95EAF706C09E2D082C01C0990F0A948F
:10258000EAF7F92A8FEF881A980AE1CF8F2D219662
:10259000ECE00C94982DA4E0B0E0E1EDF2E10C94B5
:1025A0007D2D1B8227E02C839C012C5F3F4F3A83BB
:1025B000298310924202FC012181338187E090E05F
:1025C000831B9109F8E02F9F800D911D1124853404
:1025D00091050CF450C0912C00914202063070F528
:1025E000E02EF12C40E068E0CE0101969EDF9701DD
:1025F000A901425D5D4F7A01FA018083182F012EF7
:1026000012951025012E169516951025CE010196CE
:1026100070DF1F5F11FBAA24A0F8B12C90E0A81670
:10262000B90649F5CE01019664DF811124C0F70196
:10263000808198260F5F00934202CECF40E068E091
:10264000CE01019672DF082F182F012E129510254A
:10265000012E169516951025CE0101964ADF1F5FB3
:1026600011FBCC24C0F8D12C282F30E0C216D306A1
:1026700011F481E0901280E02496EBE00C94992D07
:10268000A4E0B0E0E6E4F3E10C947F2DFC011B82B2
:1026900087E08C83CF0104969A838983808185307B
:1026A00009F052C02181338187E090E0831B9109BA
:1026B00038E0239F800D911D11248039910509F088
:1026C00043C0109242023FE0C32E30EFD32E19E8F0
:1026D00080914202E82EF12CBB24B394B80E41E065
:1026E00068E08F3078F4CE0101961FDFC80ED11C50
:1026F000F701E25DFD4F1827108314E2180FB09226
:102700004202E6CFCE01019610DF8601080F111DAF
:10271000B0924202F701E25DFD4F8095808341E077
:1027200068E0CE01019601DF90E0982F8827081B12
:10273000190B41E068E0CE010196F7DE282F30E06A
:1027400081E00217130709F080E02496E9E00C9479
:102750009B2DA4E0B0E0EFEAF3E10C94832D1B8203
:1027600027E02C839C012C5F3F4F3A832983FC0197
:1027700021812430A1F58381813089F510924202B4
:1027800080914202082F10E0FF24F394F80E41E0FC
:10279000843098F4811106C067E0CE010196C5DE51
:1027A000806804C068E0CE010196BFDEF801E25DFA
:1027B000FD4F8083F0924202E3CF67E0CE010196A5
:1027C000B4DEF801E25DFD4F880F8083F092420293
:1027D00090912E0292959F7081E09A3009F080E0EE
:1027E0002496E5E00C949F2DCF93DF93FC0180812C
:1027F000873021F481818330F9F405C08930E1F418
:1028000081818830C9F483818730B1F4109242020B
:10281000918180E0891760F4282F30E0D901A25D12
:10282000BD4FEF01C20FD31F2C812C938F5FF2CFCE
:102830008093420281E001C080E0DF91CF91089552
:10284000CF93DF93FC0181818330C1F48381873092
:10285000A9F48081883091F490E0292F30E0D901EB
:10286000A25DBD4FEF01C20FD31F8C818C939F5F80
:10287000933099F79093420281E001C080E0DF91AC
:10288000CF910895FC0181818C30D9F4808186300C
:10289000C1F49381911115C040E0292F30E0DF0190
:1028A000A20FB31F14968C91480FD901A25DBD4FA2
:1028B0008C939F5F9B3089F79093420281E09785CC
:1028C000491380E00895FC01908180917903993645
:1028D00011F0933751F4982F9370913011F4826076
:1028E00006C080FF07C08B7F03C080FD03C08460EB
:1028F000809379030895A1E0B0E0E1E8F4E10C945D
:102900007C2D19828091100290911102892BC9F1BE
:1029100080917A0387FF17C084E30E946604805881
:10292000803458F0803C58F490E08055910923E0C1
:10293000959587952A95E1F703C080E001C08FE067
:102940008F590E94A50680917A0383FF16C082E703
:102950000E94A50680917A0384FF04C08091120230
:102960000E94A50686E60E94A50680917A0384FF50
:1029700004C0809110020E94A506109211021092CC
:10298000100280914302882309F478C22C9A0091A6
:1029900044022CE1029F800111240A5B1D4FD801E3
:1029A0008C91873011F0893049F48981811106C0FA
:1029B000C8011ADF882311F089E689838981811192
:1029C00006C0C8013DDF882311F083E78983898130
:1029D000811106C0C80156DF882311F082E7898380
:1029E000F80180818650833008F4E1C0898181112B
:1029F00006C0C80145DE882311F083E589838981FB
:102A0000811139C066E4C801C6DB8823A1F1F090CA
:102A10004202FA94F09242024F2D6EE272E086E09A
:102A200030DDEF2DF0E0E25DFD4FE0808E1105C05E
:102A300023E02F1510F486E41BC0282F30E02F5F11
:102A40003F4F4E2D50E02417350739F493E09F1582
:102A500020F496E4998380830EC04F2D6EE272E0DD
:102A60008CE00FDD8E1106C0A3E0AF1518F484E5ED
:102A7000898301C019828981811116C065E4C8016A
:102A80008ADB882389F08091420281508093420240
:102A9000893051F469E08EE292E0FDDC90913702DA
:102AA000891302C085E489838981811106C0C80128
:102AB00072DD882311F088E489838981811106C041
:102AC000C80147DE882311F084E789838981811159
:102AD0003AC0F8012081438D60911202C8014A96E4
:102AE00033DC682FC8016DDC6BE4C80154DB88233C
:102AF000C1F0E0914202FF24FA94FE0EF0924202ED
:102B00006F2D8EE292E0D3DCEF2DF0E090912D025C
:102B1000E91BF109E25DFD4F9081891302C08BE44E
:102B20008983898181110FC0D80113968C911397E5
:102B3000873021F08F5F13968C9305C0F8011382C4
:102B4000818181508183F980F11031C0D8011196C3
:102B50008C911197843059F513968C91139784308A
:102B600031F5EC902E2D4EE16CE3C8014896ECDB7C
:102B70008823E9F02E2D4EE160911202C8014A9699
:102B8000E3DB682FC8011DDC8F2D90E0FC01E25DC6
:102B9000FD4FD801A80FB91F14968C918083F39430
:102BA000B5E0FB12F1CFF092420282E589836981A0
:102BB000662309F4CCC040917A0340FFC8C08091DD
:102BC00079038E7F8B7F80937903942F927041FDE0
:102BD00064C050912C027091420257133EC080E0B5
:102BE0008517C0F4282F30E0E1E0E80FD901A85E96
:102BF000BD4F225D3D4FFC91D9012C91F21741F060
:102C000080932C02209179032D7F2093790304C0B7
:102C10008E2FE6CF80932C0285131FC0C090320305
:102C2000D0903303E0903403F09035038090140289
:102C300090901502A0901602B0901702C818D908FB
:102C4000EA08FB08B6E2CB16D104E104F10428F44B
:102C500080917903816080937903971760F4292F1D
:102C600030E0F901E85EFD4FD901A25DBD4F8C91C6
:102C700080839F5FF2CF90932C02809132039091DA
:102C80003303A0913403B0913503809314029093E1
:102C90001502A0931602B09317026435E9F446FDBD
:102CA0001BC0809142028530B8F0809130028B3495
:102CB00071F0893661F09DEA980F923040F08D579F
:102CC000823028F0809131028077803729F480911A
:102CD0007903816080937903B801CE010196F3DD19
:102CE0008091790382FF33C089810E94A50680917B
:102CF0002D02882329F08091420281508093420264
:102D0000F12CE0914202FE1648F4EF2DF0E0E25D76
:102D1000FD4F80810E944807F394F3CF80912D02EC
:102D2000882351F0F0E0E25DFD4F80818F7040E339
:102D300061E090E00E940C0780917A0385FF05C056
:102D400084E30E9466040E9448070E94D006809196
:102D50007A0382FF7AC080E70E94A506F80180818D
:102D600040E262E090E00E94D506D80158968C912E
:102D700040E265E0B0E18B9FC00111240E94D506BE
:102D8000F801818D40E265E0F0E18F9FC0011124E0
:102D90000E94D506D8015A968C9140E265E0B0E1D8
:102DA0008B9FC00111240E94D506F801838D40E25B
:102DB00065E0F0E18F9FC00111240E94D506D80183
:102DC00012968C9140E263E090E00E94D506F801F3
:102DD000818140E263E090E00E94D506D80113961D
:102DE0009C9140E262E027E030E0F901E91BF10943
:102DF000CF010E94D50680E20E94A50680917A0349
:102E000085FF08C084E30E9466040E94480780E2B0
:102E10000E94A506D80113968C911397873031F044
:102E200011968C9111978F5F11968C93F12CF8016C
:102E30008181F81640F4F801EF0DF11D84810E94A4
:102E40004807F394F4CF0E94D006D8011C928091D9
:102E50004302815080934302809144028F5F82300D
:102E600019F08093440202C0109244022C98898188
:102E7000843521F48EE292E00E94D30C2196ECE09E
:102E80000C94982D1F920F920FB60F9211242F932E
:102E90003F934F935F936F937F938F939F93AF93E2
:102EA000BF93EF93FF9310926F00809188009091F1
:102EB000890020E23EE430938900209388009093BB
:102EC00085008093840080917A0383FF03C08EE2A3
:102ED0000E94A506809145029CE1899FF001112482
:102EE000EA5BFD4F9081933018F09181923010F49D
:102EF0001ADA18C090914302913049F480917A0314
:102F000082FFF6CF8CE092E00E94C306F1CF9F5F74
:102F1000909343028F5F823019F08093450202C084
:102F200010924502FF91EF91BF91AF919F918F91C8
:102F30007F916F915F914F913F912F910F900FBEB5
:102F40000F901F9018951F920F920FB60F92112499
:102F5000CF92DF92EF92FF920F931F932F933F93A5
:102F60004F935F936F937F938F939F93AF93BF9391
:102F7000EF93FF93CF93DF931F92CDB7DEB780918E
:102F80007B03882321F082E080937B0376C200914B
:102F900084001091850084E0169507958A95E1F7E5
:102FA000909145028CE1989F90011124F901EA5B10
:102FB000FD4F6F018081843049F40E32110508F411
:102FC0005CC20F34110558F0AED957C2853039F4C0
:102FD0000731110508F451C208321105A8F74899C4
:102FE0000FC08450823038F461E0C601EAD91092F3
:102FF00085001092840010931302009312023DC2C8
:103000008091120290911302081B190B1093110268
:10301000009310021092850010928400F601408106
:10302000473019F0493009F040C02091100230912A
:103030001102F6012C3B310510F012821EC2828172
:10304000811133C02739310538F089E0808310922F
:1030500085001092840011C2809112029091130297
:1030600051E0F6015283493091F4B9016150710980
:103070008617970710F4808F06C0F601808F282FDF
:10308000220F220F280F218FF601828F27C0BC014B
:10309000660F771F2617370710F41082EEC1F6016E
:1030A000808F2F5F218F228F838F4830C1F4F601EC
:1030B0008281811114C081E0828380911202808F0D
:1030C000828F80911002909111028B3B910518F430
:1030D000818F880F03C0F601818F8695838F4450BE
:1030E000423008F469C122E026BB0091120210911F
:1030F0001302C801835392408B3B9105F8F48091F1
:103100001002909111020A974797C0F486E0F601E9
:10311000808F9EE0918F33E1328F938F91E0928385
:103120008083118287E08383148280EA9FE09093FA
:1031300089008093880020936F009FC1F601308141
:1031400031114EC0C8014B970697C0F48091100210
:1031500090911102845192404E9780F488EF91E152
:10316000909389008093880082E080936F00F6013D
:10317000128288E08083118287E01BC0C801099712
:103180004C97D0F480911002909111028D599109C1
:1031900089389340A8F480EA9FE090938900809357
:1031A000880082E080936F00F601128287E08083BE
:1031B00011828383148261C10536110508F05DC157
:1031C00080911002909111028536910508F055C149
:1031D000F601008F818F81E0828382E080834DC180
:1031E000323009F069C0F090100222E04F2D602FBC
:1031F000C6014896A9D8F60122818823F9F0808D6E
:1032000090E0AC01440F551F840F951F800F911D56
:103210009595879595958795808F818D90E0AC01E8
:10322000440F551F840F951F8F0D911D9595879500
:1032300095958795818F2F5F22831FC12430C8F118
:1032400080EA9FE09093890080938800F601828154
:103250008C3050F0208D818D90E0820F911D85364D
:10326000910524F084E015C08A3088F0F601208DA5
:10327000818D90E0820F911D85974CF485E08083CD
:1032800088EE93E0909389008093880003C083E0E8
:10329000F601808380911202F601828F80911002E4
:1032A000838F118287E08383148282E080936F0092
:1032B000E4C0F601108246CF363009F03FC00B3033
:1032C0001105F0F460E0C6017CD8F601808D90E035
:1032D0009C01220F331F820F931F080F191F159592
:1032E000079515950795008F818D90E09C01220F21
:1032F000331F820F931F20911002820F911DB4C0C3
:1033000061E0C6015ED8F601828D90E09C01220F3B
:10331000331F820F931F800F911D9595879595956B
:103320008795828F838D90E09C01220F331F820F3F
:10333000931F20911002820F911D69C0E09010022E
:10334000F0901102383069F5C7018F5691094D97F9
:1033500008F560E0C60135D8F601808D90E09C014B
:10336000220F331F820F931F800F911D9595879514
:1033700095958795808F818D90E09C01220F331F5A
:10338000820F931FE80EF91EF594E794F594E794E5
:10339000E18E73C0C701875E9109879708F06DC001
:1033A0001AC0393069F4FF24FCE0EF1AF108112744
:1033B00061E00E151F050CF060E0C60102D85DC08B
:1033C000232F4E2D602FC6014A9639830E94A411E7
:1033D0003981882311F161E0C6010E94E111F601F3
:1033E000828D90E09C01220F331F820F931F800F6C
:1033F000911D9595879595958795828F838D90E002
:103400009C01220F331F820F931F8E0D911D9595E6
:10341000879595958795838F30C0232F4E2D602FEC
:10342000C601489639830E94A4113981882311F17D
:1034300060E0C6010E94E111F601808D90E09C01E0
:10344000220F331F820F931F800F911D9595879533
:1034500095958795808F818D90E09C01220F331F79
:10346000820F931F8E0D911D959587959595879544
:10347000818F03C0373009F0A7CD0F90DF91CF9136
:10348000FF91EF91BF91AF919F918F917F916F913C
:103490005F914F913F912F911F910F91FF90EF906E
:1034A000DF90CF900F900FBE0F901F901895CF9385
:1034B000DF93E898269A2E9A8EE190E00E94970674
:1034C0002E988EE190E00E9497062E9A8DE290E071
:1034D0000E94970680E30E947F0484E690E00E94A9
:1034E0009706C3E3D2E0FE0131966491FE01849118
:1034F0000E946D042296F2E0C536DF07A1F78091A5
:103500007F02811107C083E30E947F0484E00E9450
:103510009C060FC0CDE1D2E0FE0131966491FE0120
:1035200084910E946D042296F2E0C333DF07A1F775
:10353000EACF84E30E947F0485E30E9466048D3015
:10354000C1F7DF91CF910895A2E3B0E0EAEAFAE192
:103550000C94842D80917E02882309F4A1C0489B9D
:103560008AC08FE30E9466048F778983823368F074
:103570008AE30E947F0486E30E947F048DE30E9419
:103580007F0484E30E947F048BC02E988FEF0E94FB
:10359000F50310E08981181760F480E00E94F503BC
:1035A000E2E0F0E0EC0FFD1FE10FF11D80831F5FF3
:1035B000F1CF80E00E94F503082F80E00E94F50320
:1035C0002E9A84E30E947F0485E30E9466048D3076
:1035D000C1F79A8126E729272A8322E08981E22FF1
:1035E000F0E0281768F441E050E04C0F5D1FE40F55
:1035F000F51F80819452982790832F5F982FEECFEC
:1036000081E090E08C0F9D1FE80FF91F80819B8166
:103610009827908380917A0384FF12C081E60E94EC
:10362000A50610E08981811730F1E1E0F0E0EC0FB0
:10363000FD1FE10FF11D80810E94A5061F5FF2CFE3
:1036400081E40E94A50610E08981811758F0E1E02D
:10365000F0E0EC0FFD1FE10FF11D80810E94480793
:103660001F5FF2CF80917A0385FF03C0802F0E94F5
:1036700048070E94D00685E30E946604813029F045
:10368000813161F48AE30E947F0486E30E947F0413
:103690008DE30E947F0484E30E947F040E94A905B9
:1036A000E296E4E00C94A02DAAE3B0E0EAE5FBE1A9
:1036B0000C947C2D41E38E010F5F1F4FB8010196E2
:1036C0000E944D077C019C013327215031098981DB
:1036D00090E02817390709F0A3C080917E0281117C
:1036E00004C0E5DE83E00E949C06DB809A8186E7C9
:1036F00089278A8382E09981282F30E0F801E20F40
:10370000F31F891750F4DE01A20FB31F9C9194524E
:103710002081922790838F5FEECF80818D258083DB
:10372000CE01C7960E94070685E30E947F0485E3C9
:103730000E946604833181F1CE01C3960E94070680
:103740004BA95CA96DA97EA98FA998ADA9ADBAAD09
:1037500084179507A607B70760F44A015B01881A2A
:10376000990AAA0ABB0A2DEB82169104A104B1049E
:1037700070F4481759076A077B0770F484549F4F09
:10378000AF4FBF4F84179507A607B70728F483E10B
:1037900092E00E94C30627C085E30E94660483313D
:1037A00019F6D4FE08C088E70E949C0688E70E94AC
:1037B0009C0688E701C08AE00E949C062E988FE74D
:1037C0000E94F50368018C2D801B8E1530F4F601E4
:1037D00081916F010E94F503F6CF2E9A85E30E9436
:1037E00066048331D9F385E30E946604863149F487
:1037F0008BE30E947F0486E30E947F048DE30E9496
:103800007F0480917E02882349F084E30E947F0434
:1038100085E30E9466048D30C1F702C00E941A122F
:10382000EA96ECE00C94982DFC019181923731F0EE
:10383000923559F481E080937F0202C010927F029A
:1038400036DE81E080937E020895933721F4CF0124
:1038500001962ACF089510927E020895CF93DF93A8
:10386000E898269A2E9A8EE190E00E9497062E986C
:103870008EE190E00E9497062E9A8DE290E00E94E1
:10388000970680E30E947F0484E690E00E949706FA
:10389000CEE7D2E0FE018491813440F083E30E94C0
:1038A0007F0484E00E949C06CFEF0DC0FE0131969C
:1038B0006491FE0184910E946D042296F2E0CA3B5D
:1038C000DF0741F7EBCF84E30E947F048AE090E0BA
:1038D0000E949706C150B9F781E080938002DF9182
:1038E000CF9108954F925F926F927F928F929F92A5
:1038F000AF92BF92EF92FF920F931F93CF93DF93FC
:103900007C01EB01FC0110811F5F209719F420E07E
:1039100030E002C024E630E0F8E01F9FC00111242F
:103920006AE070E00E94632D620F731F4B01072E47
:10393000000CAA08BB0880917703909178032C01B2
:10394000612C712C481459046A047B0428F48EE617
:1039500092E00E94C306D3C0861B970B9093780316
:103960008093770380918002811101C077DF85E326
:103970000E9466048D3071F08AE50E94A50685E4F8
:103980000E94A50682E50E94A50682E50E94A50682
:1039900081E34BC08091810290918202A0918302C9
:1039A000B0918402892B8A2B8B2B49F50E94DE046F
:1039B00085E30E946604833109F442C08AE50E94CF
:1039C000A50685E40E94A50682E50E94A50682E57B
:1039D0000E94A50682E329C040913203509133032F
:1039E00060913403709135030196A11DB11D4817F4
:1039F00059076A077B07D1F681E00E949C06409137
:103A000032035091330360913403709135038091F8
:103A1000810290918202A0918302B09184024817A2
:103A200059076A077B07C1F6E7CF0E94A50685E321
:103A30000E9466040E9448070E94D0060FDF5FC004
:103A4000CD2B41F42E988FE70E94F5030E2DC02F49
:103A5000DF2D08C0CAE0D0E084E60E949C062197D2
:103A6000D9F7F0CF8C2F801B811720F489910E9409
:103A7000F503F8CF2E9AC8EC85E30E9466048D30DA
:103A8000E9F485E30E9466048D3019F18AE50E940D
:103A9000A50685E40E94A50682E50E94A50682E5AA
:103AA0000E94A50683E30E94A50685E30E946604A2
:103AB0000E9448070E94D006D1DE0BC085E30E9419
:103AC00066048331F1F681E00E949C06C150A1F6A4
:103AD000D8CF80918002811102C00E941A12809179
:103AE000320390913303A0913403B0913503809356
:103AF000810290938202A0938302B0938402DF91AB
:103B0000CF911F910F91FF90EF90BF90AF909F903A
:103B10008F907F906F905F904F900895ACE0B0E0F1
:103B2000E4E9FDE10C94852DFC018BE08983818122
:103B30008A831B8282E08C8387818D8380858E833C
:103B400081858F83848188878581898786818A871B
:103B50001B861C8684E10E949C0660E070E0CE011A
:103B60000196C0DE8AE50E94A50610E0812F90E054
:103B7000298130E0281739075CF0E1E0F0E0EC0F34
:103B8000FD1FE80FF91F80810E9448071F5FEECFDD
:103B900080917A0385FF03C080E00E9448070E945D
:103BA000D0062C96E3E00C94A12DCF93DF93EC018B
:103BB00090918802911108C080918902811104C0FE
:103BC00080918A028823A9F08B81803319F08F7E3F
:103BD000803479F48F8189130CC098858091890293
:103BE000981307C0998580918A02981302C0CE016C
:103BF00095DF80918502811108C090918602911114
:103C000004C0909187029923A9F098819B3091F488
:103C10009B81903479F49F8198130CC09885809192
:103C20008602981307C0998580918702981302C075
:103C3000CE0174DFDF91CF910895AEE1B0E0E3E211
:103C4000FEE10C94842D80918002882309F469C0E0
:103C5000489B59C08FE30E9466048F778E3108F02D
:103C60008DE189832E988FEF0E94F50310E0898102
:103C7000181760F480E00E94F503E2E0F0E0EC0F3A
:103C8000FD1FE10FF11D80831F5FF1CF80E00E94D7
:103C9000F503082F80E00E94F5032E9ACE010196CD
:103CA00084DF80917A0384FF12C08AE70E94A50610
:103CB00010E089818117A8F1E1E0F0E0EC0FFD1F31
:103CC000E10FF11D80810E94A5061F5FF2CF8AE5FA
:103CD0000E94A50610E08981811758F0E1E0F0E02C
:103CE000EC0FFD1FE10FF11D80810E9448071F5F4F
:103CF000F2CF80917A0385FF03C0802F0E9448078E
:103D00000E94D0060EC085E30E946604813149F40A
:103D10008AE30E947F0486E30E947F0484E30E947A
:103D20007F046E96E4E00C94A02DAEE1B0E0EBE9E8
:103D3000FEE10C94842D8C01FC018181823711F409
:103D40008DDD36C0833711F0863601F54DE1BE01B9
:103D50006F5F7F4FC80102960E944D079927019718
:103D6000298130E08217930729F085E692E00E94CE
:103D7000C3061EC061E070E0F8018181833711F055
:103D800060E070E0CE010196ADDD12C0813621F415
:103D900043E068E872E005C0873741F443E065E836
:103DA00072E0C80102960E944D0702C01092800284
:103DB0006E96E4E00C94A02DCF93DF93E898269ABA
:103DC0002E9A8EE190E00E9497062E988EE190E068
:103DD0000E9497062E9A8DE290E00E94970680E35B
:103DE0000E947F0484E690E00E949706CAEBD2E02E
:103DF000FE018491813448F083E30E947F0481E0D6
:103E00000E949C06DF91CF910895FE013196649146
:103E1000FE0184910E946D042296F2E0C63FDF0706
:103E200039F7EACFAEE1B0E0E8E1FFE10C94842D90
:103E300080918B02882309F474C0489B5FC08FE394
:103E40000E9466048F778E3108F08DE189832E9869
:103E50008FEF0E94F50310E08981181760F480E06D
:103E60000E94F503E2E0F0E0EC0FFD1FE10FF11D11
:103E700080831F5FF1CF80E00E94F503082F2E9A08
:103E80008AE30E947F0486E30E947F048DE30E9400
:103E90007F0484E30E947F0480917A0384FF12C030
:103EA00087E70E94A50610E089818117D0F1E1E043
:103EB000F0E0EC0FFD1FE10FF11D80810E94A506CF
:103EC0001F5FF2CF87E50E94A50610E08981811768
:103ED00058F0E1E0F0E0EC0FFD1FE10FF11D8081F3
:103EE0000E9448071F5FF2CF80917A0385FF03C0CD
:103EF000802F0E9448070E94D00613C085E30E94CD
:103F00006604813011F0813161F48AE30E947F04FC
:103F100086E30E947F048DE30E947F0484E30E9475
:103F20007F046E96E4E00C94A02DFC018181823721
:103F300029F442DF81E080938B020895833711F0EA
:103F400010928B020895A2E0B0E0E9EAFFE10C9440
:103F5000782D7C01FC018181833709F09EC1198293
:103F600087E090E00E94AD2D8C0141E0BE016F5FC3
:103F70007F4FC70102960E944D078981F801808317
:103F800041E0BE016F5F7F4FC70104960E944D075D
:103F90008981807FD82EF801818341E0BE016F5F67
:103FA0007F4FC70106960E944D078981F8018283E1
:103FB00041E0BE016F5F7F4FC70108960E944D0729
:103FC0008981F801838341E0BE016F5F7F4FC701A4
:103FD0000A960E944D078981F801868341E0BE015F
:103FE0006F5F7F4FC7010C960E944D078981F801D2
:103FF000858341E0BE016F5F7F4FC7010E960E942F
:104000004D078981F80184835801F7E0AF0EB11C98
:10401000F80180E09191292F22952F70922789270E
:10402000EA15FB05B9F78F70D82AF801D18287E02D
:1040300090E00E94AD2D6C0187E0F801D60101905F
:104040000D928A95E1F7D801119698012A5F3F4FAA
:10405000F80181919C9189278D93E217F307C9F7A5
:104060002C9A80918E0281115EC080917E028823FD
:1040700029F081E080938D0210927E02809180026F
:10408000882329F081E080938C0210928002E898C6
:10409000269A2E9A8EE190E00E9497062E988EE145
:1040A00090E00E9497062E9A8DE290E00E9497067B
:1040B00080E30E947F0484E690E00E9497062E9899
:1040C00080E40E94F50366EFE62E62E0F62E79E2C8
:1040D000972E9E0CF70184910E94F503FFEFEF1AD3
:1040E000FF0A9E10F7CF2E9A2E988EE70E94F503B6
:1040F0008BE290E07C012FEFE21AF20A0E949C070B
:104100000E94F503C70183339105A1F72E9A83E33B
:104110000E947F0481E00E949C0681E0809330032E
:1041200083E00E949C0686E30E947F048AE30E944B
:104130007F048BE30E947F040E94DE04599A87EC7F
:1041400094E20E949706599889E50E949C0685E3AF
:1041500092E00E949706F12C8091050190E02F2DAE
:104160000F2C000C330B281739070CF056C0FF201A
:1041700011F027E001C022E0E12C599A86EF99E086
:104180002A830E949706599886EF99E00E94970625
:10419000E3942A81E212F1CF599A8CEF92E10E94C6
:1041A0009706599880910101909102010E9497060B
:1041B0004801F40161904F0148E0E42E50E8452E9B
:1041C000512C712CC20186219721892B49F4599ACF
:1041D00080910101909102010E949706599808C0B0
:1041E000599880910101909102010E949706599A75
:1041F00080910101909102010E9497065694479484
:10420000EA94E110DFCF8A149B0499F6599880E074
:1042100090E00E949706F3949FCF80918E028823AE
:1042200041F080917A0381110EC086E30E947F04E1
:1042300017C080918D02882349F010928D0237D9E2
:1042400081E080937E020E94F0040AC080918C027B
:10425000882321F010928C0201DB02C00E941A1206
:104260002C9889E50E94A50683E70E94A5067601A1
:104270005601F7E0AF0EB11CF70181917F010E945A
:104280004807EA14FB04C1F70E94D006C6010E9449
:10429000422EC8010E94422E6DC08237A9F465E00B
:1042A00071E0C70102960E947D0789E50E94A5067C
:1042B00082E70E94A5068AE30E94A5068091050177
:1042C00040E260E090E02CC0843779F5F70182810C
:1042D000803339F488ED94E09093040180930301D6
:1042E00006C063E071E0C70102960E947D078091DD
:1042F0000301909104019695879590930201809314
:10430000010189E50E94A50684E70E94A5068AE3CB
:104310000E94A50640E266E08091030190910401AD
:104320000E94D5060E94D00625C0883719F58091D5
:104330008D02882339F010928D02B9D881E08093E4
:104340007E0210C080918C02882321F010928C0292
:1043500085DA0EC082E090E00E94830480917A03A7
:10436000882319F00E94F00403C086E30E947F04B2
:1043700010928E022296E0E10C94942DFF920F93FE
:104380001F93CF93DF93EC01FC0101900020E9F72C
:1043900031978F01081B190B8981823751F487E30C
:1043A00090E00E9483040E94F00481E080937B03EC
:1043B00025C0833709F5F02E2E988FE70E94F5036C
:1043C0008EEF800F0E94F503229612E01F1528F44D
:1043D00089910E94F5031F5FF9CF2E9A0E94DE0497
:1043E0008AE30E9466048F7721F081E00E949C0698
:1043F000F7CF0E94F00402C010927B03CDB7DEB766
:10440000E5E00C949F2DA0E8B0E0E9E0F2E20C9426
:10441000802D80917B03882309F454C0813011F5ED
:104420008091320390913303A0913403B09135030E
:1044300020918F02281709F445C085E30E94660485
:10444000813129F48AE30E947F040E94F004809164
:10445000320390913303A0913403B09135038093DC
:104460008F0230C08FE30E946604F82E87FD27C0BC
:104470002E988FEF0E94F5038E010F5F1F4F68018A
:10448000E02E8C2D801B8F1538F480E00E94F50300
:10449000F60181936F01F5CF2E9A81E080934D0153
:1044A000802F8E198F1530F4F80181918F010E94B1
:1044B000A506F6CF0E94D0068FEF80934D0181E0D4
:1044C00080937B03C058DF4FE8E00C949C2D0E9442
:1044D000F004E8980895CF93DF93269A2E9A8EE100
:1044E00090E00E9497062E988EE190E00E94970639
:1044F0002E9A8DE290E00E94970680E30E947F044E
:1045000084E690E00E949706809125048933C1F4E7
:10451000C3E8D3E0FE0131966491FE0184910E94CC
:104520006D042296F3E0C53BDF07A1F783E30E9409
:104530007F0484E00E949C06CADFDF91CF9108953A
:10454000843379F4C1E5D3E0FE0131966491FE0134
:1045500084910E946D042296F3E0C338DF07A1F72F
:10456000E5CF813319F7CFE1D3E0FE0131966491B5
:10457000FE0184910E946D042296F3E0C135DF07AD
:10458000A1F7D4CFFC01908180912A04981317C021
:10459000918180912B04981312C0928180912C04F8
:1045A00098130DC0938180912D04981308C09085B5
:1045B00080912E04981729F081E09F3F19F080E048
:1045C000089581E008959C018FEF662339F06150D2
:1045D000F901E60FF11D90818927F7CF0895DC01DD
:1045E000FC018FE09DE170E09F012A1B3B0B261729
:1045F000370704F52191492F552742279A01329513
:1046000022952F7023273F70232724273527582FE3
:10461000442742275327C901982F88279295907FD6
:104620008427952745E0220F331F4A95E1F782271B
:104630009327DACF0895A0E0B0E0E1E2F3E20C9432
:10464000812D8C01D62E2C9A80912504893339F442
:1046500064E182E10E946D046D2D660F6D5E86E05F
:104660000E946D040E94DE042E988FE70E94F503DD
:1046700080912504893321F0F02EC02FD12F4FC017
:10468000CFE086E60E94F503C150D9F78AEA0E947E
:10469000F50385E50E94F503D02F78018E2D8D1B43
:1046A0008D15B0F5F701C1917F01C7FD02C080E40F
:1046B00001C080E8C6FD02C090E101C090E2890F10
:1046C000C5FD02C094E001C098E0980FC4FD02C08F
:1046D00081E001C082E0890F0E94F503C3FD02C0A2
:1046E00080E401C080E8C2FD02C090E101C090E218
:1046F000890FC1FD02C094E001C098E0980FC0FD91
:1047000002C081E001C082E0890F0E94F503C6CF9C
:1047100080E00E94F50380E00E94F50309C08C2F21
:104720008F198D1528F4899180950E94F503F7CF94
:104730002E9A85E30E9466048331D9F36FEF86E0F9
:104740000E946D0480912504893321F46EE182E199
:104750000E946D04BCDE2C98F801858186FF2CC078
:104760008091320390913303A0913403B0913503CB
:104770000696A11DB11D8093260490932704A09353
:104780002804B0932904809190028F5F8093900257
:10479000823060F08AE70E94A50682E70E94A506A3
:1047A000809190020E9448070E94D006809190025A
:1047B000833010F010929002CDB7DEB7E7E00C9492
:1047C0009D2DA8EAB0E0E7EEF3E20C94792D8091FC
:1047D0009102882309F421C1809190028823D9F0A5
:1047E000409132035091330360913403709135034B
:1047F0008091260490912704A0912804B091290467
:1048000084179507A607B70730F4609124048CE756
:1048100093E011DF02C1489B00C12C9A2E988FEFC4
:104820000E94F5038E010F5F1F4F7801B02EA12E5D
:10483000902E68E0D62ED00E80E00E94F503F7019E
:10484000808390912504993311F080958083FFEF48
:10485000EF1AFF0ADE10F0CF2E9AF88487EF8F0D43
:10486000803A10F038DED9C06F2D86E00E946D04CA
:1048700080912504813339F0843349F058E9C52EFD
:1048800053E0D52E07C04AE5C42ED12C03C03CED21
:10489000C32ED12C90EA592E28E0E22E6F2C712CD9
:1048A000C6010E9497068BE30E946604882E882327
:1048B00029F190E08E0D911D681679069CF22E98D4
:1048C0008FEF0E94F5038E0CE81471F080E00E94D7
:1048D000F50390912504993309F08095F801EE0DC8
:1048E000F11D8083E394F0CF2E9AEF1438F080917D
:1048F0002504CF2CD12C813301F504C05A945110DA
:10490000CFCFF5CFEFEFFFEFEC0FFD1FEC0DFD1D4F
:10491000208130E0322F2227FE01EC0DFD1D808129
:104920006901C80ED11C6EEF6F0DC80158DEEE2470
:10493000E3948C159D0561F40CC06FEF6F0DC801F9
:1049400042DEFE01EC0DFD1DEE24E39490818913FF
:10495000E12C80919102823701F5C80113DE8111AB
:104960001CC0E12C80919102823781F4EE2071F01D
:104970008E81982F9370933029F490919002911129
:104980001092900286FF02C087FF18C06FEF86E08A
:104990000E946D049CDD2C9840C0EE20B9F38AE79C
:1049A0000E94A506F80181918F010E944807802F7F
:1049B00089198F15B8F30E94D006D4CF8AE00E94DF
:1049C0009C068D81898780912E048D8383E08E8360
:1049D00080912504813351F48BE0888769E08B2D29
:1049E0009A2DFDDD9A878B876BE008C08AE0888767
:1049F00069E08B2D9A2DE7DD8A876AE08B2D9A2D51
:104A00001ADE8AE70E94A50681E60E94A50689852E
:104A10000E9448070E94D006BECFC855DF4FEFE086
:104A20000C94952DFC012181223711F02D3659F47B
:104A3000FC018281811101C084E3809325042093CD
:104A4000910249CD0895233779F41092900248EAF3
:104A50006CE773E002960E944D0780932404682F50
:104A60008CE793E0E8CD0895293681F5FC01228199
:104A7000222339F045E06AE274E002960C944D0777
:104A80000895809191020E94A506809125040E94BC
:104A9000A50680E20E94A50680912A040E9448078C
:104AA00080912B040E94480780912C040E944807A3
:104AB00080912D040E94480780E20E94A506809103
:104AC0002E040E9448070C94D0060895109291027B
:104AD00008951F93CF93DF93E898269A2E9A8EE13C
:104AE00090E00E9497062E988EE190E00E94970633
:104AF0002E9A8DE290E00E94970680E30E947F0448
:104B000084E690E00E9497062E9880E40E94F503C8
:104B1000C5EBD3E01C2F135FFE0184910E94F503C7
:104B200021961C13F9CF809106010E94F503809114
:104B300007010E94F503809108010E94F503C0E07F
:104B4000D0E0FE01EB53FC4F84910E94F5032196C7
:104B5000C931D105B1F72E9A2E988EE70E94F50340
:104B60008BE290E0EC0121960E949C070E94F503E5
:104B7000CE01E397B9F72E9A83E30E947F0481E088
:104B80000E949C0681E080933003DF91CF911F91BA
:104B90000895A0E0B0E0EEECF5E2AEC7EC0189814B
:104BA000843769F46DE071E0CE0102960E947D07C2
:104BB00040E260E080910D0190910E0112C08337B8
:104BC00009F09AC18A81823789F469E071E0CE01E7
:104BD00003960E947D0740E260E080910901909178
:104BE0000A010E94D5060E94D006FBC12C9A809132
:104BF0009402811116C080917E02882329F081E001
:104C00008093930210927E0280918002882329F083
:104C100081E080939202109280025BDF83E00E9429
:104C20009C0686E30E947F048AE30E947F048BE354
:104C30000E947F040E94DE04FE0101900020E9F73B
:104C4000EC1BFEEFFF2EFE0E10E0AAE09A2E6E0186
:104C500032E0C30ED11CB5E0EB2E88E2882E209105
:104C6000090130910A01812F012E000C990B821746
:104C7000930708F002C181E2F81214C0599A80919A
:104C80000D0190910E010E949706599880910B0199
:104C900090910C01FC019E9EC0019F9E900D1124DD
:104CA0000E949706560101E00F150CF0BCC0F501FB
:104CB00081915F01803309F048C0F1E2599AFF12F7
:104CC00020C080910B0190910C010E949706599889
:104CD00080910B0190910C010E949706599A809146
:104CE0000B0190910C010E949706599880910B013D
:104CF00090910C019C01E29EC001E39E900D112455
:104D00008EC080910D0190910E010E9497065998D6
:104D100080910D0190910E019C01220F331F820F93
:104D2000931F0E949706599A80910D0190910E0150
:104D30000E949706599880910D0190910E019C0157
:104D4000220F331F820F931F6AC0813339F531E27E
:104D5000599AF31212C080910B0190910C010E949C
:104D60009706599880910B0190910C01FC01EE9EE1
:104D7000C001EF9E900D112420C080910D019091F3
:104D80000E019C01220F331F820F931F0E94970672
:104D9000599880910D0190910E012EC0F1E2599A1F
:104DA000FF121AC080910B0190910C010E9497068E
:104DB000599880910B0190910C010E949706599A85
:104DC00080910B0190910C010E9497065998809157
:104DD0000B0190910C0123C080910D0190910E0167
:104DE0000E949706599880910D0190910E019C01A7
:104DF000220F331F820F931F0E949706599A8091AA
:104E00000D0190910E019C01220F331F820F931F01
:104E10000E949706599880910D0190910E010E9471
:104E200097060F5F41CF21E2599AF21214C0809188
:104E30000B0190910C010E949706599880910B01EB
:104E400090910C01FC018E9EC0018F9E900D11244B
:104E50000E94970610C080910D0190910E010E9452
:104E6000970659980FE180910D0190910E010E94D3
:104E700097060150C1F71F5FF2CE809194028823FC
:104E800041F080917A0381110FC086E30E947F0474
:104E900019C080919302882351F0109293020E94CE
:104EA000571A81E080937E020E94F0040BC080912B
:104EB0009202882329F0109292020E942E1C02C0B6
:104EC0000E941A122C9889E60E94A50683E70E9488
:104ED000A50611E01F150CF086CEFE01E10FF11DB5
:104EE00017FDFA958181803319F0813309F086E44A
:104EF0000E94A5061F5FEECF8237B9F480917E0233
:104F0000882329F081E08093930210927E028091A1
:104F10008002882329F081E080939202109280021F
:104F2000D8DD81E0809394025CC0863651F58A8199
:104F3000803351F480E18093060180EB8093070178
:104F400081E78093080107C043E066E071E0CE018D
:104F500002960E944D0789E60E94A50686E60E94F9
:104F6000A5068AE30E94A506809106010E944807D3
:104F7000809107010E944807809108010E9448071C
:104F800032CE883731F580919302882341F0109218
:104F900093020E94571A81E080937E0211C0809193
:104FA0009202882329F0109292020E942E1C0EC0B9
:104FB00082E090E00E94830480917A03882319F0B4
:104FC0000E94F00403C086E30E947F0410929402C2
:104FD00008C0833631F46DE071E0CE0101960E9485
:104FE0007D07CDB7DEB7ECE0A3C51F93CF93DF936A
:104FF000E898269A2E9A8EE190E00E9497062E98C5
:105000008EE190E00E9497062E9A8DE290E00E9439
:10501000970680E30E947F0484E690E00E94970652
:105020002E9880E40E94F503C7EAD6E01C2F175D96
:10503000FE0184910E94F50321961C13F9CF2E9A4C
:105040002E988EE70E94F5038BE290E0EC0121960A
:105050000E949C070E94F503CE01E397B9F72E9AB0
:1050600083E30E947F0481E00E949C0681E080939C
:1050700030038093A802DF91CF911F910895A0E0A3
:10508000B0E0E4E4F8E23BC58C0180912F04F80124
:10509000838364839DE0C92ED12C0E94DE0485E3C6
:1050A0000E946604833169F08AE996E00E94C30693
:1050B00085E30E9466040E9448070E94D00695DF9F
:1050C00047C08091320390913303A0913403B09193
:1050D00035038093300490933104A0933204B0934D
:1050E00033042E988FE70E94F5037801C0E0D0E0EA
:1050F0008AEAB82EF70180810E94F503C930D105F4
:1051000044F4F7018081B826C730D10511F4F801C5
:10511000B0862196FFEFEF1AFF0ACF30D10551F785
:105120002E9AC8EC85E30E946604833159F081E031
:10513000C81AD10809F0B1CF80912F048F5F8093F6
:105140002F0406C081E00E949C06C15059F7EFCFA2
:10515000CDB7DEB7E9E0EFC44F925F926F927F92D6
:10516000AF92BF92CF92DF92EF92FF920F931F9375
:10517000CF93DF93CDB7DEB7EB970FB6F894DEBFD2
:105180000FBECDBF8C01FC0101900020E9F73197E3
:10519000AF01481B590B7C0182E0E80EF11CBE01F7
:1051A000625D7F4FC7010E944D07D82E67E471E012
:1051B00080E191E020D7F801B1808DE88B0D82303D
:1051C00008F0D8C181E08093A60287858A3411F463
:1051D00089E501C08EE480930F01A89540903203C9
:1051E0005090330360903403709035038091320304
:1051F00090913303A0913403B09135038093300430
:1052000090933104A0933204B093330480910F0142
:10521000893509F050C08EE896E00E94C30687E702
:1052200096E00E94C306C8010E94B80682E696E096
:105230000E94C306F80101900020E9F7319740E28F
:1052400060E0CF01801B910B0E94D5068AE196E0B9
:105250000E94C306F80101900020E9F73197808190
:1052600040E260E090E00E94D50682ED95E00E9469
:10527000C30640E260E08D2D90E00E94D5068FECE1
:1052800095E00E94C30688EB95E00E94C30640E3C8
:1052900064E080913204909133040E940C0740E353
:1052A00064E080913004909131040E940C0785EBFA
:1052B00095E00E94C306F80101900020E9F7CF01B4
:1052C00041978017910709F03CC142E0BE01625D41
:1052D0007F4FC7010E944D07029709F032C185DE5A
:1052E000AEA4B801665F7F4F45E050E0CE01019665
:1052F00089D61E824AE050E060E070E0CE0101965F
:1053000059D56B017C0183E0F694E794D794C79458
:105310008A95D1F780910F018935F1F48EE995E0F6
:105320000E94C306CE0101960E94B80687E995E067
:105330000E94C30680E895E00E94C30640E364E053
:10534000C7010E940C0740E364E0C6010E940C07FD
:1053500088E795E00E94C3068FE0E5E3F1E0DE0117
:105360005F9601900D928A95E1F78FA588A388A991
:1053700089A389A98EA36A2DCE014F9680DEF3E71B
:10538000BF1609F4EEC0A7FEECC040913004509166
:105390003104609132047091330480913203909112
:1053A0003303A0913403B091350384199509A609FC
:1053B000B7098E379105A105B10548F44090320335
:1053C000509033036090340370903503A89580911A
:1053D000320390913303A0913403B0913503841BC1
:1053E000950BA60BB70BC816D906EA06FB06A8F65E
:1053F0004090320350903303609034037090350333
:1054000080910F01893509F073C081E695E00E9413
:10541000C30640E364E0C3010E940C0740E364E07C
:10542000C2010E940C0789E595E00E94C30682E450
:1054300095E00E94C30640E364E0809132049091BD
:1054400033040E940C0740E364E0809130049091A3
:1054500031040E940C078AE395E00E94C30683E2B0
:1054600095E00E94C30640E364E0C7010E940C0778
:1054700040E364E0C6010E940C078BE195E00E94C6
:10548000C30684E095E00E94C306809132039091A8
:105490003303A0913403B09135034091300450910F
:1054A00031046091320470913304841B950BA60B78
:1054B000B70B40E364E0CD010E940C0780913203FA
:1054C00090913303A0913403B091350320913004BF
:1054D00030913104821B930B40E364E00E940C077F
:1054E0008CEF94E00E94C30683EF94E00E94C30611
:1054F00067EFCE014F96C3DD4091300450913104E7
:10550000609132047091330480913203909133039F
:10551000A0913403B0913503841B950BA60BB70BF8
:105520004597A105B10580F380910F01893521F4DC
:105530008AEE94E00E94C30667EFCE014F969FDD8E
:1055400010C085EC94E00E94C30640E260E08EE06B
:1055500090E00E94D50681EA94E00E94C306109272
:10556000A8028091A702813011F40E94F0041092E9
:10557000A6024AC082E7B81241C0F8018281853490
:1055800051F41092A70286E30E947F041092A502B4
:1055900080E994E030C0833561F5F801838181337F
:1055A00011F481E003C0823321F482E08093A502EC
:1055B00002C01092A50281E08093A70216DD8DE75C
:1055C00094E00E94C3060E94F00485E30E946604F2
:1055D0008D30D1F084E694E00E94C30685E30E94FA
:1055E00066040E9448070E94D006FFDC1092A702C2
:1055F0000BC082E494E00E94C30606C08BE294E0F4
:105600000E94C3061092A802EB960FB6F894DEBF74
:105610000FBECDBFDF91CF911F910F91FF90EF9003
:10562000DF90CF90BF90AF907F906F905F904F9042
:105630000895AF92BF92CF92DF92FF920F931F9384
:10564000CF93DF93CDB7DEB760970FB6F894DEBF88
:105650000FBECDBFCE0101966C0180E1F601119223
:105660008A95E9F78091A702813009F096C0809170
:10567000A602813009F491C0489B8FC0A8958BE3A6
:105680000E946604182F1F7719838091A50282302B
:1056900059F48BE194E00E94C306812F0E944807D1
:1056A00089E094E00E94C3061F3010F08FE08983E8
:1056B0002E988FEF0E94F50310E0F12C0AEA898101
:1056C0001817E0F480E00E94F503E2E0F0E0EC0F50
:1056D000FD1FE10FF11D8083183010F4082706C06C
:1056E000183021F4081711F0FF24F3949091A502CB
:1056F000923011F40E9448071F5FE1CF2E9A8091EB
:10570000A502823021F486E094E00E94C3064AE0BC
:1057100050E065E972E0C60161D42091A502892BB1
:1057200061F08A81873049F48981893030F0F1E075
:10573000FF1619F0223019F430C0213071F583E0E2
:1057400094E00E94C30680E1F601A5E9B2E0019071
:105750000D928A95E1F76E0182E0C80ED11C5E01C0
:105760009BE0A90EB11CF60181916F010E944807D0
:10577000CA14DB04C1F78091A502813051F4F1E035
:10578000FF1207C081EE93E00E94C306802F0E94A3
:1057900048078EED93E00E94C30660960FB6F8941A
:1057A000DEBF0FBECDBFDF91CF911F910F91FF9054
:1057B000DF90CF90BF90AF90089520913A0530913F
:1057C0003B052115310521F4209130013091310143
:1057D00080912E0190912F01009741F48DB79EB7D3
:1057E0004091320150913301841B950B28173907E2
:1057F00018F4821B930B089580E090E0089582E4F2
:105800000E94A50640E265E080913A0590913B0533
:105810000E94D5060E94D00683E50E94A50640E2BC
:1058200065E080913001909131010E94D5060E947F
:10583000D00685E40E94A50640E265E080912E0135
:1058400090912F010E94D5060E94D00686E40E9406
:10585000A506B3DF40E265E00E94D5060C94D006B1
:1058600008951F920F920FB60F9211242F933F931A
:105870004F935F936F937F938F939F93AF93BF9358
:10588000EF93FF9380913604882339F084E394E00A
:105890000E94E3088093CE0005C08091C9008F7DEF
:1058A0008093C900FF91EF91BF91AF919F918F912C
:1058B0007F916F915F914F913F912F910F900FBE0C
:1058C0000F901F9018951F920F920FB60F921124F0
:1058D0002F933F934F935F936F937F938F939F93F8
:1058E000AF93BF93EF93FF9395B180E1892785B97B
:1058F0006091CE008091C800887121F487EB94E01C
:105900000E94CD08FF91EF91BF91AF919F918F9130
:105910007F916F915F914F913F912F910F900FBEAB
:105920000F901F90189597FF04C022E02093C800A5
:105930009F779093CD008093CC0088E98093C90035
:1059400086E08093CA008091C80087FF03C08091E1
:10595000CE00F9CF08958091C90085FD09C08091DE
:105960003604882329F08091C90080628093C900A1
:105970000895E0912E03F0912F0381E00995EBCF7C
:1059800008950F931F93CF93DF938C01D0E02D2FB9
:1059900030E0F901EE0FFF1F2E0F3F1FF901E45514
:1059A000FF4FC49123553F4FF90145915491CC23AA
:1059B000A9F00115110539F480E20E94A5068C2F8B
:1059C0000E94A50609C0F80180818C1305C0C8019A
:1059D000FA01099581E003C0DF5FD9CF80E0DF9154
:1059E000CF911F910F910895CF93C0914D01809356
:1059F0004D018091B904882309F43DC087EB94E000
:105A00000E94E3082091A9023091AA028A3011F085
:105A10008D3011F52115310561F3F901E555FD4F83
:105A200010828BEA92E0ADDF811111C088EE96E022
:105A30000E94C3068BEA92E00E94B80680ED96E0D1
:105A40000E94C30680E090E09CDF0E94D006109286
:105A5000AA021092A902CDCF2038310550F6A90133
:105A60004F5F5F4F5093AA024093A902F901E55599
:105A7000FD4F8083BECFC0934D01CF910895E4E6E2
:105A8000F0E080818B7F8083299A84B1866484B919
:105A9000239880E58CBD8DB581608DBD0895AA1BCE
:105AA000BB1B51E107C0AA1FBB1FA617B70710F009
:105AB000A61BB70B881F991F5A95A9F7809590953B
:105AC000BC01CD01089597FB072E16F4009406D073
:105AD00077FD08D0E4DF07FC05D03EF49095819572
