:1000000075C300000C9482178DC300008BC30000E1
:1000100089C3000087C3000085C3000083C30000BC
:1000200081C300007FC300007DC300007BC30000CC
:1000300079C3000077C3000075C3000073C30000DC
:1000400071C300000C9421176DC300006BC3000046
:1000500069C3000087C5000065C3000063C30000DA
:1000600061C300000C94422C0C94102C5BC3000064
:1000700059C3000057C3000055C3000053C300001C
:1000800051C300004FC300004DC300004BC300002C
:1000900049C3000047C3000045C3000043C300003C
:1000A00041C300003FC300003DC3000041F31B42B9
:1000B000410843FA0445741F656808460A0F669DA7
:1000C00021470E0F686E1069A8254BB80F6B8B285F
:1000D0006C2F084D4C0F6DDE2B52B00754C80974BD
:1000E0001206553A1056A00857F00758051278C165
:1000F0000459821F5A741E7AF12400000000000087
:10010000202F2000203D2000072E050DD391FF0851
:100110000500000C0021656A2D3B1322F862073FA1
:10012000181D1CC700B0876BF8B611EA2A001F41E2
:10013000000D2E2D07D3913D0432000006002165ED
:100140006A55E43023B900070018146C0700908743
:100150006BF85611E92A001F410000030F1E2627E5
:10016000000000030F1E2536386700030F25674087
:10017000605000030F275188838100030F2750C868
:10018000C3C200270000000000000067000000005C
:10019000000000500000000000000081000000008E
:1001A000000000C2000000000000504C4C310D0A5D
:1001B00000504C4C300D0A005620312E3637206E40
:1001C000616E6F43554C383638005620312E363725
:1001D000206E616E6F43554C34333300202F200066
:1001E000203D20004E2F4100454F420D0A004E2F6A
:1001F00041004E2F410000535300547D7DFFFF4BC3
:100200004B7E7E004C4F56460D0A00424F56460D1F
:100210000A004552523A4343410D0A000B08105B55
:1002200011F81547191D1A1C1BC71C001DB221B659
:1002300023EA0007022E030D04E905CA070C0B068A
:100240000D210E650F6A10C8119312031534173370
:10025000181819161B4321562500261129592C81DF
:100260002D353EC34C454E4552520D0A004C4F565B
:10027000460D0A004C454E4552520D0A0000070239
:100280004604C605260B0610C81193120313221547
:1002900034173F182819161B432156250026110D27
:1002A000210E650F6A070C160720F81E871F6B29A1
:1002B000592C812D353EC3FF0000070246030D0473
:1002C0009A057D0642070C0B060D210E650F6A107C
:1002D000C81193120315341700181819161B431C64
:1002E0006825002611FF000000000000000000004B
:1002F00000000000000D2E2D07D3913D04320000B8
:10030000060010ABA5550A3023B900070018146C7D
:10031000070090876BF85611E92A001F4100000181
:10032000022E030104AA050F06FF070008000B06B2
:100330000D210E740FAD104B11F8121613721541EA
:10034000181819161B0323E9242A2500261F3E50DE
:100350000001022E030104AA050F06FF0700080092
:100360000B060D210E660F6610CA1193120613526A
:100370001535181819161B0323E9242A2500261FF2
:100380003E500001022E0301045505F006FF070050
:1003900008000B060D210E660F9910591183121ECD
:1003A00013521535181819161B0323E9242A2500A2
:1003B000261F3E500D2E2D07D3913D04320000061E
:1003C0000010B07155E43023B900070018146C0711
:1003D0000090876BF85611E92A001F41000D0A00B2
:1003E00020436865636B73756D204572726F722C64
:1003F0002043616C63756C6174656420436B733A70
:1004000020006B72000D0A0020205265636569763A
:10041000656420446174613A2000427974657320F8
:10042000696E204669666F3A20004B6F70702043FA
:100430006F6D6D616E6420556E6B6E6F776E0D0A19
:10044000004B6F7070205265636569766520537547
:1004500062436F6D6D616E6420556E6B6E6F776E6B
:100460000D0A0052585F494E49545F4552525F4D44
:1004700041524353544154455F5258006B72532DBF
:100480005265636569766553746172740D0A006B19
:1004900072452D52656365697665456E640D0A0087
:1004A000204279746573206F72204B6579636F64A5
:1004B00065206973206E6F206865782076616C75A1
:1004C000650D0A004B6F7070205472616E736D6918
:1004D000747420436F6D6D616E64206E6F7420655F
:1004E0007175616C20746F2000426C6F636B330D0B
:1004F0000A00426C6F636B320D0A005B6865785DC1
:100500000D0A007469636B732D426C6F636B5374D7
:1005100061727454696D653A20005B6865785D0DA1
:100520000A004B65794F666654696D653A20202054
:100530002020202020202020005B6865785D0D0AA7
:1005400000426C6F636B2053746172742054696D48
:10055000653A2020202020005B6865785D0D0A0048
:100560005469636B2054696D65723A202020202005
:10057000202020202020005B6865785D0D0A004B5C
:1005800065794F666654696D6520696E207469638C
:100590006B733A2020006D7365630D0A004B65791B
:1005A0004F666654696D653A202020202020202067
:1005B000202020000D0A005469636B2054696D658A
:1005C000723A2020202020202020202020000D0A08
:1005D000000D0A416D6F756E74206F66204279744C
:1005E000657320284865782920666F756E642069D8
:1005F0006E7369646520636F6D6D616E64206C69F4
:100600006E6520706172616D657465723A2020209C
:100610002020202020202020000D0A4E6578742004
:100620004368617261637465722028696E74292061
:10063000616674657220706172616D6574657220A7
:100640002873686F756C64206265206C696E652024
:10065000656E6420636861726163746572293A2013
:10066000000D0A537472696E676C656E6774683A40
:10067000202020202000636F6D6D616E646C696EB8
:1006800065706172616D657465723A2000547261C3
:100690006E736D6974740D0A0054585F494E495465
:1006A0005F4552525F00012E4604AA540FE000003D
:1006B00000060021656A97831663B947070C29363F
:1006C0006C074091876BF85611E92A001F41002002
:1006D000697320756E6B6E6F776E29205573652078
:1006E0006F6E65206F66003F2028000011241FBE3A
:1006F000CFEFDAE0DEBFCDBF11E0A0E0B1E0ECE982
:10070000F0E602C005900D92AA34B107D9F725E0B2
:10071000AAE4B1E001C01D92AF33B207E1F703D004
:100720000C944C306DCCC0EBD4E084E6FFD2219722
:10073000E1F70FB6F894A8958091600088618093E6
:100740006000109260000FBEC1E080E80FB6F89420
:1007500080936100C09361000FBE249A2C9A0E947E
:10076000172DDBD489EF87BD84E085BD82E084BD91
:1007700080936E00109280008AE08093810084B79D
:10078000877F84BF9FE088E10FB6F894A895809397
:1007900060000FBE909360008CE090E00E94722C8D
:1007A000B2D50E94E6118CEC9CE290932E038093CC
:1007B0002D03C0934D012C9878940E94912C0E9497
:1007C0005A1446D20E94E2210E94831A0E94FC1D04
:1007D0000E94F11E0E94F82A0E94C023EECF8EBD17
:1007E0000DB407FEFDCF8EB50895EF92FF920F93E3
:1007F0001F93CF93C82F8A3008F0C8E028E0C29F2B
:10080000800111248BE290E00B521109FC01E00FF2
:10081000F11FE65AFE4F64917C012FEFE21AF20AB3
:1008200080D3C7018333910589F7C550C53010F0D7
:1008300067E101C061E184E290E073D3CF911F9141
:100840000F91FF90EF900895CF93DF9382E090E0B7
:10085000FC01E15DFE4F6491EC01219662D3CE0173
:10086000AB97B1F787E390E0FC01EF52FF4F649143
:10087000EC01219656D3CE01C036D105A9F780915F
:10088000340180FD18C060E18FE090E04AD360EB56
:1008900080E190E046D361E781E190E042D360E1FE
:1008A00084E490E03ED360EB85E490E03AD361E7E6
:1008B00086E490E036D388E098DFDF91CF91089509
:1008C0002E98806C8CDF80E08ADF2E9A0895A1E05C
:1008D000B0E0EDE6F4E00C945E2D2E988064698320
:1008E0007EDF6981862F7BDF2E9A2196E2E00C94D1
:1008F0007A2D2E9874DF2E9A0895EF92FF920F931F
:100900001F93CF93DF93EC0110927F02E898269A11
:100910002E9A8EE190E005D22E988EE190E001D2E1
:100920002E9A8DE290E0FDD180E3E3DF84E690E053
:10093000F8D12E9880E453DF8E01075D1F4F7E01B2
:100940008FEFE81AF80ACE01F1D249DFE701E0168D
:10095000F106A9F72E9A2E988EE741DF8BE290E000
:10096000EC012196E3D23BDFCE01E397C9F72E9A43
:1009700083E3BFDF81E0DAD1CDB7DEB7E6E00C94E8
:10098000762DA1E0B0E0E7ECF4E00C945E2D22E0DF
:10099000298341E0BE016F5F7F4F019678D2898144
:1009A00024DF82E090E0A9DF2196E2E00C947A2D2A
:1009B000CF93E89886E39DDFCFEF85E39ADFC150C0
:1009C0008077803229F08AE090E0ABD1C111F5CF79
:1009D000CF910895CF93CFEF84E38BDFC150807721
:1009E000803129F08AE090E09CD1C111F5CFE89ADE
:1009F000CF910895A2E0B0E0E0E0F5E00C945C2D2A
:100A00008C01FC0181818737E9F441E0BE016F5F11
:100A10007F4FC80102963BD2892BA1F041E0BE0175
:100A20006E5F7F4FC801049632D2892B59F06A81DC
:100A300089814DDF83E35DDFCDDF898123D28A8128
:100A400021D22CC041E0BE016E5F7F4FC8010196EC
:100A50001ED2892B21F18A81893969F410E0812F16
:100A60002FDF10D2812F8770873009F493D11F5F59
:100A70001033A9F714C024DF182F83E460D18A81D2
:100A800001D284E091E079D1812FFCD180E091E026
:100A900074D140E262E0812F90E081D17BD1229637
:100AA000E4E00C94782D86E324DF10922F0310925B
:100AB0007D0210927F02089582E090E01EDF81E0C7
:100AC00080932F0310927D0210927F0208950F935E
:100AD0001F93CF93DF93D82FC0E0062F10E085E35C
:100AE000EFDE8D1731F0C8011CD1C150C1F781E094
:100AF00001C080E0DF91CF911F910F91089585E2B1
:100B0000DFDE8F3311F080E0089586E3F2DE80911E
:100B10004A01811104C081EB91E02FD102C08DE325
:100B2000E8DE83E3E6DE64E081E0D1DF85E2C8DE73
:100B30008F3349F780914A01811103C08AEA91E01D
:100B40001CD181E0089585E3BBDE8D3051F485E250
:100B5000B7DE8F3331F4D3DF84E3CBDE80778031AF
:100B6000D9F708951F920F920FB60F9211248F9309
:100B70009F93AF93BF93EF93FF9380913103909135
:100B80003203A0913303B09134030196A11DB11D2E
:100B90008093310390933203A0933303B0933403D3
:100BA000809130038F5F80933003E8E3F3E080812E
:100BB0009181181619061CF401979183808336964B
:100BC00083E0E035F80799F7809152039091530341
:100BD000009729F0019790935303809352038091DB
:100BE00065038F3F19F0815080936503FF91EF916A
:100BF000BF91AF919F918F910F900FBE0F901F905B
:100C00001895FC019FB7F89440913103509132033D
:100C10006091330370913403408351836283738303
:100C20009FBF0895A4E0B0E0E8E1F6E00C945E2DEB
:100C3000CE010196E6DF8C8125D18B8123D18A817B
:100C400021D189811FD1A6D02496E2E00C947A2D7F
:100C50000F931F93CF938091310390913203A09112
:100C60003303B091340320914C01281709F455C087
:100C70008091310390913203A0913303B0913403FA
:100C800080934C01A89508E313E0C0E0F80180814F
:100C90009181892B11F48C2F9CD5CF5F0A5F1F4F58
:100CA000C430A1F78091520390915303892B09F42A
:100CB000EBD580916503811101C044D6809130034A
:100CC0008D3758F1109230038091000181FF04C0EC
:100CD00095B180E1892785B980917603909177035A
:100CE0008031FEE09F0728F401969093770380936C
:100CF000760380914B018F5F8C3319F080934B0109
:100D00000CC010924B01809137038F5F8C3318F425
:100D10008093370302C010923703CF911F910F9138
:100D20000895880F991F0197F1F7089520ED37E096
:100D3000815020F0F9013197F1F7FACF08959091A1
:100D40004D0190FF0EC0909135049E3730F097FD15
:100D500008C08D3011F08A3021F4682F83E394E0CD
:100D6000FBC10895CF93DF93EC018991882311F0A3
:100D7000E6DFFBCFDF91CF910895CF93DF93EC01B6
:100D8000FE018491882319F0DADF2196F9CFDF91F3
:100D9000CF9108958DE0D3DF8AE0D1CF0895A6E00A
:100DA000B0E0E5EDF6E00C945C2D362F1E8225E0D8
:100DB000EAE0F0E0215001E010E00C0F1D1F020FEF
:100DC000111DBF010E94272D805DD8018C93CB019E
:100DD0003150009769F02111EDCF0AC0222359F05C
:100DE0002150E1E0F0E0EC0FFD1FE20FF11D408328
:100DF000315037FFF3CF81E090E08C0F9D1F820FC1
:100E0000911DB0DF2696E4E00C94782DA5E0B0E0CB
:100E1000ECE0F7E00C945C2DFC011D8294E02E2F99
:100E20002F709150A92FB0E02A3010F4205D01C03E
:100E3000295C01E010E00C0F1D1FA00FB11F2C93C7
:100E400084E0F695E7958A95E1F76150309739F798
:100E5000615067FD0BC0992349F09150E1E0F0E04B
:100E6000EC0FFD1FE90FF11D4083F2CF21E030E0D0
:100E70002C0F3D1F290F311DC90174DF2596E4E0B9
:100E80000C94782D40E362E090E0C0CF0895DC013F
:100E9000FB0130E020E09D919923B1F0913608F0FC
:100EA000905280ED890F8A3010F4982F05C08FEB97
:100EB000890F863028F49753922B332389F006C08C
:100EC000903249F39A3339F3CF0107C09F012F5F66
:100ED0003F4F9083415049F4C901861B970B0895F9
:100EE000292F2295207F31E0D6CFF901D2CFFC0106
:100EF00020E030E08AE09191992379F040ED490FAC
:100F00004A30C8F7829FA001839F500D11249A0197
:100F100020533109290F311DEECFFB01318320838E
:100F200008950E94F42FF999FECF08950C94EC2FA8
:100F300008950F931F93CF93CFEFC60FCF3F61F06C
:100F40008C010F5F1F4FF2DF9DDFCC2311F08AE38E
:100F5000F6DEC150C801F2CFCF911F910F910895D5
:100F6000A2E0B0E0E6EBF7E00C945B2DFC01218100
:100F70002D3421F466E08AEF93E005C0203529F492
:100F800060E18AED93E0D5DF26C01A82198242E043
:100F9000BE016F5F7F4F01967ADF098110E08230DA
:100FA00021F4102F00278A81082BC801BFDFF82EFB
:100FB00082E5C5DE40E364E0C80128DF80EE91E011
:100FC000DCDE8F2D5FDF8CED91E0D7DE40E262E06A
:100FD0008F2D90E0E4DEDEDE2296E5E00C94772DA6
:100FE000A6E0B0E0E6EFF7E00C94582D8C0143E06A
:100FF000BE016F5F7F4F01964ADF7C01823058F15E
:10100000C980D12C823021F0DC2CCC248A81C82AE2
:10101000FF24FE01EE0DFF1D6081C60182DFEE0C94
:10102000FF1C8FEFE81AF80A0E0D1F1DF8018081D2
:10103000882389F041E0BE016F5F7F4FC80127DF41
:10104000892B49F0EFEFCE1ADE0A6981C60169DF0C
:101050000E5F1F4FEBCF2696E8E00C94742D41E015
:1010600060E071E0019613DF8091000180FF02C013
:101070002C9A01C02C986091000184E390E051CF3C
:101080000895A1E0B0E0E7E4F8E00C945E2D198249
:10109000009731F041E0BE016F5F7F4F0196F7DEB0
:1010A00089818F3F09F4FFCF882321F061E083E33A
:1010B00090E037DF10926E00F89498E088E10FB668
:1010C000F894A895809360000FBE90936000FFCFC6
:1010D000CF93DF93EC0161E080E090E022DF63E4F6
:1010E00081E090E01EDFB0DB60E080E690E019DF99
:1010F00060E081E690E015DF60E083E390E011DFDF
:1011000062E084E390E00DDF8981883719F080E0A8
:1011100090E0B7DFDF91CF91089580E090E006DFA7
:10112000813029F481E090E001DF833419F080E020
:1011300090E0CEDF84E390E0F9DE80930001089533
:101140008091340180FD03C08AEC91E002C088EBFD
:1011500091E013DE1FCE0895FC019FB7F8948281C1
:1011600087FD0EC08F5F8283208181E0820F8083A4
:10117000DF01A20FB11D13966C93803809F4108221
:101180009FBF0895FC012FB7F8948281811102C09E
:101190002FBF08959FEF980F9283918181E0890F6F
:1011A0008183DF01A90FB11D13969C91803809F44A
:1011B00011822FBF892F08951092500310920A02B6
:1011C00083E0809354018FEF809365030895E5E5F4
:1011D000F1E02081211105C0892BB1F080E090E081
:1011E0000895B2E0E330FB07B8F7009751F0418172
:1011F000DC013C91431305C0428111963C91431799
:1012000051F0E20FF11DE5CF32E0E330F30719F0C2
:1012100010F0E3E0F2E0CF01089524E0829FC001E6
:101220001124FC01EA59FC4F80818F3F89F08093A3
:101230004F0181818093500182818093510183818C
:101240008093520121E04CE064E08FE491E05AC5C4
:10125000089584E092E0BBDF009799F0209154015B
:10126000FC013081231768F4E20FF11D8081809327
:10127000060289E78093070281818093080281E05A
:10128000089580E008950F931F93CF93DF932091EB
:10129000790326FF12C08C0184E551DDE8010B5F64
:1012A0001F4F8991EFDDC017D107D9F780917903DE
:1012B00085FF02C08AEFE6DD6DDDDF91CF911F91E2
:1012C0000F91089586E315DB80910602833511F0B6
:1012D0008BE401C08BE92ADD21E04CE065E084E08D
:1012E00092E010D577DB84E092E0CDCF0895EADF7D
:1012F00080910602893631F081E08093030289E211
:10130000809365030895CF9385E390E00FDE80938B
:10131000360386E390E00ADE80936403E4E5F3E0BD
:10132000CFEFC083C283C483C683C087C287C4870C
:10133000C68742DF1092550181E080933503A6E60F
:10134000B3E0CC93E8E3F3E08FEF9FEF91838083EA
:1013500013821282158214821496CC931497978369
:10136000868311861086138612861896CC9318975A
:101370009587848717861686118A108A1C96CC93C7
:10138000938B828B158A148A178A168ACF910895B7
:10139000AF92BF92CF92DF92FF920F931F93CF93A2
:1013A000DF93CDB7DEB72C970FB6F894DEBF0FBE34
:1013B000CDBF8C015C013FEFA31AB30A45E0BE012B
:1013C0006F5F7F4FC50163DD843008F0D7C099811E
:1013D000913091F4833051F46A8185E390E0A1DD8E
:1013E0006B8186E390E09DDD8EDFE3C18091360363
:1013F00049DD809164038BC0923009F04EC081308A
:1014000049F091E080E02A81213009F090E0C92E76
:10141000D82E03C0CC24C394D12C809155018111C6
:1014200003C084EE91E0A9DC05E511E0F8018081BC
:10143000882309F4A1C0F2E003301F0708F09CC024
:1014400081E00535180711F080E279DCF80181812F
:1014500019DDF801828116DDC114D104C9F08AE3D7
:101460006EDC93E0F8018081981790F4943030F0AE
:1014700090FF04C08CE29C8762DC9C85FF24F3947F
:10148000F90EF801E90FF11D8081FCDC9F2DEACFF8
:10149000F8018081080F111DC9CF933049F480E015
:1014A00090E095DE855591409EEA981B892F2FC0CC
:1014B000903111F504E513E0D12CF12CF801808175
:1014C0008F3F79F0FF2011F080E239DC8D2DDADCDE
:1014D0008AE335DCF8018081D5DCF8018181D2DC3A
:1014E000F3940E5F1F4FD394F8E0DF12E7CFF110B3
:1014F00043C082EF91E03FC0913159F48091520393
:10150000909153036DE770E00E94272D862FBADC7F
:1015100033C0923189F516E6A12E13E0B12E09E60B
:1015200013E0D12CF12CF50180818F3FB9F0FF2021
:1015300011F080E204DC8D2DA5DC8AE300DCF501EE
:101540008081A0DCF801329780819CDCF801319722
:10155000808198DCF801808195DCF394F4E0AF0E93
:10156000B11CD3940C5F1F4F34E0D312DCCFF110C9
:1015700003C08EEE91E001DC0DDC1BC144E0BE0136
:10158000695F7F4FC50183DC4F81493608F474C021
:101590007A855885698520E030E080E090E07C30F5
:1015A00009F051C0F901EA59FC4F708174131CC055
:1015B000A181A51319C0A281A61316C02CE0238314
:1015C0009C01220F331F820F931FFC01EE0FFF1FA0
:1015D000E85CFC4F11821082880F991FFC01E65CC9
:1015E000FC4F11821082CBC07F3FD9F440835183DE
:1015F00062832CE023839C01220F331F820F931FF1
:10160000FC01EE0FFF1FE85CFC4F11821082880F77
:10161000991FFC01E65CFC4F118210821092350389
:10162000AEC001962C5F3F4F2031310509F0BACF93
:10163000C0C0A181A51771F001962C5F3F4F2031EA
:10164000310509F4B6C0F901EA59FC4FA081A41391
:10165000F3CFEFCFA281A613EFCF7383FC01EE0F80
:10166000FF1FE80FF91FEE0FFF1FE65CFC4F81E044
:1016700090E0918380839DC0E98180913603E817D3
:10168000B8F190E0F0E09C01295F3F4F2E173F0733
:101690007CF13A812091640332132AC03C813F32AD
:1016A00029F442E06CE0C8019CD383C02D813C3218
:1016B000B1F42093510381E090E090935303809321
:1016C00052038091760390917703E4E02E9F800D82
:1016D000911D112490937703809376036AC0E81BD1
:1016E000F90BEE0FF0E0EC5AFC4F3083218361C020
:1016F00080E090E06CDD6C01F50101900020E9F7DD
:101700003197EA19FB09F695E795FF24F394FE0E4D
:10171000C6018F0D911D855591408F3A91050CF0B2
:1017200045C0F601F1925F0121E0822F880F8150C0
:101730002F15D8F441E0B501F801E80FF11DCF01F4
:101740002C87A5DB2C85233058F020FD09C0F5013E
:1017500031978081843621F4F501808180933703AD
:101760002F5FFFEFAF1ABF0AE0CF33E0C31632E0BE
:10177000D306F8F4F601E20FF11D10821AC022E040
:101780004CE064E0CE010796BDD28FE08A8722E06C
:101790004CE064E0CE010796B5D282E08A8722E071
:1017A0004CE064E0CE010796ADD203C088EE91E034
:1017B000E4DA2C960FB6F894DEBF0FBECDBFDF91F2
:1017C000CF911F910F91FF90DF90CF90BF90AF907E
:1017D00008950F931F93CF93DF9390913503911149
:1017E0004EC093E0899FE0011124FE01EE0FFF1F20
:1017F000E85CFC4F94E0899FD0011124AA59BC4FAA
:1018000012969C91977040E850E0491B51099AEF5D
:10181000949F9001959F300D11243595279535950E
:101820002795318320838E01000F111F045C1C4F0C
:10183000F801208131812F5F3F4F31832083CC0F0E
:10184000DD1FC65CDC4F488159814115510529F4E3
:1018500024303105A1F4E1DC0FC04130510531F4F1
:10186000DCDC82E090E09983888309C04230510536
:1018700031F4D3DC19821882F80111821082DF91D1
:10188000CF911F910F910895A6E0B0E0EAE4FCE04B
:101890000C945A2D809164038A831B82909151038A
:1018A000992341F0933019F08DE790E010C087E75D
:1018B00091E00DC0877090E08A519F4F4DE7489F9F
:1018C0009001499F300D1124C901959587959093FA
:1018D00053038093520384E5E82E83E0F82E10E052
:1018E0000CE2F70190819F3FB9F080913603810FA0
:1018F000898380915103882311F00C8303C09C835A
:10190000F70181818D8321E04CE065E0CE010196F5
:10191000F9D1CE010196B7DC1F5FF2E0EF0EF11CAA
:101920001830F9F680915103882341F0833019F47F
:101930001092510303C08250809351032696E6E033
:101940000C94762D80910302882351F0BBDC89E250
:101950008093650380910302815080930302089570
:101960002BCC0895FF920F931F93CF93DF93FC012D
:10197000F0800181C281D38114818FE5809365035A
:101980001092030280913603811105C08091640397
:10199000882309F4A9C0809104028F1104C08091AA
:1019A0000502801729F008DCF0920402009305027A
:1019B000809150038F3F09F497C0C0930602D093E3
:1019C000070210930802CC23F1F081111CC0809112
:1019D0003603181761F0143651F08DEA8C0F8230FF
:1019E00010F0CD3739F48FEF809350037DC0C435AC
:1019F00009F47AC08D2F807F803609F075C0D067DA
:101A0000D093070257C025DC811105C08091500397
:101A1000882309F469C080910A02811107C0E0910E
:101A20005003F0E0EA50FE4FE49101C0E82FE335A7
:101A300041F4C43531F4909150039E5F909350036C
:101A400004C0EC1711F0B8DB4FC0882369F0809117
:101A500054018E5F80935401FCDB81110EC0809194
:101A600050038E5F8093500380915003E82FF0E085
:101A7000E950FE4FC491CF3F59F480910602809304
:101A80000A028436B9F4809137038093080212C0A9
:101A9000C093060297E790930702909136039093C4
:101AA00008028E5F8093500310920A028E3021F05C
:101AB000CC23D1F01CDC18C084E092E088DBFC0170
:101AC000892B81F0808190E023E032E0281B390BE4
:101AD000E217F30730F4DF01A80FB91F4C914193CF
:101AE000F7CF108269DBE4CFCDB7DEB7E5E00C9429
:101AF000772DFA019081882369F0DB01A90FB11DD0
:101B0000E1E0F0E0022E01C0EE0F0A94EAF78C91BA
:101B1000E82BEC93222319F08FEF820F0BC081E0AA
:101B2000890F8C3010F4FA018083FB01E80FF11D5E
:101B3000108287E090E00895CF93C82F599A8823A8
:101B400019F090910C0202C090910E0220E1929F38
:101B5000C0011124E6D85998CC2319F080910B02CA
:101B600002C080910D0220E1829FC0011124D9D8CA
:101B7000CF910895AAE0B0E0E0ECFDE00C944E2D8A
:101B80004C01D62E422E1E2DE42EF12C20917603F0
:101B9000309177038C2D8A0DA7014E5F5F4F049F14
:101BA000800D1124082E000C990B2817390720F4FA
:101BB00084E092E0E2D8A2C0281B390B309377036F
:101BC000209376032C9A80917F02882341F0109213
:101BD0007F0284E491E019D4BB24B39401C0B12CFA
:101BE00080912F03811102C00E945C050E94D804DD
:101BF00040E1C49E900111243A83298340E1A49ED0
:101C0000900111243C832B832D2D30E03E832D83C6
:101C100066246394712C512CC11002C0AA2041F09B
:101C2000599A89819A817DD859988B819C8179D8DC
:101C3000312C832D032C000C990B4D815E81841770
:101C4000950724F480E078DF3394F3CFDD2011F0A2
:101C500081E072DF90E0292F092E000C330B2E1546
:101C60003F05F4F447E0242E312CA901480D591DFD
:101C7000598748879301022C01C0220F0A94EAF782
:101C8000E885F985808182239F8356DFF1E02F1A52
:101C900031089F812FEF2216320661F79F5FDBCF5D
:101CA00087E0382E280D391D832D032C000C990B4D
:101CB0004816590684F4C301032C01C0880F0A9406
:101CC000EAF7F901908189232F833A8735DF3A9427
:101CD0003A852F81E9CF812F29D8015009F09CCF77
:101CE00080917903882319F00E94EA0403C086E3F7
:101CF0000E947904B1100E940D1C2C982A96E2E1F2
:101D00000C946A2DADE0B0E0E8E8FEE00C94532DB1
:101D10007C01162F842F022F6701C60ED11C462F7F
:101D2000B7018ED3F601808377247394710E1D86DC
:101D3000198227E010E0CC24C394D12C97E0A92E7F
:101D4000B12C4701810E911C171560F5C6010A2CB4
:101D500001C0880F0A94EAF7F4019081AE01435F55
:101D60005F4FBE016F5F7F4F8923C3DE282FF1E0F5
:101D7000AF1AB10848F7F4019081092E9295902589
:101D8000092E9695969590259F5F91FB882780F95F
:101D9000AE01435F5F4FBE016F5F7F4FAADE282F0A
:101DA0001F5FCCCF222311F0215004C08D858F5F9F
:101DB0008D8727E089E180930D0280930E0285E2F2
:101DC00080930B0280930C02A12CC12C8AE0E82E98
:101DD0004D856CE0CE010196CDDE2D96EDE00C94A4
:101DE0006F2DADE0B0E0E7EFFEE00C945D2D162F17
:101DF000242F4BE0BE016F5F7F4F01962D8747D8A0
:101E00002D85412F682FCE0101967CDF2D96E3E0D2
:101E10000C94792D43E066E0E4CF0895AF92CF9221
:101E2000EF920F93CF93DF93CDB7DEB760970FB6E6
:101E3000F894DEBF0FBECDBF40E1BE016F5F7F4FA4
:101E4000019625D869814A810B818C8180930E028D
:101E50008D8180930D028E8180930C028F818093FF
:101E60000B02E02EE2948FE0E8220F70242F2F70F7
:101E700042954F70A12CC12CCE0108967BDE609656
:101E80000FB6F894DEBF0FBECDBFDF91CF910F919B
:101E9000EF90CF90AF900895A9E1B0E0E2E5FFE0C8
:101EA0000C94542D4BE08E010F5F1F4FB80101962B
:101EB0000E944707F82E89E0F81256C099E19093E6
:101EC0000D0290930E0290930C0282E380930B021A
:101ED00069E0C801BFD2F801EF0DF11D8083198EB2
:101EE0001D86780127E088248394912CC12CD12C65
:101EF000BE2CB01AF9E0FB1528F1C4010C2C01C06E
:101F0000880F0A94EAF7F7019081AE01475E5F4FB0
:101F1000BE01635F7F4F8923ECDD282FFFEFCF1ACF
:101F2000DF0A88E0C816D10429F7AE01475E5F4F8B
:101F3000BE01635F7F4F81E0DCDD282FEFEFEE1AFB
:101F4000FE0AD4CF222311F0215004C0898D8F5F67
:101F5000898F27E0A12CC12C8AE0E82E03E0498D6F
:101F60006CE0CE010D9606DE6996ECE00C94702DC7
:101F7000A9E1B0E0EEEBFFE00C94542D4BE09E01A4
:101F80002F5F3F4F6901B90101960E944707182F43
:101F900085E380930E0296E190930D0290930C02DC
:101FA00080930B02612FC60161D2F601E10FF11D92
:101FB0008083FF24F394F10E198E1D86560127E0CD
:101FC00088248394912C8A2D8C198F1508F044C095
:101FD00000E010E0C401002E01C0880F0A94EAF767
:101FE000F5019081AE01475E5F4FBE01635F7F4F99
:101FF00089237FDD282F0F5F1F4F0430110551F714
:10200000AE01475E5F4FBE01635F7F4F81E071DDD0
:10201000282FC401002E01C0880F0A94EAF7F501A9
:102020009081AE01475E5F4FBE01635F7F4F8923A2
:1020300060DD282F0F5F1F4F0830110551F7AE01EB
:10204000475E5F4FBE01635F7F4F81E052DD282F07
:10205000FFEFAF1ABF0AB7CFA12CC12C8AE0E82E40
:1020600003E0498D6AE0CE010D9684DD6996ECE0CF
:102070000C94702DAF92CF92EF920F93CF93DF938A
:1020800000D000D0CDB7DEB743E0BE016F5F7F4F19
:1020900001960E9447078AE680930E0294E290938D
:1020A0000D0291E290930C0280930B0280E88C83E6
:1020B000A12CC12C8FE0E82E03E026E043E060E095
:1020C000CE01019657DD0F900F900F900F90DF918A
:1020D000CF910F91EF90CF90AF900895AF92CF92A4
:1020E000EF920F93CF93DF93CDB7DEB72C970FB658
:1020F000F894DEBF0FBECDBF4BE0BE016F5F7F4FD8
:1021000002960E9447078530C1F48EE380930E0249
:102110008CE180930D0281E280930C028AE380932C
:102120000B0285E2A82E9AEFC92EE12C05E024E0EF
:1021300044E068E0CE0101961DDD2C960FB6F894C0
:10214000DEBF0FBECDBFDF91CF910F91EF90CF904B
:10215000AF900895A0E0B0E0E0EBF0E10C94542DD6
:10216000DC0110922C02109241021196DC90119722
:10217000DD0CDD0CDD0C13968C911397D81A8D2D88
:1021800097E0B92EBD0C10922D0290E040E028E0BF
:10219000D22ED80E71E087E057E0C12C37E0E32E55
:1021A000F12C01E010E07D1509F478C0FD01EC0D83
:1021B000F11D248130E0052E02C0359527950A9443
:1021C000E2F721703327552311F0515002C0C39418
:1021D00057E06B3479F4833009F079C0411108C0BD
:1021E000232B09F058C010922C02909341026DC02D
:1021F00040E070C08F3F39F56634B1F4E92FF0E06C
:10220000E35DFD4FE0810E2EE295E0250E2EE69572
:10221000E695E025EF5FE695E170CE2F812CD82D75
:10222000C217D30741F004C0653429F4232B19F4F5
:1022300040932C02DACF9F5FE92FF0E0E35DFD4F82
:10224000108287E029C0232B21F1663469F4E92F3D
:10225000F0E0E35DFD4FA0809801082E01C0220F41
:102260000A94EAF72A2914C0653499F4E92FF0E0BA
:10227000E35DFD4F9701281B310987FD3395480128
:1022800002C0880C991C2A95E2F794013081232B17
:102290002083815001C041E07F5F85CF40932C02B5
:1022A00090934102B71688F4653431F48F3F21F4DE
:1022B0009F5F9093410204C080912C028111F8CF5E
:1022C00081E090914102911108C080E006C08F3FEB
:1022D00009F4ACCF232B51F6DCCFCDB7DEB7ECE061
:1022E0000C94702D10926F00E09144028CE1E89FF5
:1022F000F0011124EB5BFD4F1082809178038D7FFC
:10230000809378030895CF93DF93DC01362F273035
:1023100011F4E5E101C0ECE011962C911197C22F68
:10232000D0E050E0BE01641B750B9C91F0E06E178D
:102330007F0714F5AA27BB27AE1BBF0BA617B7074D
:10234000DCF4892F90E0632F70E09C01261B370B93
:102350002E173F078CF4A217B30774F49E01280FC1
:10236000391F640F751F261B370B2E173F0724F4E8
:1023700081E0A217B3070CF080E0DF91CF910895C0
:10238000FC018181843110F0ADCF089593816623E3
:1023900081F0DF01A80FB11D21E030E0092E01C05E
:1023A000220F0A94EAF714963C911497232B149663
:1023B0002C93992319F091509383089597E0938378
:1023C0008F5F8183E80FF11D14820895519A599807
:1023D0005098E9E6F0E080818160808388E097E0B2
:1023E00090937703809376031092610210922F03EB
:1023F000089580917903882329F00E945C050C944C
:10240000EA0408950C9453050895FC0121812111DB
:102410000FC0809179030E94420740E265E08091FD
:102420007603909177030E94CF060C94CA06089514
:1024300041E069E773E001960E944707DACF08950B
:10244000442339F04150FB01E40FF11D9081890FC5
:10245000F7CF08959C0180E0662339F06150F901BF
:10246000E60FF11D90818927F7CF0895FC01709147
:102470002C0240E095E020E0662399F06150DF01F6
:10248000A60FB11D3C91532F52955F702527950FD4
:10249000772311F0442319F03F702327930F4F5FE8
:1024A000EBCF920F30E1939FC0011124822B08954E
:1024B000FC0182819381A081B181A80FB11D2C9173
:1024C00030E0092E02C0359527950A94E2F7217075
:1024D00033274FEF490F4383911104C08F5F8283ED
:1024E00087E08383822F0895A1E0B0E0EAE7F2E17C
:1024F0000C94542D6C01062F10E0812C912CF12CA2
:10250000EE24E394580181E0A81AB10880169106E0
:10251000E1F0C6014983CCDF4981882391F044234F
:1025200049F0C501881999099E2D01C0990F8A9516
:10253000EAF706C09E2D082C01C0990F0A94EAF70D
:10254000F92A8FEF881A980AE1CF8F2D2196ECE0B7
:102550000C94702DA4E0B0E0E0EBF2E10C94552D6A
:102560001B8227E02C839C012C5F3F4F3A832983F9
:1025700010924102FC012181338187E090E0831BAE
:102580009109F8E02F9F800D911D1124853491054C
:102590000CF450C0912C00914102063070F5E02EF1
:1025A000F12C40E068E0CE0101969EDF9701A90181
:1025B000435D5D4F7A01FA018083182F012E129539
:1025C0001025012E169516951025CE01019670DF67
:1025D0001F5F11FBAA24A0F8B12C90E0A816B90641
:1025E00049F5CE01019664DF811124C0F701808195
:1025F00098260F5F00934102CECF40E068E0CE0105
:10260000019672DF082F182F012E12951025012E2A
:10261000169516951025CE0101964ADF1F5F11FB16
:10262000CC24C0F8D12C282F30E0C216D30611F4E8
:1026300081E0901280E02496EBE00C94712DA4E0F0
:10264000B0E0E5E2F3E10C94572DFC011B8287E03A
:102650008C83CF0104969A8389838081853009F029
:1026600052C02181338187E090E0831B910938E0DB
:10267000239F800D911D11248039910509F043C0DD
:10268000109241023FE0C32E30EFD32E19E8809123
:102690004102E82EF12CBB24B394B80E41E068E06F
:1026A0008F3078F4CE0101961FDFC80ED11CF701E0
:1026B000E35DFD4F1827108314E2180FB09241021A
:1026C000E6CFCE01019610DF8601080F111DB092F2
:1026D0004102F701E35DFD4F8095808341E068E0B2
:1026E000CE01019601DF90E0982F8827081B190B77
:1026F00041E068E0CE010196F7DE282F30E081E06E
:102700000217130709F080E02496E9E00C94732D7A
:10271000A4E0B0E0EEE8F3E10C945B2D1B8227E02F
:102720002C839C012C5F3F4F3A832983FC0121813C
:102730002430A1F58381813089F510924102809186
:102740004102082F10E0FF24F394F80E41E084309A
:1027500098F4811106C067E0CE010196C5DE80685D
:1027600004C068E0CE010196BFDEF801E35DFD4FD5
:102770008083F0924102E3CF67E0CE010196B4DEA0
:10278000F801E35DFD4F880F8083F0924102909144
:102790002D0292959F7081E09A3009F080E0249696
:1027A000E5E00C94772DCF93DF93FC018081873097
:1027B00021F481818330F9F405C08930E1F481810D
:1027C0008830C9F483818730B1F41092410291813D
:1027D00080E0891760F4282F30E0D901A35DBD4F58
:1027E000EF01C20FD31F2C812C938F5FF2CF809308
:1027F000410281E001C080E0DF91CF910895CF9345
:10280000DF93FC0181818330C1F483818730A9F497
:102810008081883091F490E0292F30E0D901A35DC8
:10282000BD4FEF01C20FD31F8C818C939F5F9330FC
:1028300099F79093410281E001C080E0DF91CF9150
:102840000895FC0181818C30D9F480818630C1F4F7
:102850009381911115C040E0292F30E0DF01A20FD4
:10286000B31F14968C91480FD901A35DBD4F8C9373
:102870009F5F9B3089F79093410281E097854913D0
:1028800080E00895FC01908180917803993611F0E1
:10289000933751F4982F9370913011F4826006C0F1
:1028A00080FF07C08B7F03C080FD03C084608093DE
:1028B00078030895A1E0B0E0E0E6F4E10C94542D33
:1028C000198280910F0290911002892BC9F1809199
:1028D000790387FF17C084E30E9460048058803426
:1028E00058F0803C58F490E08055910923E095958C
:1028F00087952A95E1F703C080E001C08FE08F59EA
:102900000E949F068091790383FF16C082E70E9490
:102910009F068091790384FF04C0809111020E9478
:102920009F0686E60E949F068091790384FF04C07B
:1029300080910F020E949F061092100210920F02C7
:1029400080914202882309F478C22C9A00914302B4
:102950002CE1029F800111240B5B1D4FD8018C914B
:10296000873011F0893049F48981811106C0C8018E
:102970001ADF882311F089E689838981811106C0D5
:10298000C8013DDF882311F083E7898389818111A4
:1029900006C0C80156DF882311F082E78983F80159
:1029A00080818650833008F4E1C08981811106C09E
:1029B000C80145DE882311F083E58983898181116F
:1029C00039C066E4C801C6DB8823A1F1F09041025A
:1029D000FA94F09241024F2D6DE272E086E030DD14
:1029E000EF2DF0E0E35DFD4FE0808E1105C023E0A8
:1029F0002F1510F486E41BC0282F30E02F5F3F4FC7
:102A00004E2D50E02417350739F493E09F1520F43C
:102A100096E4998380830EC04F2D6DE272E08CE0C6
:102A20000FDD8E1106C0A3E0AF1518F484E589838D
:102A300001C019828981811116C065E4C8018ADB51
:102A4000882389F08091410281508093410289302E
:102A500051F469E08DE292E0FDDC90913602891339
:102A600002C085E489838981811106C0C80172DDB5
:102A7000882311F088E489838981811106C0C80107
:102A800047DE882311F084E78983898181113AC068
:102A9000F8012081438D60911102C8014A9633DC10
:102AA000682FC8016DDC6BE4C80154DB8823C1F0DA
:102AB000E0914102FF24FA94FE0EF09241026F2D44
:102AC0008DE292E0D3DCEF2DF0E090912C02E91B37
:102AD000F109E35DFD4F9081891302C08BE4898386
:102AE000898181110FC0D80113968C91139787307B
:102AF00021F08F5F13968C9305C0F80113828181BA
:102B000081508183F980F11031C0D80111968C91E8
:102B10001197843059F513968C911397843031F5C1
:102B2000EC902E2D4EE16CE3C8014896ECDB882337
:102B3000E9F02E2D4EE160911102C8014A96E3DBC7
:102B4000682FC8011DDC8F2D90E0FC01E35DFD4F77
:102B5000D801A80FB91F14968C918083F394B5E027
:102B6000FB12F1CFF092410282E5898369816623ED
:102B700009F4CCC04091790340FFC8C0809178032C
:102B80008E7F8B7F80937803942F927041FD64C079
:102B900050912B027091410257133EC080E085177F
:102BA000C0F4282F30E0E1E0E80FD901A95EBD4F65
:102BB000235D3D4FFC91D9012C91F21741F0809398
:102BC0002B02209178032D7F2093780304C08E2F51
:102BD000E6CF80932B0285131FC0C0903103D090A5
:102BE0003203E0903303F09034038090130290900E
:102BF0001402A0901502B0901602C818D908EA086D
:102C0000FB08B6E2CB16D104E104F10428F480916C
:102C10007803816080937803971760F4292F30E060
:102C2000F901E95EFD4FD901A35DBD4F8C91808311
:102C30009F5FF2CF90932B028091310390913203EA
:102C4000A0913303B0913403809313029093140244
:102C5000A0931502B09316026435E9F446FD1BC03B
:102C6000809141028530B8F080912F028B3471F051
:102C7000893661F09DEA980F923040F08D5782308E
:102C800028F0809130028077803729F48091780392
:102C9000816080937803B801CE010196F3DD8091C5
:102CA000780382FF33C089810E949F0680912C02A5
:102CB000882329F080914102815080934102F12CB8
:102CC000E0914102FE1648F4EF2DF0E0E35DFD4F88
:102CD00080810E944207F394F3CF80912C028823D5
:102CE00051F0F0E0E35DFD4F80818F7040E361E0E3
:102CF00090E00E9406078091790385FF05C084E378
:102D00000E9460040E9442070E94CA0680917903D3
:102D100082FF7AC080E70E949F06F801808140E22E
:102D200062E090E00E94CF06D80158968C9140E274
:102D300065E0B0E18B9FC00111240E94CF06F8012D
:102D4000818D40E265E0F0E18F9FC00111240E9477
:102D5000CF06D8015A968C9140E265E0B0E18B9F96
:102D6000C00111240E94CF06F801838D40E265E086
:102D7000F0E18F9FC00111240E94CF06D801129666
:102D80008C9140E263E090E00E94CF06F8018181DF
:102D900040E263E090E00E94CF06D80113969C9138
:102DA00040E262E027E030E0F901E91BF109CF01E0
:102DB0000E94CF0680E20E949F068091790385FFE2
:102DC00008C084E30E9460040E94420780E20E94DF
:102DD0009F06D80113968C911397873031F0119686
:102DE0008C9111978F5F11968C93F12CF801818152
:102DF000F81640F4F801EF0DF11D84810E9442079E
:102E0000F394F4CF0E94CA06D8011C92809142022A
:102E1000815080934202809143028F5F823019F08B
:102E20008093430202C0109243022C98898184351A
:102E300021F48DE292E00E94B20C2196ECE00C9419
:102E4000702D1F920F920FB60F9211242F933F9364
:102E50004F935F936F937F938F939F93AF93BF93A2
:102E6000EF93FF9310926F008091880090918900FA
:102E700020E23EE4309389002093880090938500FF
:102E8000809384008091790383FF03C08EE20E94C7
:102E90009F06809144029CE1899FF0011124EB5B25
:102EA000FD4F9081933018F09181923010F41ADA2E
:102EB00018C090914202913049F48091790382FFC9
:102EC000F6CF8BE092E00E94BD06F1CF9F5F90931A
:102ED00042028F5F823019F08093440202C0109248
:102EE0004402FF91EF91BF91AF919F918F917F919C
:102EF0006F915F914F913F912F910F900FBE0F9067
:102F00001F9018951F920F920FB60F921124CF9217
:102F1000DF92EF92FF920F931F932F933F934F9364
:102F20005F936F937F938F939F93AF93BF93EF9331
:102F3000FF93CF93DF931F92CDB7DEB780917A03D3
:102F4000882321F082E080937A0376C20091840086
:102F50001091850084E0169507958A95E1F7909188
:102F600044028CE1989F90011124F901EB5BFD4F25
:102F70006F018081843049F40E32110508F45CC27F
:102F80000F34110558F0AED957C2853039F40731E6
:102F9000110508F451C208321105A8F748990FC06D
:102FA0008450823038F461E0C601EAD9109285007D
:102FB0001092840010931202009311023DC280917E
:102FC000110290911202081B190B1093100200932A
:102FD0000F021092850010928400F6014081473064
:102FE00019F0493009F040C020910F0230911002D1
:102FF000F6012C3B310510F012821EC28281811134
:1030000033C02739310538F089E08083109285007C
:103010001092840011C2809111029091120251E02D
:10302000F6015283493091F4B90161507109861754
:10303000970710F4808F06C0F601808F282F220F8B
:10304000220F280F218FF601828F27C0BC01660F47
:10305000771F2617370710F41082EEC1F601808F14
:103060002F5F218F228F838F4830C1F4F601828138
:10307000811114C081E0828380911102808F828F40
:1030800080910F02909110028B3B910518F4818F73
:10309000880F03C0F601818F8695838F445042309C
:1030A00008F469C122E026BB0091110210911202BE
:1030B000C801835392408B3B9105F8F480910F0235
:1030C000909110020A974797C0F486E0F601808F2E
:1030D0009EE0918F33E1328F938F91E092838083D2
:1030E000118287E08383148280EA9FE090938900B5
:1030F0008093880020936F009FC1F60130813111C9
:103100004EC0C8014B970697C0F480910F02909172
:103110001002845192404E9780F488EF91E1909391
:1031200089008093880082E080936F00F60112820C
:1031300088E08083118287E01BC0C80109974C9703
:10314000D0F480910F02909110028D599109893825
:103150009340A8F480EA9FE09093890080938800D0
:1031600082E080936F00F601128287E080831182F3
:103170008383148261C10536110508F05DC1809119
:103180000F02909110028536910508F055C1F601A5
:10319000008F818F81E0828382E080834DC1323055
:1031A00009F069C0F0900F0222E04F2D602FC60198
:1031B0004896A9D8F60122818823F9F0808D90E005
:1031C000AC01440F551F840F951F800F911D9595DD
:1031D000879595958795808F818D90E0AC01440F00
:1031E000551F840F951F8F0D911D9595879595956A
:1031F0008795818F2F5F22831FC12430C8F180EA19
:103200009FE09093890080938800F60182818C3042
:1032100050F0208D818D90E0820F911D85369105B3
:1032200024F084E015C08A3088F0F601208D818D6D
:1032300090E0820F911D85974CF485E0808388EEA5
:1032400093E0909389008093880003C083E0F601A7
:10325000808380911102F601828F80910F02838F0B
:10326000118287E08383148282E080936F00E4C040
:10327000F601108246CF363009F03FC00B30110501
:10328000F0F460E0C6017CD8F601808D90E09C01EE
:10329000220F331F820F931F080F191F15950795D3
:1032A00015950795008F818D90E09C01220F331FAB
:1032B000820F931F20910F02820F911DB4C061E015
:1032C000C6015ED8F601828D90E09C01220F331F6B
:1032D000820F931F800F911D9595879595958795E2
:1032E000828F838D90E09C01220F331F820F931FEA
:1032F00020910F02820F911D69C0E0900F02F090A3
:103300001002383069F5C7018F5691094D9708F5BD
:1033100060E0C60135D8F601808D90E09C01220F57
:10332000331F820F931F800F911D9595879595955B
:103330008795808F818D90E09C01220F331F820F33
:10334000931FE80EF91EF594E794F594E794E18E47
:1033500073C0C701875E9109879708F06DC01AC0D6
:10336000393069F4FF24FCE0EF1AF108112761E01D
:103370000E151F050CF060E0C60102D85DC0232FBA
:103380004E2D602FC6014A9639830E9483113981E0
:10339000882311F161E0C6010E94C011F601828DFF
:1033A00090E09C01220F331F820F931F800F911D0D
:1033B0009595879595958795828F838D90E09C0153
:1033C000220F331F820F931F8E0D911D95958795A8
:1033D00095958795838F30C0232F4E2D602FC60182
:1033E000489639830E9483113981882311F160E066
:1033F000C6010E94C011F601808D90E09C01220F51
:10340000331F820F931F800F911D9595879595957A
:103410008795808F818D90E09C01220F331F820F52
:10342000931F8E0D911D9595879595958795818F05
:1034300003C0373009F0A7CD0F90DF91CF91FF91F6
:10344000EF91BF91AF919F918F917F916F915F911C
:103450004F913F912F911F910F91FF90EF90DF902F
:10346000CF900F900FBE0F901F901895CF93DF93C2
:10347000E898269A2E9A8EE190E00E9491062E9866
:103480008EE190E00E9491062E9A8DE290E00E94DB
:10349000910680E30E94790484E690E00E94910600
:1034A000C2E3D2E0FE0131966491FE0184910E9454
:1034B00067042296F2E0C436DF07A1F780917E020E
:1034C000811107C083E30E94790484E00E9496067C
:1034D0000FC0CCE1D2E0FE0131966491FE018491EF
:1034E0000E9467042296F2E0C233DF07A1F7EACF19
:1034F00084E30E94790485E30E9460048D30C1F763
:10350000DF91CF910895A2E3B0E0E9E8FAE10C94ED
:103510005C2D80917D02882309F4A1C0489B8AC05C
:103520008FE30E9460048F778983823368F08AE397
:103530000E94790486E30E9479048DE30E94790455
:1035400084E30E9479048BC02E988FEF0E94EF03D2
:1035500010E08981181760F480E00E94EF03E2E038
:10356000F0E0EC0FFD1FE10FF11D80831F5FF1CF35
:1035700080E00E94EF03082F80E00E94EF032E9A64
:1035800084E30E94790485E30E9460048D30C1F7D2
:103590009A8126E729272A8322E08981E22FF0E019
:1035A000281768F441E050E04C0F5D1FE40FF51F51
:1035B00080819452982790832F5F982FEECF81E0DF
:1035C00090E08C0F9D1FE80FF91F80819B81982749
:1035D00090838091790384FF12C081E60E949F0648
:1035E00010E08981811730F1E1E0F0E0EC0FFD1F80
:1035F000E10FF11D80810E949F061F5FF2CF81E4E1
:103600000E949F0610E08981811758F0E1E0F0E008
:10361000EC0FFD1FE10FF11D80810E9442071F5F2B
:10362000F2CF8091790385FF03C0802F0E9442076B
:103630000E94CA0685E30E946004813029F081312E
:1036400061F48AE30E94790486E30E9479048DE3A1
:103650000E94790484E30E9479040E94A305E29603
:10366000E4E00C94782DAAE3B0E0E9E3FBE10C94EC
:10367000542D41E38E010F5F1F4FB80101960E9448
:1036800047077C019C01332721503109898190E053
:103690002817390709F0A3C080917D02811104C069
:1036A000E5DE83E00E949606DB809A8186E7892723
:1036B0008A8382E09981282F30E0F801E20FF31F1E
:1036C000891750F4DE01A20FB31F9C919452208100
:1036D000922790838F5FEECF80818D258083CE01EE
:1036E000C7960E94010685E30E94790485E30E9443
:1036F0006004833181F1CE01C3960E9401064BA97B
:103700005CA96DA97EA98FA998ADA9ADBAAD8417A2
:103710009507A607B70760F44A015B01881A990A62
:10372000AA0ABB0A2DEB82169104A104B10470F41D
:10373000481759076A077B0770F484549F4FAF4FAF
:10374000BF4F84179507A607B70728F482E192E0D8
:103750000E94BD0627C085E30E946004833119F6EC
:10376000D4FE08C088E70E94960688E70E94960665
:1037700088E701C08AE00E9496062E988FE70E9493
:10378000EF0368018C2D801B8E1530F4F6018191BA
:103790006F010E94EF03F6CF2E9A85E30E9460042A
:1037A0008331D9F385E30E946004863149F48BE3C9
:1037B0000E94790486E30E9479048DE30E947904D3
:1037C00080917D02882349F084E30E94790485E397
:1037D0000E9460048D30C1F702C00E94F911EA9680
:1037E000ECE00C94702DFC019181923731F0923510
:1037F00059F481E080937E0202C010927E0236DE90
:1038000081E080937D020895933721F4CF010196E2
:103810002ACF089510927D020895CF93DF93E89800
:10382000269A2E9A8EE190E00E9491062E988EE1C3
:1038300090E00E9491062E9A8DE290E00E949106FF
:1038400080E30E94790484E690E00E949106CDE72F
:10385000D2E0FE018491813440F083E30E94790438
:1038600084E00E949606CFEF0DC0FE013196649170
:10387000FE0184910E9467042296F2E0C93BDF07B3
:1038800041F7EBCF84E30E9479048AE090E00E9444
:103890009106C150B9F781E080937F02DF91CF910B
:1038A00008954F925F926F927F928F929F92AF9204
:1038B000BF92EF92FF920F931F93CF93DF937C0100
:1038C000EB01FC0110811F5F209719F420E030E02C
:1038D00002C024E630E0F8E01F9FC00111246AE036
:1038E00070E00E943B2D620F731F4B01072E000CEE
:1038F000AA08BB0880917603909177032C01612C74
:10390000712C481459046A047B0428F48DE692E073
:103910000E94BD06D3C0861B970B909377038093BC
:10392000760380917F02811101C077DF85E30E94D9
:1039300060048D3071F08AE50E949F0685E40E9444
:103940009F0682E50E949F0682E50E949F0681E312
:103950004BC08091800290918102A0918202B0912F
:103960008302892B8A2B8B2B49F50E94D80485E38F
:103970000E946004833109F442C08AE50E949F06D8
:1039800085E40E949F0682E50E949F0682E50E94D0
:103990009F0682E329C04091310350913203609128
:1039A0003303709134030196A11DB11D48175907C7
:1039B0006A077B07D1F681E00E94960640913103A9
:1039C00050913203609133037091340380918002EF
:1039D00090918102A0918202B09183024817590709
:1039E0006A077B07C1F6E7CF0E949F0685E30E9426
:1039F00060040E9442070E94CA060FDF5FC0CD2B01
:103A000041F42E988FE70E94EF030E2DC02FDF2D7B
:103A100008C0CAE0D0E084E60E9496062197D9F754
:103A2000F0CF8C2F801B811720F489910E94EF0327
:103A3000F8CF2E9AC8EC85E30E9460048D30E9F43B
:103A400085E30E9460048D3019F18AE50E949F068B
:103A500085E40E949F0682E50E949F0682E50E94FF
:103A60009F0683E30E949F0685E30E9460040E94F4
:103A700042070E94CA06D1DE0BC085E30E946004A3
:103A80008331F1F681E00E949606C150A1F6D8CFAD
:103A900080917F02811102C00E94F911809131034F
:103AA00090913203A0913303B0913403809380024C
:103AB00090938102A0938202B0938302DF91CF9111
:103AC0001F910F91FF90EF90BF90AF909F908F90BC
:103AD0007F906F905F904F900895ACE0B0E0E3E787
:103AE000FDE10C945D2DFC018BE0898381818A834B
:103AF0001B8282E08C8387818D8380858E83818584
:103B00008F83848188878581898786818A871B86C0
:103B10001C8684E10E94960660E070E0CE0101966A
:103B2000C0DE8AE50E949F0610E0812F90E0298187
:103B300030E0281739075CF0E1E0F0E0EC0FFD1F02
:103B4000E80FF91F80810E9442071F5FEECF80912E
:103B5000790385FF03C080E00E9442070E94CA06E5
:103B60002C96E3E00C94792DCF93DF93EC019091A8
:103B70008702911108C080918802811104C0809150
:103B800089028823A9F08B81803319F08F7E8034DD
:103B900079F48F8189130CC09885809188029813DD
:103BA00007C0998580918902981302C0CE0195DFE4
:103BB00080918402811108C090918502911104C006
:103BC000909186029923A9F098819B3091F49B8172
:103BD000903479F49F8198130CC098858091850268
:103BE000981307C0998580918602981302C0CE0170
:103BF00074DFDF91CF910895AEE1B0E0E2E0FEE145
:103C00000C945C2D80917F02882309F469C0489B45
:103C100059C08FE30E9460048F778E3108F08DE1E8
:103C200089832E988FEF0E94EF0310E08981181787
:103C300060F480E00E94EF03E2E0F0E0EC0FFD1F93
:103C4000E10FF11D80831F5FF1CF80E00E94EF0341
:103C5000082F80E00E94EF032E9ACE01019684DFA8
:103C60008091790384FF12C08AE70E949F0610E0CA
:103C700089818117A8F1E1E0F0E0EC0FFD1FE10F71
:103C8000F11D80810E949F061F5FF2CF8AE50E948E
:103C90009F0610E08981811758F0E1E0F0E0EC0F19
:103CA000FD1FE10FF11D80810E9442071F5FF2CFCF
:103CB0008091790385FF03C0802F0E9442070E94F4
:103CC000CA060EC085E30E946004813149F48AE38C
:103CD0000E94790486E30E94790484E30E947904B7
:103CE0006E96E4E00C94782DAEE1B0E0EAE7FEE1F8
:103CF0000C945C2D8C01FC018181823711F48DDDE7
:103D000036C0833711F0863601F54DE1BE016F5F95
:103D10007F4FC80102960E94470799270197298182
:103D200030E08217930729F084E692E00E94BD06F6
:103D30001EC061E070E0F8018181833711F060E01E
:103D400070E0CE010196ADDD12C0813621F443E072
:103D500067E872E005C0873741F443E064E872E049
:103D6000C80102960E94470702C010927F026E9619
:103D7000E4E00C94782DCF93DF93E898269A2E9A5E
:103D80008EE190E00E9491062E988EE190E00E94D4
:103D900091062E9A8DE290E00E94910680E30E94A7
:103DA000790484E690E00E949106C9EBD2E0FE011E
:103DB0008491813448F083E30E94790481E00E9479
:103DC0009606DF91CF910895FE0131966491FE0130
:103DD00084910E9467042296F2E0C53FDF0739F71D
:103DE000EACFAEE1B0E0E7EFFEE10C945C2D80910C
:103DF0008A02882309F474C0489B5FC08FE30E9445
:103E000060048F778E3108F08DE189832E988FEFD3
:103E10000E94EF0310E08981181760F480E00E948F
:103E2000EF03E2E0F0E0EC0FFD1FE10FF11D8083F6
:103E30001F5FF1CF80E00E94EF03082F2E9A8AE3E4
:103E40000E94790486E30E9479048DE30E9479043C
:103E500084E30E9479048091790384FF12C087E78C
:103E60000E949F0610E089818117D0F1E1E0F0E027
:103E7000EC0FFD1FE10FF11D80810E949F061F5F67
:103E8000F2CF87E50E949F0610E08981811758F0E4
:103E9000E1E0F0E0EC0FFD1FE10FF11D80810E94D9
:103EA00042071F5FF2CF8091790385FF03C0802F07
:103EB0000E9442070E94CA0613C085E30E94600464
:103EC000813011F0813161F48AE30E94790486E344
:103ED0000E9479048DE30E94790484E30E947904AE
:103EE0006E96E4E00C94782DFC018181823729F4F0
:103EF00042DF81E080938A020895833711F01092A7
:103F00008A020895A2E0B0E0E8E8FFE10C94502DA9
:103F10007C01FC018181833709F09EC1198287E011
:103F200090E00E94852D8C0141E0BE016F5F7F4FC4
:103F3000C70102960E9447078981F801808341E00A
:103F4000BE016F5F7F4FC70104960E9447078981BA
:103F5000807FD82EF801818341E0BE016F5F7F4FE3
:103F6000C70106960E9447078981F801828341E0D4
:103F7000BE016F5F7F4FC70108960E944707898186
:103F8000F801838341E0BE016F5F7F4FC7010A964E
:103F90000E9447078981F801868341E0BE016F5F77
:103FA0007F4FC7010C960E9447078981F8018583DE
:103FB00041E0BE016F5F7F4FC7010E960E94470729
:103FC0008981F80184835801F7E0AF0EB11CF80134
:103FD00080E09191292F22952F7092278927EA1549
:103FE000FB05B9F78F70D82AF801D18287E090E0FD
:103FF0000E94852D6C0187E0F801D60101900D9299
:104000008A95E1F7D801119698012A5F3F4FF80190
:1040100081919C9189278D93E217F307C9F72C9A18
:1040200080918D0281115EC080917D02882329F0EC
:1040300081E080938C0210927D0280917F02882320
:1040400029F081E080938B0210927F02E898269AF3
:104050002E9A8EE190E00E9491062E988EE190E0DB
:104060000E9491062E9A8DE290E00E94910680E3D4
:104070000E94790484E690E00E9491062E9880E4E4
:104080000E94EF0365EFE62E62E0F62E79E2972EAE
:104090009E0CF70184910E94EF03FFEFEF1AFF0AD5
:1040A0009E10F7CF2E9A2E988EE70E94EF038BE298
:1040B00090E07C012FEFE21AF20A0E9496070E941C
:1040C000EF03C70183339105A1F72E9A83E30E9482
:1040D000790481E00E94960681E080932F0383E0BB
:1040E0000E94960686E30E9479048AE30E9479047E
:1040F0008BE30E9479040E94D804599A87EC94E2D9
:104100000E949106599889E50E94960685E392E0FF
:104110000E949106F12C8091050190E02F2D0F2C2B
:10412000000C330B281739070CF056C0FF2011F094
:1041300027E001C022E0E12C599A86EF99E02A831A
:104140000E949106599886EF99E00E949106E394A7
:104150002A81E212F1CF599A8CEF92E10E949106E6
:10416000599880910101909102010E9491064801A5
:10417000F40161904F0148E0E42E50E8452E512CA7
:10418000712CC20186219721892B49F4599A80917B
:104190000101909102010E949106599808C0599816
:1041A00080910101909102010E949106599A80919B
:1041B0000101909102010E94910656944794EA945D
:1041C000E110DFCF8A149B0499F6599880E090E0C3
:1041D0000E949106F3949FCF80918D02882341F035
:1041E0008091790381110EC086E30E94790417C083
:1041F00080918C02882349F010928C0237D981E09B
:1042000080937D020E94EA040AC080918B02882379
:1042100021F010928B0201DB02C00E94F9112C9850
:1042200089E50E949F0683E70E949F06760156015A
:10423000F7E0AF0EB11CF70181917F010E944207A8
:10424000EA14FB04C1F70E94CA06C6010E941A2E96
:10425000C8010E941A2E6DC08237A9F465E071E092
:10426000C70102960E94770789E50E949F0682E7B0
:104270000E949F068AE30E949F068091050140E20A
:1042800060E090E02CC0843779F5F70182818033BB
:1042900039F488ED94E0909304018093030106C003
:1042A00063E071E0C70102960E94770780910301E5
:1042B0009091040196958795909302018093010156
:1042C00089E50E949F0684E70E949F068AE30E9478
:1042D0009F0640E266E080910301909104010E94F4
:1042E000CF060E94CA0625C0883719F580918C0236
:1042F000882339F010928C02B9D881E080937D0236
:1043000010C080918B02882321F010928B0285DAF5
:104310000EC082E090E00E947D04809179038823A2
:1043200019F00E94EA0403C086E30E947904109207
:104330008D022296E0E10C946C2DFF920F931F9357
:10434000CF93DF93EC01FC0101900020E9F7319756
:104350008F01081B190B8981823751F487E390E0A4
:104360000E947D040E94EA0481E080937A0325C0C4
:10437000833709F5F02E2E988FE70E94EF038EEF1A
:10438000800F0E94EF03229612E01F1528F48991F6
:104390000E94EF031F5FF9CF2E9A0E94D8048AE390
:1043A0000E9460048F7721F081E00E949606F7CF8B
:1043B0000E94EA0402C010927A03CDB7DEB7E5E0AE
:1043C0000C94772DA0E8B0E0E8EEF1E20C94582DC3
:1043D00080917A03882309F454C0813011F58091CB
:1043E000310390913203A0913303B09134032091B3
:1043F0008E02281709F445C085E30E9460048131CC
:1044000029F48AE30E9479040E94EA04809131032E
:1044100090913203A0913303B091340380938E02C4
:1044200030C08FE30E946004F82E87FD27C02E98CD
:104430008FEF0E94EF038E010F5F1F4F6801E02E88
:104440008C2D801B8F1538F480E00E94EF03F6015D
:1044500081936F01F5CF2E9A81E080934D01802FDB
:104460008E198F1530F4F80181918F010E949F06FB
:10447000F6CF0E94CA068FEF80934D0181E08093B2
:104480007A03C058DF4FE8E00C94742D0E94EA04D0
:10449000E8980895CF93DF93269A2E9A8EE190E0C4
:1044A0000E9491062E988EE190E00E9491062E9A2D
:1044B0008DE290E00E94910680E30E94790484E6F8
:1044C00090E00E949106809124048933C1F4C2E8EF
:1044D000D3E0FE0131966491FE0184910E9467044D
:1044E0002296F3E0C43BDF07A1F783E30E9479043F
:1044F00084E00E949606CADFDF91CF91089584334D
:1045000079F4C0E5D3E0FE0131966491FE01849117
:104510000E9467042296F3E0C238DF07A1F7E5CFD7
:10452000813319F7CEE1D3E0FE0131966491FE01AB
:1045300084910E9467042296F3E0C035DF07A1F75B
:10454000D4CFFC01908180912904981317C09181E8
:1045500080912A04981312C0928180912B049813A1
:104560000DC0938180912C04981308C09085809190
:104570002D04981729F081E09F3F19F080E00895FD
:1045800081E008959C018FEF662339F06150F901B5
:10459000E60FF11D90818927F7CF0895DC01FC011A
:1045A0008FE09DE170E09F012A1B3B0B2617370728
:1045B00004F52191492F552742279A0132952295DA
:1045C0002F7023273F70232724273527582F442770
:1045D00042275327C901982F88279295907F8427D7
:1045E000952745E0220F331F4A95E1F7822793274D
:1045F000DACF0895A0E0B0E0E0E0F3E20C94592DAA
:104600008C01D62E2C9A80912404893339F464E1EC
:1046100082E10E9467046D2D660F6D5E86E00E9448
:1046200067040E94D8042E988FE70E94EF038091C0
:104630002404893321F0F02EC02FD12F4FC0CFE0BA
:1046400086E60E94EF03C150D9F78AEA0E94EF0381
:1046500085E50E94EF03D02F78018E2D8D1B8D15DF
:10466000B0F5F701C1917F01C7FD02C080E401C030
:1046700080E8C6FD02C090E101C090E2890FC5FD4F
:1046800002C094E001C098E0980FC4FD02C081E030
:1046900001C082E0890F0E94EF03C3FD02C080E4E5
:1046A00001C080E8C2FD02C090E101C090E2890F24
:1046B000C1FD02C094E001C098E0980FC0FD02C0A7
:1046C00081E001C082E0890F0E94EF03C6CF80E045
:1046D0000E94EF0380E00E94EF0309C08C2F8F1926
:1046E0008D1528F4899180950E94EF03F7CF2E9ABB
:1046F00085E30E9460048331D9F36FEF86E00E9466
:10470000670480912404893321F46EE182E10E94E0
:104710006704BCDE2C98F801858186FF2CC080914F
:10472000310390913203A0913303B0913403069684
:10473000A11DB11D8093250490932604A093270406
:10474000B093280480918F028F5F80938F02823014
:1047500060F08AE70E949F0682E70E949F06809190
:104760008F020E9442070E94CA0680918F02833006
:1047700010F010928F02CDB7DEB7E7E00C94752DE4
:10478000A8EAB0E0E6ECF3E20C94512D809190029F
:10479000882309F421C180918F028823D9F04091A8
:1047A000310350913203609133037091340380914F
:1047B000250490912604A0912704B0912804841721
:1047C0009507A607B70730F4609123048BE793E0C1
:1047D00011DF02C1489B00C12C9A2E988FEF0E94D6
:1047E000EF038E010F5F1F4F7801B02EA12E902E88
:1047F00068E0D62ED00E80E00E94EF03F7018083A0
:1048000090912404993311F080958083FFEFEF1A83
:10481000FF0ADE10F0CF2E9AF88487EF8F0D803AD2
:1048200010F038DED9C06F2D86E00E9467048091B9
:104830002404813339F0843349F058E9C52E53E01C
:10484000D52E07C04AE5C42ED12C03C03CEDC32EA3
:10485000D12C90EA592E28E0E22E6F2C712CC60143
:104860000E9491068BE30E946004882E882329F120
:1048700090E08E0D911D681679069CF22E988FEFB0
:104880000E94EF038E0CE81471F080E00E94EF03A9
:1048900090912404993309F08095F801EE0DF11DF3
:1048A0008083E394F0CF2E9AEF1438F080912404A3
:1048B000CF2CD12C813301F504C05A945110CFCFA5
:1048C000F5CFEFEFFFEFEC0FFD1FEC0DFD1D20818D
:1048D00030E0322F2227FE01EC0DFD1D80816901A1
:1048E000C80ED11C6EEF6F0DC80158DEEE24E394A4
:1048F0008C159D0561F40CC06FEF6F0DC80142DE91
:10490000FE01EC0DFD1DEE24E39490818913E12C52
:1049100080919002823701F5C80113DE81111CC01D
:10492000E12C80919002823781F4EE2071F08E812B
:10493000982F9370933029F490918F0291111092D7
:104940008F0286FF02C087FF18C06FEF86E00E94CB
:1049500067049CDD2C9840C0EE20B9F38AE70E94E2
:104960009F06F80181918F010E944207802F8919CB
:104970008F15B8F30E94CA06D4CF8AE00E9496062B
:104980008D81898780912D048D8383E08E83809132
:104990002404813351F48BE0888769E08B2D9A2DB4
:1049A000FDDD9A878B876BE008C08AE0888769E025
:1049B0008B2D9A2DE7DD8A876AE08B2D9A2D1ADEE2
:1049C0008AE70E949F0681E60E949F0689850E94D1
:1049D00042070E94CA06BECFC855DF4FEFE00C94D5
:1049E0006D2DFC012181223711F02D3659F4FC0187
:1049F0008281811101C084E380932404209390027A
:104A000049CD0895233779F410928F0248EA6BE775
:104A100073E002960E94470780932304682F8BE778
:104A200093E0E8CD0895293681F5FC012281222307
:104A300039F045E069E274E002960C944707089566
:104A4000809190020E949F06809124040E949F06FC
:104A500080E20E949F06809129040E944207809173
:104A60002A040E94420780912B040E9442078091F1
:104A70002C040E94420780E20E949F0680912D0430
:104A80000E9442070C94CA0608951092900208955D
:104A90001F93CF93DF93E898269A2E9A8EE190E0A9
:104AA0000E9491062E988EE190E00E9491062E9A27
:104AB0008DE290E00E94910680E30E94790484E6F2
:104AC00090E00E9491062E9880E40E94EF03C4EBD0
:104AD000D3E01C2F135FFE0184910E94EF03219607
:104AE0001C13F9CF809106010E94EF03809107010A
:104AF0000E94EF03809108010E94EF03C0E0D0E024
:104B0000FE01EC53FC4F84910E94EF032196C931C2
:104B1000D105B1F72E9A2E988EE70E94EF038BE213
:104B200090E0EC0121960E9496070E94EF03CE01CF
:104B3000E397B9F72E9A83E30E94790481E00E94FB
:104B4000960681E080932F03DF91CF911F91089506
:104B5000A0E0B0E0EDEAF5E2A7C7EC018981843777
:104B600069F46DE071E0CE0102960E94770740E2A1
:104B700060E080910D0190910E0112C0833709F021
:104B80009AC18A81823789F469E071E0CE01039687
:104B90000E94770740E260E08091090190910A014C
:104BA0000E94CF060E94CA06FBC12C9A80919302F4
:104BB000811116C080917D02882329F081E08093C5
:104BC000920210927D0280917F02882329F081E079
:104BD0008093910210927F025BDF83E00E94960631
:104BE00086E30E9479048AE30E9479048BE30E94A1
:104BF00079040E94D804FE0101900020E9F7EC1B23
:104C0000FEEFFF2EFE0E10E0AAE09A2E6E0132E0BB
:104C1000C30ED11CB5E0EB2E88E2882E209109014D
:104C200030910A01812F012E000C990B82179307F6
:104C300008F002C181E2F81214C0599A80910D0166
:104C400090910E010E949106599880910B019091CC
:104C50000C01FC019E9EC0019F9E900D11240E949C
:104C60009106560101E00F150CF0BCC0F5018191D1
:104C70005F01803309F048C0F1E2599AFF1220C069
:104C800080910B0190910C010E949106599880919E
:104C90000B0190910C010E949106599A80910B0191
:104CA00090910C010E949106599880910B0190916E
:104CB0000C019C01E29EC001E39E900D11248EC068
:104CC00080910D0190910E010E949106599880915A
:104CD0000D0190910E019C01220F331F820F931F33
:104CE0000E949106599A80910D0190910E010E94A7
:104CF0009106599880910D0190910E019C01220F0F
:104D0000331F820F931F6AC0813339F531E2599AFC
:104D1000F31212C080910B0190910C010E94910638
:104D2000599880910B0190910C01FC01EE9EC001FD
:104D3000EF9E900D112420C080910D0190910E01E5
:104D40009C01220F331F820F931F0E9491065998D6
:104D500080910D0190910E012EC0F1E2599AFF123F
:104D60001AC080910B0190910C010E9491065998F4
:104D700080910B0190910C010E949106599A8091AB
:104D80000B0190910C010E949106599880910B01A2
:104D900090910C0123C080910D0190910E010E9411
:104DA0009106599880910D0190910E019C01220F5E
:104DB000331F820F931F0E949106599A80910D0113
:104DC00090910E019C01220F331F820F931F0E94AE
:104DD0009106599880910D0190910E010E949106C3
:104DE0000F5F41CF21E2599AF21214C080910B015A
:104DF00090910C010E949106599880910B0190911D
:104E00000C01FC018E9EC0018F9E900D11240E940A
:104E1000910610C080910D0190910E010E949106A3
:104E200059980FE180910D0190910E010E94910619
:104E30000150C1F71F5FF2CE80919302882341F0A9
:104E40008091790381110FC086E30E94790419C013
:104E500080919202882351F0109292020E94361A99
:104E600081E080937D020E94EA040BC08091910250
:104E7000882329F0109291020E940D1C02C00E940A
:104E8000F9112C9889E60E949F0683E70E949F06ED
:104E900011E01F150CF086CEFE01E10FF11D17FD8C
:104EA000FA958181803319F0813309F086E40E94FC
:104EB0009F061F5FEECF8237B9F480917D02882371
:104EC00029F081E08093920210927D0280917F020E
:104ED000882329F081E08093910210927F02D8DD2F
:104EE00081E0809393025CC0863651F58A818033DD
:104EF00051F480E18093060180EB8093070181E704
:104F00008093080107C043E066E071E0CE0102969D
:104F10000E94470789E60E949F0686E60E949F0638
:104F20008AE30E949F06809106010E9442078091B9
:104F300007010E944207809108010E94420732CE79
:104F4000883731F580919202882341F010929202C5
:104F50000E94361A81E080937D0211C080919102F7
:104F6000882329F0109291020E940D1C0EC082E04D
:104F700090E00E947D0480917903882319F00E94BB
:104F8000EA0403C086E30E9479041092930208C0E9
:104F9000833631F46DE071E0CE0101960E9477070F
:104FA000CDB7DEB7ECE09CC51F93CF93DF93E898B5
:104FB000269A2E9A8EE190E00E9491062E988EE11C
:104FC00090E00E9491062E9A8DE290E00E94910658
:104FD00080E30E94790484E690E00E9491062E9876
:104FE00080E40E94EF03C6EAD6E01C2F175DFE01A5
:104FF00084910E94EF0321961C13F9CF2E9A2E98CC
:105000008EE70E94EF038BE290E0EC0121960E9474
:1050100096070E94EF03CE01E397B9F72E9A83E338
:105020000E94790481E00E94960681E080932F031C
:105030008093A702DF91CF911F910895A0E0B0E087
:10504000E3E2F8E234C58C0180912E04F8018383F9
:1050500064839DE0C92ED12C0E94D80485E30E9470
:105060006004833169F089E996E00E94BD0685E31A
:105070000E9460040E9442070E94CA0695DF47C052
:105080008091310390913203A0913303B0913403A6
:1050900080932F0490933004A0933104B093320492
:1050A0002E988FE70E94EF037801C0E0D0E08AEAF3
:1050B000B82EF70180810E94EF03C930D10544F476
:1050C000F7018081B826C730D10511F4F801B08608
:1050D0002196FFEFEF1AFF0ACF30D10551F72E9A34
:1050E000C8EC85E30E946004833159F081E0C81A5E
:1050F000D10809F0B1CF80912E048F5F80932E04E8
:1051000006C081E00E949606C15059F7EFCFCDB797
:10511000DEB7E9E0E8C44F925F926F927F92AF9260
:10512000BF92CF92DF92EF92FF920F931F93CF9394
:10513000DF93CDB7DEB7EB970FB6F894DEBF0FBEA7
:10514000CDBF8C01FC0101900020E9F73197AF0140
:10515000481B590B7C0182E0E80EF11CBE01625D28
:105160007F4FC7010E944707D82E67E471E080E1B6
:1051700091E019D7F801B1808DE88B0D823008F0ED
:10518000D8C181E08093A50287858A3411F489E52E
:1051900001C08EE480930F01A89540903103509098
:1051A0003203609033037090340380913103909107
:1051B0003203A0913303B091340380932F04909372
:1051C0003004A0933104B093320480910F018935EB
:1051D00009F050C08DE896E00E94BD0686E796E093
:1051E0000E94BD06C8010E94B20681E696E00E94B8
:1051F000BD06F80101900020E9F7319740E260E038
:10520000CF01801B910B0E94CF0689E196E00E949E
:10521000BD06F80101900020E9F73197808140E256
:1052200060E090E00E94CF0681ED95E00E94BD060F
:1052300040E260E08D2D90E00E94CF068EEC95E07C
:105240000E94BD0687EB95E00E94BD0640E364E046
:1052500080913104909132040E94060740E364E09B
:1052600080912F04909130040E94060784EB95E012
:105270000E94BD06F80101900020E9F7CF01419797
:105280008017910709F03CC142E0BE01625D7F4F8B
:10529000C7010E944707029709F032C185DEAEA41C
:1052A000B801665F7F4F45E050E0CE01019682D69F
:1052B0001E824AE050E060E070E0CE01019652D5D7
:1052C0006B017C0183E0F694E794D794C7948A95A8
:1052D000D1F780910F018935F1F48DE995E00E94B5
:1052E000BD06CE0101960E94B20686E995E00E94B5
:1052F000BD068FE795E00E94BD0640E364E0C7016C
:105300000E94060740E364E0C6010E94060787E7A3
:1053100095E00E94BD068FE0E5E3F1E0DE015F96D7
:1053200001900D928A95E1F78FA588A388A989A39A
:1053300089A98EA36A2DCE014F9680DEF3E7BF16B2
:1053400009F4EEC0A7FEECC040912F045091300448
:105350006091310470913204809131039091320355
:10536000A0913303B091340384199509A609B709B4
:105370008E379105A105B10548F440903103509056
:1053800032036090330370903403A8958091310309
:1053900090913203A0913303B0913403841B950B99
:1053A000A60BB70BC816D906EA06FB06A8F640906E
:1053B0003103509032036090330370903403809136
:1053C0000F01893509F073C080E695E00E94BD06A3
:1053D00040E364E0C3010E94060740E364E0C201C9
:1053E0000E94060788E595E00E94BD0681E495E0ED
:1053F0000E94BD0640E364E0809131049091320444
:105400000E94060740E364E080912F0490913004ED
:105410000E94060789E395E00E94BD0682E295E0BE
:105420000E94BD0640E364E0C7010E94060740E316
:1054300064E0C6010E9406078AE195E00E94BD066D
:1054400083E095E00E94BD06809131039091320384
:10545000A0913303B091340340912F045091300454
:105460006091310470913204841B950BA60BB70B2D
:1054700040E364E0CD010E940607809131039091E2
:105480003203A0913303B091340320912F04309163
:105490003004821B930B40E364E00E9406078BEF0D
:1054A00094E00E94BD0682EF94E00E94BD0667EF83
:1054B000CE014F96C3DD40912F045091300460918E
:1054C0003104709132048091310390913203A091A4
:1054D0003303B0913403841B950BA60BB70B459790
:1054E000A105B10580F380910F01893521F489EE82
:1054F00094E00E94BD0667EFCE014F969FDD10C07D
:1055000084EC94E00E94BD0640E260E08EE090E012
:105510000E94CF0680EA94E00E94BD061092A70286
:105520008091A602813011F40E94EA041092A50233
:105530004AC082E7B81241C0F8018281853451F433
:105540001092A60286E30E9479041092A4028FE8CA
:1055500094E030C0833561F5F8018381813311F423
:1055600081E003C0823321F482E08093A40202C070
:105570001092A40281E08093A60216DD8CE794E0ED
:105580000E94BD060E94EA0485E30E9460048D30FB
:10559000D1F083E694E00E94BD0685E30E9460049A
:1055A0000E9442070E94CA06FFDC1092A6020BC0AE
:1055B00081E494E00E94BD0606C08AE294E00E9465
:1055C000BD061092A702EB960FB6F894DEBF0FBE91
:1055D000CDBFDF91CF911F910F91FF90EF90DF90A2
:1055E000CF90BF90AF907F906F905F904F90089555
:1055F000AF92BF92CF92DF92FF920F931F93CF9300
:10560000DF93CDB7DEB760970FB6F894DEBF0FBE5D
:10561000CDBFCE0101966C0180E1F60111928A9511
:10562000E9F78091A602813009F096C08091A50229
:10563000813009F491C0489B8FC0A8958BE30E94EC
:105640006004182F1F7719838091A402823059F4C7
:105650008AE194E00E94BD06812F0E94420788E003
:1056600094E00E94BD061F3010F08FE089832E98D1
:105670008FEF0E94EF0310E0F12C0AEA89811817DE
:10568000E0F480E00E94EF03E2E0F0E0EC0FFD1FA9
:10569000E10FF11D8083183010F4082706C0183080
:1056A00021F4081711F0FF24F3949091A402923092
:1056B00011F40E9442071F5FE1CF2E9A8091A4024D
:1056C000823021F485E094E00E94BD064AE050E07B
:1056D00064E972E0C6015AD42091A402892B61F0DA
:1056E0008A81873049F48981893030F0F1E0FF16F2
:1056F00019F0223019F430C0213071F582E094E0C5
:105700000E94BD0680E1F601A4E9B2E001900D928D
:105710008A95E1F76E0182E0C80ED11C5E019BE024
:10572000A90EB11CF60181916F010E944207CA14B3
:10573000DB04C1F78091A402813051F4F1E0FF1243
:1057400007C080EE93E00E94BD06802F0E944207B2
:105750008DED93E00E94BD0660960FB6F894DEBF13
:105760000FBECDBFDF91CF911F910F91FF90DF90C2
:10577000CF90BF90AF9008952091390530913A05B0
:105780002115310521F420913001309131018091B2
:105790002E0190912F01009741F48DB79EB7409153
:1057A000320150913301841B950B2817390718F4E7
:1057B000821B930B089580E090E0089582E40E949C
:1057C0009F0640E265E08091390590913A050E947C
:1057D000CF060E94CA0683E50E949F0640E265E06C
:1057E00080913001909131010E94CF060E94CA063B
:1057F00085E40E949F0640E265E080912E01909131
:105800002F010E94CF060E94CA0686E40E949F06CE
:10581000B3DF40E265E00E94CF060C94CA0608950B
:105820001F920F920FB60F9211242F933F934F9315
:105830005F936F937F938F939F93AF93BF93EF93F8
:10584000FF9380913504882339F083E394E00E942C
:10585000C2088093CE0005C08091C9008F7D8093DF
:10586000C900FF91EF91BF91AF919F918F917F916F
:105870006F915F914F913F912F910F900FBE0F90BD
:105880001F9018951F920F920FB60F9211242F930D
:105890003F934F935F936F937F938F939F93AF93B8
:1058A000BF93EF93FF9395B180E1892785B960910C
:1058B000CE008091C800887121F486EB94E00E94AC
:1058C000AC08FF91EF91BF91AF919F918F917F9124
:1058D0006F915F914F913F912F910F900FBE0F905D
:1058E0001F90189597FF04C022E02093C8009F776F
:1058F0009093CD008093CC0088E98093C90086E026
:105900008093CA0008958091C90085FD09C08091E7
:105910003504882329F08091C90080628093C900F2
:105920000895E0912D03F0912E0381E00995EBCFCE
:1059300008950F931F93CF93DF938C01D0E02D2F09
:1059400030E0F901EE0FFF1F2E0F3F1FF901E45564
:10595000FF4FC49123553F4FF90145915491CC23FA
:10596000A9F00115110539F480E20E949F068C2FE1
:105970000E949F0609C0F80180818C1305C0C801F0
:10598000FA01099581E003C0DF5FD9CF80E0DF91A4
:10599000CF911F910F910895CF93C0914D018093A6
:1059A0004D018091B804882309F43DC086EB94E052
:1059B0000E94C2082091A8023091A9028A3011F0F9
:1059C0008D3011F52115310561F3F901E655FD4FD3
:1059D00010828AEA92E0ADDF811111C087EE96E075
:1059E0000E94BD068AEA92E00E94B2068FEC96E021
:1059F0000E94BD0680E090E09CDF0E94CA061092E3
:105A0000A9021092A802CDCF2038310550F6A90185
:105A10004F5F5F4F5093A9024093A802F901E655EA
:105A2000FD4F8083BECFC0934D01CF910895E4E632
:105A3000F0E080818B7F8083299A84B1866484B969
:105A4000239880E58CBD8DB581608DBD0895AA1B1E
:105A5000BB1B51E107C0AA1FBB1FA617B70710F059
:105A6000A61BB70B881F991F5A95A9F7809590958B
:105A7000BC01CD01089597FB072E16F4009406D0C3
:105A800077FD08D0E4DF07FC05D03EF490958195C2
:105A90009F4F0895709561957F4F08952F923F9283
:105AA0004F925F926F927F928F929F92AF92BF922E
:105AB000CF92DF92EF92FF920F931F93CF93DF93DA
:105AC000CDB7DEB7CA1BDB0B0FB6F894DEBF0FBE37
:105AD000CDBF09942A88398848885F846E847D8484
